S00A000052412E7372656387
S3150000000048480020D12C0000BD2B0000CD2C00005C
S31500000010CD2C0000CD2C0000CD2C0000CD2C0000F6
S31500000020000000000000000000000000CD2C0000D1
S31500000030CD2C000000000000CD2C0000CD2C0000CF
S31500000040000000009D280000C12800009D29000036
S31500000050000000000000000000000000000000009A
S31500000060000000000000000000000000000000008A
S31500000070000000000000000000000000000000007A
S31500000080000000000000000000000000000000006A
S31500000400FFFFFFFFDFCEFFFFFCFF0F00FFFF0F0028
S31500000410FCFF0F00FFFF0F00FCFF0F00FFFF0F00A8
S31500000420FCFF0F20FFFF0F20FCFF7F40FFFF7F40F8
S31500000430FCFF0D40FFFF0D40FFFFFFFFFFFFFFFF2B
S31500000440FFFFFFFFFFFFFFFFFFFFFFFFFFFFFFFFB6
S31500000450FFFFFFFFFFFFFFFFFFFFFFFFFFFFFFFFA6
S31500000460FFFFFFFFFFFFFFFFFFFFFFFFFFFFFFFF96
S31500000470FFFFFFFFFFFFFFFFFFFFFFFFFFFFFFFF86
S31500000480FFFFFFFFFFFFFFFFFFFFFFFFFFFFFFFF76
S31500000490FFFFFFFFFFFFFFFFFFFFFFFFFFFFFFFF66
S315000004A0FFFFFFFFFFFFFFFFFFFFFFFFFFFFFFFF56
S315000004B0FFFFFFFFFFFFFFFFFFFFFFFFFFFFFFFF46
S315000004C0FFFFFFFFFFFFFFFFFFFFFFFFFFFFFFFF36
S315000004D0FFFFFFFFFFFFFFFFFFFFFFFFFFFFFFFF26
S315000004E0FFFFFFFFFFFFFFFFFFFFFFFFFFFFFFFF16
S315000004F0FFFFFFFFFFFFFFFFFFFFFFFFFFFFFFFF06
S3150000050010B544F2B804C2F20004237863B940F28D
S315000005100003C0F200032BB143F2C010C0F200008A
S3150000052000E000BF0123237010BDC04640F2000367
S31500000530C0F2000310B54BB144F2BC0143F2C01047
S31500000540C2F20001C0F2000000E000BF10BDC046CC
S3150000055010B502F073FC10BD00B583B040B94CF283
S31500000560000390220121C4F27E03995403B000BD1A
S315000005700228FBD142F6F07344F2D400C0F2000325
S315000005805B68C2F200001900019300F03BFDEDE745
S3150000059010B5FFF7DDFF002010BDC046F0B5574689
S315000005A04E46DE46454645F24353E0B50268C5F27F
S315000005B04F4306000F0085B09A4200D1D9E00A6881
S315000005C08167002A00D180E044F2F403C2F20003FE
S315000005D01978022900D88CE03B7C9846F97C3C7D52
S315000005E00800431E9841022340429843033004B951
S315000005F003203B8B13B18B4200D2ADE02C25715505
S315000006002D217454F98A33864346F185BBB3B36909
S3150000061039009B4684463000F3695F469A46336A42
S3150000062000259946736A00240093B36A8B460193AA
S315000006303369023202937369464603938046002368
S3150000064010885188884201D240F2030C5146FC5270
S31500000650CC5249460098CC52590044500199029810
S31500000660CC5211880135C15251880398EDB2C1525E
S3150000067006320233B542E3D1604646465F4620B3B2
S3150000068044F25411FB69BA7E5B68C2F200011B7E1C
S3150000069052005B008B523D7CEC00641B02341B193C
S315000006A09BB28B5205338B5244F26413C2F20003A1
S315000006B01E6045F24353C5F24F43336005B0F0BCAC
S315000006C0BB46B246A946A046F0BDFB69F3670BCB15
S315000006D01B68984744F25411FB69BA7E5B683C6814
S315000006E01B7EC2F200015B0052008B52002CD2D15D
S315000006F0D8E744F200144800C2F200040419B461B9
S3150000070044F2FC0444F2E405C2F200040419F46164
S3150000071044F2F804C2F20005AC46C2F20004041921
S3150000072034628C006444746244F2EC04C2F2000445
S315000007300419B46244F20414C2F2000404193461C8
S3150000074044F2F004C2F20004A44660447061387CAE
S3150000075080464144197041E72C2031542D217454B0
S31500000760F98A33864346F1852938002B00D04EE7B7
S3150000077086E70E20A2E7C04644F26413C2F20003E5
S3150000078010B51860C36F18689B685B68984710BD02
S315000007900020704710B5C46F2068A4686469A0473C
S315000007A010BDC046F0B5CE46474680B5C36F0500BE
S315000007B018689B6883B09B68894601A9984741F2EF
S315000007C0707398422AD00233984227D0AB6F187CB8
S315000007D018B3EB6F40F2000C5B6801AA5F79002347
S315000007E004E00133D9B20232884216D9012FF8D17A
S315000007F0AE6959001488765AA41B14D44E46F6885E
S31500000800013374432E690232765A94FBF6F44E464F
S3150000081036687452D9B28842E8D8002003B0C0BC0A
S31500000820B946B046F0BD4C46664624686652D8E7DF
S31500000830F0B54E46DE4657464546E0B5836F1A7C10
S31500000840914692B30A7A4FF6FF7B904640F2640CCB
S3150000085000221D6804690E68406902352B88013242
S315000008609A465746CB88D2B27B438F880635B3FB70
S31500000870F7F35F4623803B4047467B4393FBFCF3FD
S31500000880038023889A465746338802367B435F4661
S31500000890B3FBFCF323803B4047467B43B3FBFCF3AF
S315000008A00234038002304A45D8D10020F0BCBB4652
S315000008B0B246A946A046F0BDC18500207047C04695
S315000008C0F0B5DE4657464E464546E0B5C36F0400D2
S315000008D018689B688BB09B68049109A9984741F2F8
S315000008E07073984200D127E10233984200D123E188
S315000008F0A06F037C9946002B00D1D1E1E36F40F253
S3150000090000089A4655465B68CC465B7905959B463A
S315000009104546A368D8460293E368002201938146C0
S315000009200023AB46A1694046012800D10BE1C85A15
S31500000930CE18002800D117E1E08D48B320204042B0
S31500000940101800D557E1019FC7403800012707401E
S3150000095003970127384200D03FE1656A97003800C7
S31500000960AA46504407685F4407600697A76AFD18C1
S31500000970FF5A07950137BFB22F80E58DAF4207D3E7
S31500000980069FB7FBF5F73780039E0660079806803B
S315000009900132D0B202336045C5D3059B48469A461C
S315000009A0049B029A1A60019A5A60877E002F00D132
S315000009B07DE144F2541600230021C2F2000632887B
S315000009C001319B1889B29BB20236B942F7D35A1C41
S315000009D092B291469A1C92B293461F1DDA1C92B2AD
S315000009E0BFB201923A005E1DB6B244F2521CC2F288
S315000009F0000C61460978884644F208114546C2F261
S31500000A000001CD544D46837E4B55534640F2080AAD
S31500000A1055465B685B79AB43012B00D1F3E00123BC
S31500000A205D464B55C3695B689A4655461B7E6D7E8F
S31500000A306B43019DDBB24B555D0003B3A246814675
S31500000A40002300222C000800520009A9895A09AD8A
S31500000A508B46AA5C7E1CC2555A460133120A3900DF
S31500000A60B6B202379BB28255BFB21A00A342EBDB85
S31500000A700E00544601003A0048460336B6B2037CDF
S31500000A80002B51D000238B54037CBA1C002540F266
S31500000A90200992B28B55002B00D143E1019034E03E
S31500000AA0E068D8400300012003408B54A6696B0020
S31500000AB0F65C571CBFB2CE55A669971CF65ABFB254
S31500000AC0360ACE552669D71CF65CBFB2CE552669C6
S31500000AD0171DF65ABFB2360ACE55561DB6B2B246E5
S31500000AE06669971DF65CBFB2B346564658468855AA
S31500000AF060690135C35A92461B0ACB55019B0732E2
S31500000B001F7CABB292B29F420BD920235B42EB18FB
S31500000B10C6D54B46E7685B1B9F40A368EB403B434B
S31500000B20C1E756460836B6B24346604601330370FF
S31500000B30434600208B548B5D0BB0F0BCBB46B246DF
S31500000B40A946A046F0BD4E4658003668C018805DDE
S31500000B5008AD0826AA46400080195044043800888B
S31500000B60CE188346C85A40B9584601323080D0B2B2
S31500000B700233604500D2D6E60FE72569EF5A4FF6F5
S31500000B80FF75C019A84200DDD6E658456AD36569E7
S31500000B90EF5AC01B80B2834500D3CDE60025E0693D
S31500000BA0C552206AC518AA462D25C05A675D8742D8
S31500000BB000D9A9E020204042101800D5B5E04746EC
S31500000BC0874001209040029D854328000295019DA3
S31500000BD0A060BD430195E560AEE60026656A90001B
S31500000BE046510025A06A0132C552D0B20233604593
S31500000BF000D298E6D1E62020019F801A874002980D
S31500000C00D0403843A2E600235D464B55C3695B6876
S31500000C101B7E9A465546019BCD54ABB2002D00D1A2
S31500000C202DE708AA96881279360ACA55BA1C92B2D6
S31500000C3091467A1C92B28E54012B08D04D4608AAD2
S31500000C40D6889279360A4A55FA1C92B28E545B00BF
S31500000C50FF18BFB2037C7E1C3A00B6B2002B00D14F
S31500000C6062E70FE70025206AC5522C20205C8246E9
S31500000C70E069C518C05A0395824523D82020404212
S31500000C80101849D445468540280001279740029D03
S31500000C903D43019F029507430197A560E76014E075
S31500000CA0E36F9A46A3680293E368019378E6032309
S31500000CB0052601930422042740F2020B40F20109A3
S31500000CC0002392E6039D01302880208E824500D3C2
S31500000CD032E6039D2F88B8421AD8202040421018C9
S31500000CE028D401258540280001279740029DBD4351
S31500000CF0A56002950025019F87430398E76005805C
S31500000D0058460197308017E655460130288013E68D
S31500000D100398013707800FE620204546801AC54014
S31500000D202800B2E70337BEB2FEE620204746801A07
S31500000D30C74046E720200125801AC5402800D3E792
S31500000D4010B570B145F243530268C5F24F439A425B
S31500000D5005D1C36F18689B68DB68984710BD0720EC
S31500000D60FCE70120FAE7C04610B50400C8B145F219
S31500000D7043530268C5F24F439A4210D144F2F4033A
S31500000D80816FC2F200031A78097C521A1A70C36F77
S31500000D9018689B689B6998470023236010BD07204D
S31500000DA0FCE70120FAE7C0460023036000207047F5
S31500000DB0FF2010B540F600040B0A08401901091877
S31500000DC0C4F2040489000B5900209B07DB0F137043
S31500000DD010BDC0460023C4F204039C46090A49011B
S31500000DE061444B68002013807047C0460020C4F25F
S31500000DF0040084461800090A904300041340490180
S31500000E000343614400208B607047C046FF200123E6
S31500000E100840834052B91B040022C4F204029446DF
S31500000E20090A4901614400208B6070474FF6FF7242
S31500000E301340F1E70020C4F2040084461800090AB2
S31500000E40490110B561440C68104020439343984310
S31500000E500860002010BDC0460023C4F204039C466F
S31500000E60090A490161444B6800201B0C1380704736
S31500000E700020C4F2040084460B0A5B0163445868F0
S31500000E80FF231940FE3B8B40000C99B203405B1ACE
S31500000E9059424B41002013707047C0460020C4F2EF
S31500000EA0040084461800090A9043000413404901CF
S31500000EB0034361440020CB607047C046062070475C
S31500000EC00B0A10B55B01012A10D00022C4F20402FD
S31500000ED09446FF208022014052028A406344DC6827
S31500000EE02243120C12040020DA6010BD0020C4F266
S31500000EF004008446FF2001408A4011004FF6FF722D
S31500000F006344DC68114021430A40ECE7F0B5DE4655
S31500000F1057464E464546E0B583B0EFF310820123AF
S31500000F2083F3108844F29823C2F2000301931B68EE
S31500000F3033B940F60051C4F20401CB704033CB7094
S31500000F4001990B6801330B6082F3108803889A4677
S31500000F50BBB3802340F600055B029946284B00226E
S31500000F6040F2FF089C464168C4F204050AE0434685
S31500000F701E4023019B1901329B0092B25851083141
S31500000F8092451ED04B468E880868340A1842EED029
S31500000F9043461E4023019C19A700644600977F59CB
S31500000FA09B1927403C00009F01327C516746074051
S31500000FB03C00009F9B0092B27C51083158519245EB
S31500000FC0E0D1EFF31082012383F31088019B1B68A5
S31500000FD01BB101990B68013B0B60019B1B6833B980
S31500000FE040F60051C4F20401CB708033CB7082F31B
S31500000FF0108803B0F0BCBB46B246A946A046F0BD79
S31500001000FFFFFEFF45F2542310B5C5F24F03036000
S315000010100800FFF77BFF002010BDC04610B5080092
S31500001020FFF774FF002010BDF0B5EFF31084012325
S3150000103083F3108844F29823C2F20003186830B98B
S3150000104040F60055C4F20405E8704030E8701868B0
S315000010500130186084F31088D00321D4FF24080AD5
S315000010600C40010140F600000919C4F20400890091
S315000010700A50EFF31082012181F31088196811B12B
S315000010801968013919601B6833B940F60051C4F27A
S315000010900401CB708033CB7082F310880020F0BD42
S315000010A0FF2440F60005080A0C4001010819C4F2A5
S315000010B0040580004759034E3740164047514651B4
S315000010C0D0E7C046FFFFFEFF70B5042482B0019151
S315000010D00092045746F200022500C035C4F2000211
S315000010E0A90088581F4E30408850895845F2004064
S315000010F048F20002C905C90D1143C4F20000C289B5
S315000011008A42FCD0082244F200010270019AC2F21F
S3150000111000012AB3A2008858019C4460009810B1CF
S315000011208858009C84603F208958CA788243802A68
S3150000113014D002B9CB8145F200431822C4F2000351
S315000011401A7046F200028021C4F20002AD00A858CF
S31500001150490401430020A95002B070BD8B81EAE723
S31500001160A200DBE7FFFFFFFE062070470620704760
S31500001170042346F200028021C356C4F20002C033A3
S315000011809B00985849040143995000207047C04677
S31500001190042346F20002C356C4F20002C0339B0089
S315000011A0995802480140995000207047FFFFFFFE02
S315000011B0042244F2000310B58256C2F200039200E4
S315000011C0D25800233F200B604B60D37883434BB14A
S315000011D0C1308860D48901382040C860802B07D090
S315000011E0002010BD80235B028B60D389CB60F7E7BC
S315000011F080235B020B6093894B60F1E7042330B5D3
S31500001200C35646F200011A00C032C4F20001920031
S315000012105458064D9B002C40545044F200020021C5
S31500001220C2F2000299500160002030BDFFFFFFFEB0
S31500001230F8B544F26813CE464746C2F200031A7860
S3150000124080B581460F00002A39D07B681B785BB2D7
S31500001250002B59DB44F200059E00C2F20005AA5994
S3150000126008201AB1C0BCB946B046F8BD4A4613714B
S315000012703B683F219C46F730DA781F008A433AB133
S31500001280DA8990464446D2B2044012022243DA81F9
S31500001290BA7810338A43002AEED145F20043083269
S315000012A0C4F200031A706246AA5118221A7044F258
S315000012B000334A46C4F2544300201360D2E70126A5
S315000012C01E70EFF3108186F310884EF20003C4F20D
S315000012D00103DA690D480240DA61DB6981F310889F
S315000012E044F20005C2F2000580220021280001F028
S315000012F042FE45F20043C4F200035D601E737B6844
S315000013001B785BB2002BA5DA0B20ABE7FFFFBFFF14
S31500001310F0B5C646042300B5C356C022984646F229
S3150000132000034244C4F2000394469200D058204C75
S315000013302040D050D25845F2004048F20003D20572
S31500001340D20D1A43C4F20000C3899342FCD00B00AD
S315000013503F24FF26DA781D00A2432AB1DF89F8B2BE
S31500001360020237403A43DA81AA781033A243002AB0
S31500001370F0D145F200430832C4F200031A70404629
S3150000138044F200028700C2F20002B95018221A7015
S31500001390624646F2000395008022C4F20003E95833
S315000013A052040A430020EA5080BCB846F0BDC0464D
S315000013B0FFFFFFFE0167C267836700207047C046D4
S315000013C0836E70B55B6A44F26C155A68C2F200050A
S315000013D011680122CA812A780400012A3AD00C2019
S315000013E0CA78824308200243CA70A279092A2ED0FD
S315000013F022895000121892B28A81226A4A601868BD
S315000014009B685B68984708BBA36E9B6A5A6811681D
S315000014100122CA812A78012A20D03020CA78824344
S3150000142010200243CA70A279092A26D022895000C8
S31500001430121892B28A81626A8A6042F22402C4F267
S3150000144008024A6018689B685B68984770BD2289E5
S315000014508A81D2E78A812A1D4A60D0E73024C8787B
S315000014608A81A04342F22402102408352043C4F2A4
S3150000147008028D60C8704A60E4E722898A81DAE74B
S31500001480F8B5437904003BB942F20003C4F20803FD
S315000014901A78920700D493E02379032B00D1A3E0B6
S315000014A06C2244F29C23A256C2F200039200D4504E
S315000014B06D22A25620009200D4506E22A2569200AF
S315000014C0D450FFF77DFF002879D16379002B00D037
S315000014D07DE042F200030621C4F208031A788A432B
S315000014E01A70A579EF232A00113A1A425CD04922D4
S315000014F04821A25C615C42F20003C90192010A43E1
S315000015003F21C4F208031E780E4032433726D2B27A
S315000015101A705F78227FB2433E4032435A7065228A
S3150000152033279E78A25CBE433A4032439A70092D17
S315000015305DD01F225A711A683B490A401A601A6820
S31500001540520052081A608022996852020A439A6031
S315000015508022996892020A439A6080229968D20290
S315000015600A439A604A23E25C42F20003C4F208038B
S315000015701A734B22A25C5A734C22A25C9A734D22B8
S31500001580A25CDA734E22A25C1A744F22A25C1A7510
S315000015905022A25C5A755122A25C9A755222A25C14
S315000015A0DA755322A25C1A7602232371237142F262
S315000015B000030121C4F208031A780A431A70F8BD21
S315000015C01B78DB0700D467E741F27070F7E742F259
S315000015D000030621C4F208031A780A431A701A781F
S315000015E005398A431A707CE741F27170E7E7802279
S315000015F059711968D2050A431A60802219681206C1
S315000016000A431A608022996852020A439A609A68CD
S3150000161006490A409A609A6805490A409A609A689B
S3150000162004490A409A609DE7FFFFFFBFFFFFFDFFE9
S31500001630FFFFFBFFFFFFF7FF03790020032B00D01E
S31500001640704741F27170FBE730B50379022B27D161
S3150000165042F200031121C4F208031A68114C4A40F1
S315000016601A603023816ECA5646F20003C032C4F2B5
S3150000167000039200D5582540D55031228A56C032F3
S315000016809200D5582540D55032228A56C032920053
S31500001690D1582140D1500123037100234381838116
S315000016A0002030BDFFFFFEFF30B50379022B1AD0B4
S315000016B0C379ABB1032382791340012B01D00020FB
S315000016C030BD0389002BFAD00023C56A0C885A0066
S315000016D05453013302899BB202319A42F6D8EEE79F
S315000016E041F27270ECE741F27070E9E710B5040060
S315000016F0002836D045F255330268C4F254339A4274
S3150000170013D144F21C22C2F20002017A13885B1A3A
S31500001710DBB21380032280790240012A07D0002021
S3150000172083B100232371236010BD0720FCE744F238
S315000017303420C2F200000288511AC9B2018000208A
S31500001740002BEED1A36E5B6A18689B681B6A9847EC
S315000017500028E6D1A36E9B6A18689B681B6A9847A7
S31500001760DFE70120E0E7C046036942889C4637234D
S315000017706244920192FBF3F210B5C468121B4A80D0
S31500001780426983889446492263449B0193FBF2F3A2
S315000017901B1B8B800023C380836010BDF0B54546BC
S315000017A0DE4657464E46E0B5037905000C008BB081
S315000017B0022B3CD0C379002B36D05AB1012A39D03E
S315000017C0022A20D000200BB0F0BCBB46B246A94688
S315000017D0A046F0BD8379012BF4D10389002BF1D00B
S315000017E00021466A00234A0052185200B218D05A05
S315000017F0E0520233062BFAD101312B8989B2063425
S315000018008B42EFD8DEE78379012BDBD10389002BEE
S31500001810D8D00023C16DCA5C013322802A899BB2CD
S3150000182002349A42F7D8CDE741F27270CBE741F223
S315000018307070C8E78379012BC4D10389002BC1D00E
S3150000184040F20008A94645468846806A4B46FF2472
S315000018506F007F191B6AB900CA586426920A224093
S3150000186001321401A41A4A468446925D7F00E400C0
S31500001870E408BC4459181441AA466046002240F2C6
S31500001880000B0D0003AE019740F2FF3703AB99182A
S31500001890AB5804323B406343CB600388023033804D
S315000018A05B460236B3800C2AEED1614603A8019F3F
S315000018B0FFF75AFF4B465546986A41460023C7191B
S315000018C0FA5ACA520233062BFAD14B46884640F2E0
S315000018D0060C01351B89ADB2E044AB42B6D871E7C0
S315000018E0F0B5CE46474680B507AC2678072B47D0DD
S315000018F0C9005D1C91FBF5F4072E3FD044F26C1C29
S31500001900C2F2000C61460E8CA64249DC65460121F6
S3150000191022352E88A64238DC013102350C29F8D151
S3150000192044F26C15C2F20005A84651008946891892
S31500001930C90041444E310D880A2167464A44920047
S3150000194052181C325200BA5A1031AA1A341B4900D6
S3150000195054437A5AB61A94FBF6F42C1B072B02D082
S315000019605D1C6C43E4084FF6FF739C4201D94FF6A9
S31500001970FF740480C0BCB946B046F0BD0024F0E751
S315000019800C00072EBAD10024EDE767465500A9469C
S31500001990AD18AD006D181C356D007D5B0139CCE7C7
S315000019A051008A1844F26C11C2F200018C46D20032
S315000019B06244158F341B6C43CDE7C046F0B5DE4656
S315000019C057464E464546E0B5037904008B4693B02C
S315000019D0022B00D135E10379032B20D0238B002B7A
S315000019E000D1A0E00323A2791340012B07D00020E9
S315000019F013B0F0BCBB46B246A946A046F0BD23894B
S31500001A00002BF4D000235A46E16A5800405A0133AD
S31500001A10108020899BB202329842F6D8E7E7C37954
S31500001A20012B3CD06422825C039282790692028961
S31500001A309046002A6AD044F26C13C2F20003059362
S31500001A405B46002540F2FF39069F07936A009246DF
S31500001A50AC46D4446246FF21236A9000C258A3468E
S31500001A60960A3140049101310A01511A039A181855
S31500001A70114100224C460BAB9E188358043223407A
S31500001A804B43F3600C2AF5D15C46012F4ED0092F4B
S31500001A9017D00135ADB2A84535D9A779D6E7038B5E
S31500001AA0428B934203D000D365E101330383642361
S31500001AB0E35C0393A379069323899846002BBAD156
S31500001AC02BE05346E26A5B195B00D718D35A52469D
S31500001AD09846636A995A059B1B78022B00D1A8E0A9
S31500001AE03980228B012A08D94346511E4B431900DF
S31500001AF03B885B18B3FBF2F33B802389013598469C
S31500001B00ADB2A845C9D8079B9B46E3792BB90222FB
S31500001B10A3799343012B00D196E001232371238BF4
S31500001B20002B00D05EE741F2727061E76246570013
S31500001B300BAA40F2000B1600A36A626AD819D15BA1
S31500001B40059A1278022A6BD001805A46318006A97E
S31500001B50F2808C461A220236624402379642ECD153
S31500001B60238B002BC9D05246E36A0BA99B469B5A8E
S31500001B700800D3449A46FFF7F7FD06ABDA8A998A3E
S31500001B801B8B8F1ACE1AD01A089709960A90002F27
S31500001B9001DA571A0897002E01DA5E1A099600280C
S31500001BA001DA981A0A900898099E84460A9F7000DE
S31500001BB084450FDA78008046B8444046C00F40445A
S31500001BC04010844506DA2C208B18032206A9091832
S31500001BD00A7008E0BE4200DAC6E02C20D3180622BE
S31500001BE006A909180A704FF6FF72934201DD4FF6F7
S31500001BF0FF735A4613802C2206AB9B181B78E26DA6
S31500001C0053555346218B4A1E53431A005B461B8885
S31500001C109B18B3FBF1F35A4613802389984638E79D
S31500001C20069B039A0093049BFFF75AFEA36AD95BAF
S31500001C308BE7069B38000093039A049BFFF750FE40
S31500001C404FE741F27070D3E64346002B00D188E09F
S31500001C50002340F2000804935B46002740F2FF3C55
S31500001C60464606930AE0049B002601330493192393
S31500001C70137001372389BFB29F426CD22369DA19E8
S31500001C80DB5D192BEFD0790079188B009A46236A11
S31500001C90B0469B4640F2FF095E4689B2CB1C9BB21A
S31500001CA003930597A379012B3DD08623606BE25AF7
S31500001CB04B001D5A52085346F3588F00980A4B465C
S31500001CC018404FF6FF7301304243D2081A4064238E
S31500001CD0AD1A0201121AD200E05CD2080241604637
S31500001CE095FBF2F2F5192B681840101816D46045CA
S31500001CF020DD40F2010B40F2FF32D844980A800200
S31500001D0010430131039A8BB228609A42CAD14646E3
S31500001D10059F032EADD12369DA19A4E740F2010B22
S31500001D200022D844EAE78333E25AA06A4B001D5AE0
S31500001D305208C0E722B940F2010B0200D844DDE7A1
S31500001D402369059A059D9A5C01325A55266A020056
S31500001D50F5192B68D2E7069A9346049A934200D067
S31500001D60DBE60123E371D8E62C200522CB1806A971
S31500001D7009180A7037E7028399E6C046F0B5DE46D1
S31500001D8057464E46454645F25533E0B50268C4F21D
S31500001D90543304008B4689B09A4201D100F034FDD9
S31500001DA003234A791340012B01D100F0E0FB002305
S31500001DB00371038981660093077A44F21C2644F274
S31500001DC04C23C2F200063088C2F20003C11844F266
S31500001DD05023C2F200039C4644F204238500C2F25B
S31500001DE0000365449C46656145002D18AD006544B9
S31500001DF0381825625B46C5B25820216125521878ED
S31500001E00019535806071588B608300202083092AF4
S31500001E1001D100F0E7FB0125187F6840E0715B46C1
S31500001E2008201D79EE003040960130432077482087
S31500001E305E7826549E7801302654DE790130265489
S31500001E401E7A013026545E7A013026549E7A01307D
S31500001E502654DE7A013026541E7B013026545E7BE2
S31500001E60013026549E7B01302654DE7B01302654F9
S31500001E701E7C0130265402263700A27198792F4025
S31500001E80000152073843D20F024365202254002D29
S31500001E9000D0ADE16422A654009B002240F2000966
S31500001EA05D467BB943E059791E7909065B88B6021F
S31500001EB031430B43216A0132CB51238992B29342BB
S31500001EC033D921694B468B54494668696369844610
S31500001ED09700D95151008E18687973006344092818
S31500001EE0E1D0B600B246276ABA44072800D18AE193
S31500001EF058790006844618795B88800280466046D9
S31500001F00464630431843030084465046036089180A
S31500001F1001318B006146F95051460968FB1859603A
S31500001F200132238992B29342CBD8AB4600935B46EB
S31500001F3030229F563C32A7543B3A99563C32A15424
S31500001F403B3A9A5603264EF200133E40CEF2000369
S31500001F509C46F300FF266E2040F200359E40225438
S31500001F60B80880006044455944F29C2CB54380264D
S31500001F709E4040F20033C2F2000C3543C550634622
S31500001F80B8003D00C45046F20000C035C4F200005F
S31500001F90AD002B589E4E40F2801A33402B501F2323
S31500001FA03B40984601234646B34098464EF20013FE
S31500001FB0CEF2000399464646534640F200357F0965
S31500001FC0BF004F44FE503E608F08BF004F447B5910
S31500001FD0984603230B40DB009946FF234E46B34049
S31500001FE046469E43B04680234E46B34099464346F6
S31500001FF04E4633437B5163468F00FC500F00C0377B
S31500002000BF003B58824E33403B501F230B401F00FE
S315000020100123BB401F004EF20013CEF20003984688
S315000020205346490989004144CF5040F200330F60BE
S31500002030910889004144CF5803231340DB0098469A
S315000020403500FF234646B3409F438023B3401F43DA
S3150000205040F20033CF5063469100CC501100C0319E
S3150000206089000E5801232E400E501F2111408B402F
S3150000207019004EF20013CEF200039C465346520955
S3150000208092006244D1501160002374220021029311
S31500002090A154019B009A934200D1ECE25B465B7926
S315000020A0072B00D0C2E042F200038022C4F20803EC
S315000020B01968D2030A431A608022196812040A4377
S315000020C01A601F225A719A6A524944F26C180A40E1
S315000020D040219A629A6AC2F200088A439A6242F2E0
S315000020E00003C4F208031A684B49402011408022BD
S315000020F0D2020A431A605A684849114080225205A2
S315000021000A435A609A6A46490A409A629A6A454957
S315000021100A409A628022996A92050A4380219A624D
S315000021209A6A8A439A629A6A02439A624CF2000257
S3150000213040F2A430C4F27E0212581202160E5A68F9
S315000021405F689200920F91465D68374A1868BF0033
S3150000215010404A46186043F600705201B21A024314
S3150000216092B29A85F200901BC000BF0F801B7F01C0
S315000021708011C01B43F20067384380B2D88544F60D
S3150000218000009219AD00D200AD0F921992116D01A7
S31500002190521B024392B21A8680221868D203024367
S315000021A01A60012222715A464346126A6364226704
S315000021B05A460023526BA3816381E2670022A3671C
S315000021C062548222A3525B469A8F8423E2525B4674
S315000021D0DA8F8623E25245F25533C4F25433236034
S315000021E0029809B0F0BCBB46B246A946A046F0BD6F
S315000021F0012D05D0022D00D1F8E1032D00D04BE6CC
S315000022006422A55448E653461B689C467FE6C046B2
S31500002210FFFFFEFFFFFFFFDFFFFFF3FFFFFFFFCF25
S31500002220FFFFFFF7FFFFFFBFFFFFBFFF42F2000503
S3150000223040F20022C4F208052B68012113432B60EB
S315000022402B68013AFF3A13432B601E2000F088FCEE
S315000022505B465A7980232968DB030B432B60802376
S3150000226029681B040B432B601F236B71AB6AE14982
S3150000227044F26C180B404021AB62AB6AC2F2000814
S315000022808B43AB62072A00D129E743461B78002B14
S3150000229000D024E742460133137044F200022B6853
S315000022A0002113432B602B68D34A40F27F0C134066
S315000022B02B602B68D14A40F2801713402B60802395
S315000022C0AA685B021343AB60AB68CD4A40F2802933
S315000022D01340AB60AB68CB4A40F2002A1340AB60B8
S315000022E0AB68C94A1340AB602B68C84A1A408023C2
S315000022F0DB0213432B60424641F6004353604CF227
S31500002300000340F2A832C4F27E039A5840F2001845
S31500002310009240F2A432985806AB1A00C0B2059358
S31500002320009D6346CD40EEB22B402D0600D58AE1D6
S315000023304F2800D983E13F2E00D980E14D462B433B
S315000023409BB213809B010831138002322029E7D10A
S3150000235042F200060123C4F20806F360002380223D
S315000023603361B36A1343B36244F26C13C2F20003DF
S3150000237098460493019300230093009B002B00D101
S3150000238075E1009B012B00D134E2009B022B00D1AA
S3150000239040E240F60002336813438022336033681C
S315000023A0920213433360C02332681B031343336026
S315000023B001232025002740F2020A99462000FEF755
S315000023C0FFFF53464A46237133781343DBB233701B
S315000023D02379032BFCD14346013D1B89ADB2FF187F
S315000023E0002DEBD101997F094F813368874A1A4046
S315000023F08023DB0213433360009B8A1C0133009366
S315000024000192042BB9D17368814A13407360B36A91
S31500002410784A1340B3628023B26ADB051343B36282
S315000024202023434403931F2342F2000600931E3BDE
S315000024300193C4F208063368764A13403360019B61
S31500002440013B072B00D9EBE0009BB3858023326864
S31500002450DB031343336001232025002740F2020AE1
S3150000246099462000FEF7ACFF53464A46237133785F
S315000024701343DBB233702379032BFCD14346013D72
S315000024801B89ADB2FF18002DEBD1039B7F091F807E
S3150000249002330393009B019A203301329BB20192CF
S315000024A000930D2AC7D143465B8C4FF6FF799C46B5
S315000024B080235B029A46049A5032049B58898445CD
S315000024C000D9CCE10125544E31882B0001358842D4
S315000024D000D2C1E002360B2DF6D10A2345F60027BD
S315000024E05646059D081A2D881033751BAE007519C2
S315000024F02E01751B0601301A46465B00F35AC001D1
S31500002500CB1A90FBF3F3FB1A2D029BB2B5FBF3F348
S3150000251004994B8249460B401D01ED1AED0113004B
S315000025202900183BC80B1880023349199A42F9D181
S315000025300599049B023105913849023304931832F8
S315000025409942BAD143465A8A198BD203B2FBF1F2A9
S315000025505A839A8AD203B2FBF1F29A83DB8A424605
S31500002560DB03B3FBF1F3D38302231370B7E544F225
S3150000257034255B46C2F2000529881F7E7818C0B252
S31500002580022800D943E1002323715B464E00A3666F
S3150000259073185B00984644F23823C2F200039C4647
S315000025A0C4446346636244F22423C2F200039C4699
S315000025B043466344A36244F23023C2F200039C46BE
S315000025C0BBB22381009344F22023C2F20003664487
S315000025D09C466144E16581B25420E662298021521D
S315000025E0FFF7EBFB0120E071FFF719FC64220020E6
S315000025F0A05451E4FFFFFFDFFF7FFFFFFFFFFEFF59
S31500002600FFFFFDFFFFFFFBFFFFFFF7FFFFFFF3FFEE
S31500002610FFFFFFCFFFFFBFFF904100207441002066
S31500002620C02273689205134373608023B26A1B0548
S315000026301343B362009B803B9BB2B38506E73B43E3
S315000026409BB213807EE6A0280CD9BF2E0AD9454638
S315000026502B439BB2138075E69D1C2F017F1BFF0148
S31500002660BFB23DE755462B439BB213806AE63368FB
S31500002670834A134091E644F2900643F2141144F261
S3150000268044200423C2F20006C0F20001C2F2000098
S315000026903360FEF7B7FC01210A2000F061FA00233F
S315000026A043F2141144F24420C0F60143C0F2000183
S315000026B0C2F200003360FEF7B1FC44F24420C2F2DD
S315000026C00000FEF771FBEFF31081012383F31088FE
S315000026D046F6FC730820C4F204039A6882439A60A3
S315000026E09B6881F3108806AE3100A36E43F6EF783F
S315000026F05F6A7B681A6821CB21C162495388894683
S315000027000B4042F600010B4342F22001C4F20801DD
S31500002710916041460B405C4938680B435380012366
S31500002720D381236A31005360BB681B6898470290C7
S3150000273078BBBB683868DB689847029048BB3100B5
S31500002740A36E9F6A7A68136821CA21C149465A88CE
S3150000275038680A4041F208010A43216B99604146F4
S3150000276011400A0049490A435A800122DA8142F29D
S315000027702402C4F208025A60626A31009A60BB6899
S315000027801B689847029020B9BB683868DB68984791
S31500002790029042F20001C4F208010B683C4A134061
S315000027A020220B600B6813430B604EF2000344F2C9
S315000027B02432C4F20103186A0723C2F20002050E8E
S315000027C012681D40AA40000A0340DA4048F63F203E
S315000027D044F24023C0F2F710C0F20F03B2FBF3F34A
S315000027E082421BD80A682B48013B0240DBB20A60D2
S315000027F0CB7053E440F6000233681343336033680A
S31500002800254A13403360CEE50E230293E8E4032302
S315000028100293E5E433681A4A1340EFE71A00213AB7
S315000028201F2A0FD91A00413A3F2A1DD80A681948AB
S315000028309B08024042F20000013B0243DBB20A6001
S31500002840CB702BE40A6813485B08024041F2000093
S31500002850013B0243DBB20A60CB70FFF71FFC614607
S31500002860002340F600773BE643F200000A68DB08E7
S31500002870013B0243DBB20A60CB70FFF70FFCC04698
S31500002880FFF7FFFF13C3FFFF0080FFFF1080FFFF6E
S31500002890FFFBFFFFFFCFFFFFFFFFFDFFEFF303830C
S315000028A046F20002103B5BB2C033C4F200029B004A
S315000028B099580248014099507047C046FFFFFEFFF5
S315000028C0EFF3038346F20002103B5BB2C033C4F25F
S315000028D000029B0099580248014099507047C04633
S315000028E0FFFFFEFF70B5836F82B004006D46002BBC
S315000028F052D02A00190041C941C2180000220270B4
S3150000290042F200022021C4F20802567F314204D06E
S3150000291001260670567F8E43567742F200013F2607
S31500002920C4F208010A7FB24392B10A7F52B2002A6A
S3150000293026DB42F20002C4F20802127F52061AD4C3
S3150000294042F200022026C4F20802117F31431177B9
S315000029500322297822717232A154E26F4260226FFB
S315000029600AB19047A36F0BB106CD06C3002363815E
S31500002970A38102B070BD042102780A430270DFE72A
S31500002980022102780A43027042F20002C4F20802EF
S31500002990127F5206D4D5EEE72800AFE710B5EFF365
S315000029A0038344F29C22103B5BB2C2F200029B00FE
S315000029B09858EFF3038346F20002103B5BB2C03334
S315000029C0C4F200029B009958064C21409950428956
S315000029D083899A4203D074230122C25410BDFFF7A3
S315000029E081FFFBE7FFFFFEFF4EF20003262244F2C3
S315000029F0A001C4F20103985C1B6A8000C2F20001C8
S31500002A0041585B015B0F44F22432D940C2F2000206
S31500002A10116070474EF2000340F2FE324B49C4F299
S31500002A20010370B599524CF20002002043F6C871BA
S31500002A30C4F27E02505444F2A00446F60042C2F2AA
S31500002A400004C0F2DC22226041F20022C0F27A02C7
S31500002A50626048F2000242F20041A2602261262230
S31500002A60C0F2F401E160995C1A6A8900615852016A
S31500002A70520F44F22435D14040F21342C2F200050F
S31500002A80296098540921A222995440F28042995C07
S31500002A90002953D04EF20003002240F28141C4F2D5
S31500002AA001035A5401395A54A0329A5CCAB13622EB
S31500002AB09A5C1AB93C215A5CD207FCD54EF2000248
S31500002AC0A021C4F20102535CDB06D80F002BFADB0F
S31500002AD050544EF20002A021C4F20102535CDB0600
S31500002AE0FCD44EF2000200213623C4F20102D15476
S31500002AF03C31535CDB07FCD501213123D1544FF621
S31500002B00C473C4F27E03197000202623D05401300A
S31500002B10FF301062D05C136A800020585B015B0FA7
S31500002B20D84040F2FE3328600948D0524CF20003E8
S31500002B3043F6C872C4F27E03995470BD013140F267
S31500002B40C440995400F00CF8A4E7C04603A5FFFF63
S31500002B5000A5FFFF7047C04601380028FCD170472A
S31500002B6044F224324CF600234143C2F2000270B50F
S31500002B701468C3F69A330D00B3FBF4F4080040F270
S31500002B80E8320023002100F0BFF931B9B0FBF4F0C0
S31500002B90800808B1FFF7E0FF70BDA000B5FBF0F0BC
S31500002BA040F2E8320023002100F0AEF90029F0D00F
S31500002BB001204042FFF7D0FFEEE7C046F8B546F2E7
S31500002BC0000340F2401244F2582500240127C4F2C3
S31500002BD000039E5AC2F20005B6B23300E340E0B2EB
S31500002BE01F4202D02B6803B1984701340435102CDC
S31500002BF0F3D146F2000340F23012C4F200039E52B3
S31500002C00F8BDC04646F200000023C4F2000043F2BD
S31500002C104C02C0F200029A1811781A00C0329200D3
S31500002C2001331150202BF2D17047C04670B5EFF337
S31500002C301081012383F3108844F21C334000C2F252
S31500002C4000031A5A1AB11A5A013A92B21A521B5A68
S31500002C5083B94EF2000240F2FE3543F21C14C4F270
S31500002C600102565B054BC0F20004205A33438343EE
S31500002C709BB2535381F3108870BDC04600A5FFFF79
S31500002C8070B5EFF31081012383F3108844F21C32F0
S31500002C904000C2F20002135A83B94EF2000443F216
S31500002CA01C1540F2FE36C4F20104C0F20005A35B17
S31500002CB02D5A2B434AF200552B43A353135A013383
S31500002CC09BB2135281F3108870BDC04600BE704798
S31500002CD010B500F003F8FDF75BFCFEE740F20003D9
S31500002CE04EF6005270B5CEF20002C0F2000382B07A
S31500002CF093600020FDF730FCFFF78CFE6B46002644
S31500002D00DC1D267001202378FFF7BAFFEFF3108150
S31500002D10012585F3108846F6FC73C4F204039A680D
S31500002D203D4802409A609A6881F3108840F6000197
S31500002D30C4F204010A68D207D20F22700A68D207C9
S31500002D40D20F22700A68D207D20F2270EFF31081D9
S31500002D5085F3108880229868520502439A609B6822
S31500002D6081F310880120FFF761FF0120FDF7F4FBD6
S31500002D7040F60053294AC4F200039E801A8044F2AA
S31500002D804842C2F200029A6044F64802C2F20002C9
S31500002D90DA6046F2000240F2201141F20000C4F26D
S31500002DA00002505244F2484244F2B800C2F2000215
S31500002DB0C2F200009D800021121A00F0DCF844F2F5
S31500002DC0800044F2A00243F2C411C2F20000C2F233
S31500002DD00002121AC0F2000100F0C4F844F298058D
S31500002DE044F29C03C2F20005C2F200035B1B9E1074
S31500002DF0002B05DD002408CD01349847A642FADCF5
S31500002E00FFF7F2FD0220FDF7A7FBFFF7FBFE002010
S31500002E10FFF7A0FE02B070BDFFFFFFEF00A5FFFFAA
S31500002E2044F238430122C2F200031A7044F2B0336E
S31500002E300278C2F200031A707047C04643F2B41318
S31500002E40F0B5C0F200031D685B6883B01900280066
S31500002E500193FDF7A3FBE8BB44F2384444F2404635
S31500002E6028000027C2F20004C2F20006FDF784FC27
S31500002E7078BB2378002BFCD044F24041002300228B
S31500002E802800C2F200012770FDF71AFDB8B93368B1
S31500002E907268012B2BD0022B1DD044F2D4000022E5
S31500002EA040F20311C2F20000FDF7B0FF44F2D40075
S31500002EB0002240F20411C2F20000FDF7A7FF142021
S31500002EC040F2E831FFF74CFE2800FDF755FC0028DC
S31500002ED0CFD0FEE7FEE7002ADFD144F2D40040F26D
S31500002EE004110132C2F20000FDF790FFE7E7002A65
S31500002EF0D3D144F2D40040F203110132C2F20000F1
S31500002F00FDF784FFDBE7C046F0B54FF6FF75CE460A
S31500002F10474699462B0015400E0029000340140C25
S31500002F2080B50700000C59434543634360435B1972
S31500002F300C0CE4188C46A54203D980235B02984604
S31500002F404044230C61461B1820044FF6FF740C40C6
S31500002F50494679437243C91800198918C0BCB94655
S31500002F60B046F0BD002310B59A4200D110BDCC5C2E
S31500002F70C4540133F8E703008218934200D1704726
S31500002F8019700133F9E7FFFF4275696C74207769A0
S31500002F9074682052656E6573617320416476616E54
S31500002FA063656420466C657869626C6520536F665C
S31500002FB07477617265205061636B61676520766521
S31500002FC07273696F6E20332E372E3000332E372EF4
S31500002FD03000000000000703F8B5C046F8BC08BC86
S31500002FE09E467047F8B5C046F8BC08BC9E4670477A
S31500002FF0D44000201430000094300000DC40002053
S3150000300008300000CC300000804000201030000066
S3150000301001FFFFFF060000001C3000000400000056
S315000030200301000000000100080100000000010C7F
S31500003030090100000000010C0A0100000000010C5B
S315000030400C01000000000100000300000009070752
S31500003050000000000000000000000000000000006A
S315000030600000000000000000000000009D050000B8
S3150000307079070000C1080000410D0000910700001B
S3150000308095070000690D0000A50700003108000043
S31500003090B908000005100000A90D00001D10000071
S315000030A029100000710E0000C10E0000BD0E0000C8
S315000030B0B10D00000D0E0000350E0000590E000087
S315000030C09D0E0000D50D0000ED0D00003112000030
S315000030D011130000C91000007111000091110000C9
S315000030E0691100006D110000B1110000FD11000012
S315000030F07D1D000081140000BD1900004916000066
S3150000310039160000B5130000ED1600009D170000EB
S31500003110A9160000010000009040002001000200F6
S315000031200800100000000000010100000C00000073
S3150000313000000000000000006431000002000400EE
S3150000314001000000212E0000FC2F0000FC2F0000D3
S315000031500000000001020300000000000000000063
S31500003160003C00280000EB00070F0000DA00070F04
S315000031702843002024310000F03000000000FFFF4B
S31500003180CC0C0100FFFFCC0C7C31000000000000DD
S315000031900000000000000000020000030300FF0022
S315000031A00000000070310000000000000000000078
S315000031B000000000B8430020883100006C30000099
S309000031C00000000005
S315000031C400001018000000000000000000000000CD
S315000031D4000000000C0100002D05000001050000A0
S31501010018FFFFFFFFFFFFFFFFFFFFFFFFFFFFFFFFE0
S31101010028FFFFFFFFFFFFFFFFFFFFFFFFD0
S70500002CD1FD
