:020000040800F2
:10000000A0F9001045030008513101080D1701083F
:100010004D31010811FA0008795301080000000071
:10002000000000000000000000000000570300086E
:1000300081FC0008000000005B030008894E0108F5
:100040005F0300085F0300085F0300085F03000808
:100050005F0300085F0300085F0300085F030008F8
:100060005F0300085F03000829FD00085F03000824
:100070005F0300085F0300085F0300085F030008D8
:100080005F0300085F0300085F0300085F030008C8
:100090005F0300085F0300085F030008B1FE00086B
:1000A0005F0300085F0300085F0300085F030008A8
:1000B0005F0300085F0300085F0300085F03000898
:1000C0005F0300085F0300085F0300085F03000888
:1000D0005F0300085F0300085F0300085F03000878
:1000E00085FC00085F0300085F0300085F03000849
:1000F0005F0300085F0300085F0300085F03000858
:100100005F0300085F0300085F0300085F03000847
:100110005F0300085F030008995001085F030008AF
:100120005F0300085F0300085F0300085F03000827
:100130005F0300085F0300085F0300085F03000817
:100140005F0300085F0300085F0300085F03000807
:100150005F0300085F0300085F0300085F030008F7
:100160005F0300085F0300085F0300085F030008E7
:100170005F0300085F0300085F0300080000000041
:100180005F0300085F0300085F0300085F030008C7
:100190005F0300085F0300085F0300080000000021
:1001A0005F0300085F0300085F03000800F002F827
:1001B00000F0B9F814A696E8000CB244B344DA454E
:1001C00001D100F0B0F8BAE80F000FA696E83000B1
:1001D000A5EB040504EB0607AAEB0704A7F101074A
:1001E0004FEA15154FEA3414A4F10104AC4201D3CF
:1001F00000F099F813F0010F18BFFB1A43F0010348
:1002000000F001F8DBE71847443E0200843E02009C
:100210000A444FF0000C10F8013B13F0070408BF2C
:1002200010F8014B1D1108BF10F8015B641E05D0CA
:1002300010F8016B641E01F8016BF9D113F0080F7F
:100240001EBF10F8014BAD1C0C1B09D16D1E58BF11
:1002500001F801CBFAD505E014F8016B01F8016B48
:100260006D1EF9D59142D6D370470000103A24BFD5
:1002700078C878C1FAD8520724BF30C830C144BF0B
:1002800004680C60704700007047000000230024E1
:1002900000250026103A28BF78C1FBD8520728BF96
:1002A00030C148BF0B6070476E2900F095817029FE
:1002B00000F0628266291FF0F084692900F0508105
:1002C000642900F04D81752900F04A816F2900F002
:1002D000F581782900F043820368DB0928BF41F0EB
:1002E0008001632900F0AD86732900F0B286E3290E
:1002F00000F0BD86F32900F0C286002070471FB5CC
:100300001FF0B9FC00F0ECFE0400002000211EF0FC
:10031000C1FE401C6060002000211EF0A5FEE060D0
:100320001FBD10B510BD00F0DBFF1146FFF7E7FF62
:1003300017F048FF00F0F9FF03B4FFF7F2FF03BC2A
:1003400001F03CF80948804709480047FEE7FEE70E
:10035000FEE7FEE7FEE7FEE7FEE7FEE7FEE7FEE775
:1003600004480549054A064B704700008D4E0108B8
:10037000AD010008A8F50A20A0F90010A8F90A208C
:10038000A0F5001053EA020C00F069802DE9F04B53
:100390004FF00006002B1FBFB3FA83F503FA05F4F4
:1003A00024FA05F65E4012BF1643B2FA82F502FA4D
:1003B00005F4C5F120051EBF22FA05FC44EA0C0431
:1003C000203556EA044C4FEA144418BF641C4FF021
:1003D00000084FF00009904271EB030C39D300295B
:1003E00019BFB1FA81F701FA07F6B0FA80F700FAFF
:1003F00007F6C7F120071EBF20FA07FC46EA0C06E5
:100400002037B6FBF4FCA7EB0507103F07F01F0BE6
:10041000CBF120062CFA06F60CFA0BFB44BFB346D0
:100420000026202FA4BF5E464FF0000B5BEA060CAF
:1004300008BF4FF0010B19EB0B0948EB0608ABFBAB
:10044000027C06FB02CC0BFB03CCC01B71EB0C0146
:10045000C1E70B46024641464846BDE8F08B13B55E
:10046000084318BF4FF0FF300146AFF30080BDE8EE
:100470001C4070470FB41CB5074B06AA7B44694665
:100480000090059800F0BBFD0020694600F0CAFD11
:100490001CBC5DF814FB0000A50B000070B5044601
:1004A00085690068C10601D5302600E02026C00716
:1004B00007D070BDD4E9012130469047206A401C26
:1004C00020626D1EF6D570BD70B504468569007852
:1004D000C00707D170BDD4E9012120209047206AD0
:1004E000401C20626D1EF6D570BD09684A0501D515
:1004F00040B27047C905FCD500B2704709684A058B
:1005000001D5C0B27047C905FCD580B2704770B53F
:100510000C460546012A05D02878800600D5EA69F0
:10052000002302E0012305E05B1C934202D2E05C61
:100530000028F9D1A869E618C01AA861286A1844E9
:1005400028622846FFF7AAFF04E0D5E9012114F844
:10055000010B9047B442F8D32846FFF7B5FF70BDB2
:100560002DE9F0410646002410687529314616A58C
:1005700010D0FFF7BAFF002802DA404213A507E0C7
:1005800031688A0701D512A502E0490704D511A5F3
:10059000012401E0FFF7B2FF00210A2206F124073F
:1005A00009E0B0FBF2FCB0FBF2F302FB1C003030C0
:1005B00078541846491C0028F3D123462A46304671
:1005C000BDE8F04100F0AEBA000000002D000000D0
:1005D0002B0000002000000011680268006A53052B
:1005E00001D508700AE0D30501D5088006E013069E
:1005F00003D5C217C1E9000200E00860012070477E
:100600002DE9FF5F15468A460446DFF8AC80F844C2
:100610000027D8E900103E46CDE9001010E03AF876
:1006200016106A4602A800F02EFD411C07D0217862
:10063000890603D5E269391891420DD80744761C22
:100640002078800602D5E069B84205DDAE42E6DBDF
:100650003AF816000028E2D1A069C01BA06120462C
:10066000FFF71CFFD8E90010CDE90010002017E0CB
:100670003AF818106A4602A800F005FDB0F1FF3FF5
:1006800081460BD000250DF1080B05E0D4E90121CE
:100690001BF8050090476D1C4D45F7D308F101008C
:1006A000B0428046E4DB206A384420622046FFF7EF
:1006B0000BFFBDE8FF9F00008EF6010070B50446F9
:1006C00021461068FFF71AFF002104F1240505E018
:1006D00000F007023032C0086A54491C0028F7D1E4
:1006E0002068002308A2050708D500F02000084371
:1006F00004D0E069012305A2401EE0612046BDE868
:10070000704000F00FBA0000000000003000000050
:10071000F0B40D460188090502D51B4C7C4402E06B
:10072000194C7C440E34002100F1240305E002F052
:100730000F061209A65D5E54491C002AF7D1027803
:100740000023120704D5702D06D009B102231134FD
:100750002246F0BC00F0E6B901231034F8E770B58A
:1007600004460D4621461068FFF7C8FE024629469A
:100770002046BDE87040CBE70368126843F02003D1
:1007800003600823C361C3E788F501002DE9F05F2A
:10079000894604464FF0000ADFF874B1FB44C0F804
:1007A00020A02046E1688847002874D0252806D07C
:1007B000D4E901219047206A401C2062F1E700261D
:1007C0005F462046E16888472028054607DB312D33
:1007D00005D2781910F8200C08B10643F1E7B007EC
:1007E00001D526F00406C4F81CA00027C4F818A000
:1007F0002A2D09D028461EF023FC38B304EB8708C5
:10080000303DC8F8185019E059F8041B204604EB95
:1008100087029161E1688847012F054618D1E06998
:10082000002820DA26F020061DE0D8F8180000EB9A
:10083000800005EB40003038C8F818002046E16819
:10084000884705461EF0FCFB0028EED1012F0AD098
:100850002E2D08D12046E16888477F1C0546022FCF
:1008600046F02006C4DBA069002803DA404246F0C7
:100870000106A061F00701D026F010066C2D0BD008
:10088000682D09D04C2D39D06A2D35D0742D35D036
:100890007A2D33D016E038E0E1682F4620468847AD
:1008A000B842054609D16C2F26D04FF48060E1682C
:1008B000064320468847054604E06C2F1AD04FF4C3
:1008C000807006430DB3A5F14100192802D82035E8
:1008D00046F400664A462946204626604E46FFF703
:1008E000E3FC80B101280BD0F61D26F0070000F1D3
:1008F000080956E74020E4E78020D8E70020D6E743
:1009000006F104094DE7284652E7206ABDE8F09F4A
:1009100030F50100032A40F2308010F0030C00F0A3
:10092000158011F8013BBCF1020F624498BF11F829
:1009300001CB00F8013B38BF11F8013BA2F10402E2
:1009400098BF00F801CB38BF00F8013B11F003035A
:1009500000F02580083AC0F0088051F8043B083ABE
:1009600051F804CBA0E80810F5E7121D5CBF51F860
:10097000043B40F8043BAFF30080D20724BF11F8DA
:10098000013B11F801CB48BF11F8012B24BF00F83F
:10099000013B00F801CB48BF00F8012B704710B5B0
:1009A000203AC0F00B80B1E81850A0E81850B1E828
:1009B0001850A0E81850203ABFF4F5AF5FEA027C67
:1009C00024BFB1E81850A0E8185044BF18C918C097
:1009D000BDE810405FEA827C24BF51F8043B40F838
:1009E000043B08BF7047D20728BF31F8023B48BF1D
:1009F00011F8012B28BF20F8023B48BF00F8012B5B
:100A00007047431A28BF9A427FF6C9AF1044114479
:100A100010F0030F1EBF11F8013D521E00F8013DFA
:100A200010F0030F7FF4F6AF103AC0F00A8010B553
:100A300031E9185020E91850103ABFF4F9AFBDE879
:100A40001040530724BF31E9081020E9081044BFC3
:100A500051F8043D40F8043D12F0030F08BF704701
:100A6000D20728BF31F8023D48BF11F8012C28BF3A
:100A700020F8023D48BF00F8012C704702F0FF0348
:100A800043EA032242EA024200F024B84FF0000297
:100A90000429C0F0128010F0030C00F01B80CCF190
:100AA000040CBCF1020F18BF00F8012BA8BF20F8FE
:100AB000022BA1EB0C0100F00DB85FEAC17C24BF52
:100AC00000F8012B00F8012B48BF00F8012B7047FC
:100AD0004FF0000200B5134694469646203922BFD7
:100AE000A0E80C50A0E80C50B1F12001BFF4F7AF22
:100AF000090728BFA0E80C5048BF0CC05DF804EB04
:100B0000890028BF40F8042B08BF704748BF20F871
:100B1000022B11F0804F18BF00F8012B704770476F
:100B2000704770472DE9F0470D46994692460446B6
:100B300000F124080168880604D5E06921F010015D
:100B4000216000E00120A84201DD471B00E00027F2
:100B5000A1697A1902EB0900081AA0612078C00681
:100B600002D42046FFF79AFC002608E0D4E90121D0
:100B70001AF806009047206A401C761C20624E45F9
:100B8000F4DB2078C0060AD52046FFF787FC06E094
:100B9000D4E9012130209047206A401C2062381E91
:100BA000A7F10107F4DC07E0D4E9012118F80500FA
:100BB0009047206A401C2062281EA5F10105F3DC45
:100BC0002046FFF781FC2078000602D50220BDE810
:100BD000F0870120FBE72DE9FF4F0C461E464FF042
:100BE000FF378BB0D2E90001DDF860800A908A46B9
:100BF000C1F30A5505B93D46002108464FF00000F3
:100C0000BAF1000F00F4400005DA00EB80004FF469
:100C1000400101EA50004FEA9059B9F1010F00DD9F
:100C2000B9460A9850EA4A000ED044F61050A5F290
:100C3000FF3545432F14B8F1000F1ED07542291E11
:100C40001EDDC9F100021CE0B8F1010F4FF00000F9
:100C500001D0302103E0F24305E02154401CB042B2
:100C6000FBDB30460022002121540B99C1F808809B
:100C7000C1E900200FB0BDE8F08FBD1B6D1CDEE7A1
:100C80004A4600DA694206A800F0B4FA06AB93E8D7
:100C9000070003AB83E8070050460A991DF0ECFB00
:100CA0008DE80700A0F500501F3800900398002D34
:100CB0000ADD42F21F014A460844002303A90390BB
:100CC00068461DF055FE09E0A0F500504A461F3861
:100CD000002303A9039068461DF05FFE8DE807001E
:100CE0000004000C03D04FF0FF30410800E0104634
:100CF000B8F1000F03D00022009215461EE0751EC9
:100D000005D400F0F1F9303262556D1EF9D5B346C5
:100D10000122084302D000227F1C04E02078302802
:100D200001D100227F1E002A099784D01DE0112DD9
:100D300007DA00F0D9F9303262556D1C50EA010231
:100D4000F5D1084302D00098C8B10EE00021681E1A
:100D500005E0235C625C63542254401E491C8142BE
:100D6000F7DBAB46A81B401E0990002004F80B00DF
:100D70000B98099AC0F80880C0E9002B7AE7112681
:100D80004FF0000857E72DE9F04F88460446D21D82
:100D900022F0070191B0D1E90001CDE90A011DF06F
:100DA00033FF02460B98C00F01D02D2007E02068CA
:100DB000810701D52B2002E0202101EAC000032A8F
:100DC000099001D0072A05DB03464146204600F082
:100DD000D1F90BE12078800601D5E06900E006201A
:100DE000B8F1650F814606D0B8F1660F18D0B8F19A
:100DF000670F70D131E00020B9F1110F009001DBD5
:100E0000112301E009F101030AAA01A90CA8FFF7C7
:100E1000E2FEDDE90C70002609F10105834647E09A
:100E200001204B4600904FF000470AAA01A90CA8E8
:100E3000FFF7D1FEDDE90DB00C995D46002610B933
:100E400009F101000D18B9EB050003D4C0F1FF361C
:100E500009F10105A5EB09002BE0B9F1010F01DA59
:100E60004FF001090020B9F1110F0090484601DD53
:100E7000112300E003460AAA01A90CA8FFF7ABFE64
:100E8000DDE90C704D4600268346207800070AD421
:100E9000AB4500DA5D4601A8012D04DD411911F8CA
:100EA000011C302907D04F4502DA17F1040F04DA8C
:100EB000012082460FE06D1EEEE7002F02DCED1BE5
:100EC0003E4403E0781CA84200DD7D1CB81B00F105
:100ED000010A4FF000472078000703D4AA4501DB40
:100EE0004FF0FF3A0021B7F1004F0DF143088DF8A4
:100EF000431024D002202B23002F01DA7F422D2320
:100F00000A21021EA0F1010000DC5FB197FBF1FC99
:100F100097FBF1F201FB1C7C17460CF1300C08F832
:100F200001CDEEE7A8F1010003702188090501D584
:100F3000452100E06521A0F1010800F8011C099895
:100F40000FA9A1EB0807FF1D00B10120411901EB1A
:100F5000EA70A1693844081A401EA0612078C006D2
:100F600002D42046FFF79AFA099828B1D4E9012162
:100F70009047206A401C20622078C00622D5204677
:100F8000FFF78CFA1EE0002E04DBB34502DD01A85A
:100F9000805D00E03020D4E901219047206A401CA8
:100FA0002062761CAAF101005FEA000A0AD100F073
:100FB00097F8C0680168405CD4E901219047206A35
:100FC000401C2062281EA5F10105DCDC07E0D4E905
:100FD000012118F8010B9047206A401C2062381E3E
:100FE000A7F10107F3DC2046FFF76EFA032011B0EA
:100FF00041E6000001694A1C02610878704700B5AB
:101000008FB0CDE901310021059105497944CDE941
:10101000031011466846FFF7B9FB0FB000BD000092
:10102000E5FFFFFF0A6802F8010B0A60704710B580
:10103000436913B1AFF3008001E0FFF768FA0120C4
:1010400010BD127800F124010A7000224A700122BA
:10105000EDE711684FF0FF32E9E710B5436913B1CE
:10106000AFF3008001E0FFF7CBFA012010BD12883A
:1010700000F1240182840022C2840122EDE711687C
:101080004FF0FF32E9E72DE9F04116460C460546E0
:1010900000F01EF8036893F80101012807D0FF2C27
:1010A00012D8185D80B101202C70BDE8F081D3F812
:1010B00007013246214603F20713C7182846BC46EB
:1010C000BDE8F041002360474FF0FF30EDE700003E
:1010D00010B500F005F8001D10BD00BFB9DF01001C
:1010E00000487047F806001030B5B0F10A0271F1FF
:1010F00000034FEA900E4EEA817EB0EB0E0061EBEA
:1011000091014FEA101E4EEA017E10EB0E0041EBFA
:1011100011114FEA102E4EEA016E10EB0E0041EB5A
:1011200011214FEA104E4EEA014E10EB0E0041EB3A
:101130001141401841F100014FEAD00040EA4170EE
:101140004FEAD1014FEA810444EA907410EB800524
:1011500044EB01046D1944EB0404521BA3414FF00E
:10116000000348BF0A3200D530BD401C41F10001E8
:1011700030BD00002DE9F0411F46044603260168FA
:10118000072A01F4006004DB08B116A505E016A5E6
:1011900003E008B115A500E015A521F010002060BE
:1011A000A069C01EA0610FB1401EA0612046FFF7DC
:1011B00075F94FB1D4E9012138469047206A401CA7
:1011C0002062C01C206206E0206AFAE7D4E901210F
:1011D00015F8010B9047761EF8D22046FFF774F9F8
:1011E000BDE8F0814E414E006E616E00494E4600F2
:1011F000696E66002DE9F047814616468AB035488B
:1012000078440DC88DE80D0032487844801C03AC4A
:101210000DC884E80D0041F69B300844372190FB4F
:10122000F1F290FBF1F5A5F1800501FB12041B3CE6
:1012300002D56442012000E00020DFF898A080463B
:101240000027FA44AAF1BE0A0EE0E0070AD03246AF
:10125000684607EB470101230AEB81011DF09DFB66
:101260008DE8070064107F1C002CEED1194F7F44DD
:10127000AE3F19E0E80715D007EB04100DF1180A8E
:1012800090E80E008AE80E00C068F04201D198197B
:1012900008903246012306A903A81DF07EFB03AB8C
:1012A00083E807006D10641C002DE3D14FF00103AB
:1012B00032466946B8F1000F03A802D01DF058FB72
:1012C00001E01DF06AFBC9E90001C9F808200AB075
:1012D000BDE8F087F8EB010000487047D806001021
:1012E0007546FFF7F9FFAE4605006946534620F004
:1012F0000700854618B020B5FFF732F8BDE820405A
:101300004FF000064FF000074FF000084FF0000BC1
:10131000AC46ACE8C009ACE8C009ACE8C009ACE830
:10132000C00921F007018D46704710B50446AFF3A0
:1013300000802046BDE81040FEF7FEBF0000000020
:1013400030B44FF0013C50F8042B51F8043BCCFA78
:1013500052F4D51A20D1FCB950F8042B51F8043BB3
:10136000CCFA52F4D51A17D1B4B950F8042B51F86D
:10137000043BCCFA52F4D51A0ED16CB950F8042BB8
:1013800051F8043BCCFA52F4D51A05D1002CDAD02E
:1013900030BC4FF00000704729BAB1FA81F111F06A
:1013A0001801D1F120008440F2D1CA40CB4012F0A4
:1013B000FF0213F0FF0330BCD01A70470149182018
:1013C000ABBEFEE726000200704700002DE9F04F9B
:1013D00084B00D9C8E46792B04D14FF00C0C182153
:1013E0000DE000BFA12B07D0F12B40F015814FF08D
:1013F000180C482103E000BF4FF0100C202103918E
:10140000203A002CD1B2029100F02B8140F28824C6
:1014100001EB4102C0F6020404EBC20940F6186277
:10142000C0F60202002602EB411100277546019129
:10143000792B40F0D58009EB060292F900201FFAC3
:1014400080FBB2F1FF3F0ADC40F29C360BEB8B04D1
:10145000C2F20006A9B206EB441401266654691CC8
:101460001FFA81FA4FEA9A111A2900F26D83AAEB4A
:101470000E01614500F0A6805FFA82F85FEA4861DC
:101480000AD540F29C320BEB8B01C2F2000202EB58
:101490004111012201F80A20A91C8AB291091A29D6
:1014A00000F25283A2EB0E01614500F08B805FEAEF
:1014B000886109D540F29C340BEB8B01C2F2000429
:1014C00004EB411101248C54E91C8AB291091A29B8
:1014D00000F23A83A2EB0E01614573D05FEAC86166
:1014E00009D540F29C340BEB8B01C2F2000404EBF3
:1014F000411101248C54291D8AB291091A2900F244
:101500002383A2EB0E0161455CD05FEA087109D527
:1015100040F29C340BEB8B01C2F2000404EB41114E
:1015200001248C54691D8AB291091A2900F20C8396
:10153000A2EB0E01614545D05FEA487109D540F242
:101540009C340BEB8B01C2F2000404EB411101242B
:101550008C54A91D8AB291091A2900F2F582A2EBD6
:101560000E0161452ED05FEA887109D540F29C34A6
:101570000BEB8B01C2F2000404EB411101248C54EB
:10158000E91D8AB291091A2900F2DE82A2EB0E014E
:10159000614517D05FEAC87109D040F29C340BEB6B
:1015A0008B01C2F2000404EB411101248C54083574
:1015B000AAB291091A2900F2C782A2EB0E01614575
:1015C00007D100BF013081B249094A29754600F2AE
:1015D000BB8201370399FEB2B1423FF629AFB3E2B5
:1015E000F12B05D0A12B40F0AF82019909E000BF9B
:1015F000029942F2F42201EBC101C0F6020202EBB1
:10160000C1018A1992F900201FFA80FBB2F1FF3F55
:101610003FF725AF18E700BFDF0801265D0718BFB9
:1016200006EBD3075E08302B06FB07F708D12D2AFF
:1016300000F0DC803F2A14BF303A0B22D7E000BF15
:10164000642BA2F1200240F2D280FFB2002F00F002
:101650007B8279009C460391002CD1B202917FF4E9
:10166000D5AE40F2882501EB4104C0F6020505EB3A
:10167000C404019440F6186440F29C3AC0F6020497
:101680000022C2F2000A04EB41110027F14600914A
:10169000792B01D1019910E0A12B0DD0F12B40F055
:1016A0005382029901EBC10442F2F421C0F6020117
:1016B00001EBC404224401E000990A44147882B288
:1016C00009F1010196001FFA81F816FA80F64FEA37
:1016D00098111FFA89F50AEB46161A294FEAD41118
:1016E000715500F23182A8EB0E01614570D002EB1A
:1016F00082010AEB411209F102011FFA81FB4FEA54
:101700009B111A29C4F3801102F8081000F21C8200
:10171000ABEB0E0161455BD009F10305ADB2AE093B
:10172000C4F340111A2E02F80B1000F20D82A5EB43
:101730000E0161454CD009F104061FFA86F84FEA04
:101740009816C4F300111A2E515500F2FD81A8EB32
:101750000E0161453CD009F10505ADB2AE09C4F3F7
:10176000C0011A2E02F8081000F2EE81A5EB0E015E
:1017700061452DD009F106061FFA86F84FEA981642
:10178000C4F380011A2E515500F2DE81A8EB0E0140
:1017900061451DD009F10705ADB2AE09C4F34001A2
:1017A0001A2E02F8081000F2CF81A5EB0E01614558
:1017B0000ED009F1080904F001011FFA89F4A60905
:1017C0001A2E515500F2C081A4EB0E01614506D1DD
:1017D000013081B249094A29F14600F2B581013749
:1017E0000399FAB291423FF653AFADE10A223E06A9
:1017F00000F0AA81D6B25FFA87FB002C06EBC60187
:1018000000F0F0804FF6146440F6280506EB46021F
:10181000C0F6010440F29C39C0F60205039104EBC6
:1018200082020024C2F2000905EB0611F44602917F
:10183000182B00F0C580102B04D00C2B164603D0BB
:1018400082E100BF02990E1996F900701FFA80F824
:10185000B7F1FF3F07DC08EB88011FFA8CF609EBB4
:10186000411101258D550CF101018EB2B1091A29E2
:1018700000F26A81A6EB0E01994200F091805FFAB6
:1018800087FA49465FEA4A69894605D508EB880721
:1018900009EB47170121B9550CF10206B6B2B70999
:1018A0001A2F00F25181A6EB0E079F4278D05FEA13
:1018B0008A6705D508EB880709EB47170121B95559
:1018C0000CF10306B6B2B7091A2F00F23D81A6EB60
:1018D0000E079F4264D05FEACA6705D508EB880708
:1018E00009EB47170121B9550CF10406B6B2B70947
:1018F0001A2F00F22981A6EB0E079F4250D05FEA13
:101900000A7705D508EB880709EB47170121B95578
:101910000CF10506B6B2B7091A2F00F21581A6EB35
:101920000E079F423CD05FEA4A7705D508EB88074F
:1019300009EB47170121B9550CF10606B6B2B709F4
:101940001A2F00F20181A6EB0E079F4228D05FEA12
:101950008A7705D508EB880709EB47170121B955A8
:101960000CF10706B6B2B7091A2F00F2ED80A6EB0C
:101970000E079F4214D05FEACA7705D008EB8807AC
:1019800009EB47170121B9550CF1080C1FFA8CF629
:10199000B7091A2F00F2D880A6EB0E069E4206D198
:1019A000013081B249094A29F44600F2CD80013460
:1019B000BBF1010B02F101027FF43AAFC4E000BFBA
:1019C00041F29851039DC0F6020101EB85062644C1
:1019D00096F900701FFA80F8B7F1FF3F3FF743AF69
:1019E00039E700BF41F29852C0F6020202EB810CC7
:1019F00040F62802C0F602024FF0000A02EB061180
:101A0000F1460396029100BF0C2B09D0102B03D096
:101A1000182B62460ED097E0029901EB0A0209E00A
:101A2000039901EB41024FF61461C0F6010101EB8D
:101A30008202524492F8008082B2950040F29C31BA
:101A400015FA80F5C2F2000101EB451609F1010516
:101A5000ADB2AC091FFA89F71A2C4FEAD814F45525
:101A600072D8A5EB0E049C4260D002EB820201EB1F
:101A7000421109F1020292B294091A2CC8F380149F
:101A80004C5561D8A2EB0E049C424FD009F10305DE
:101A9000ADB2AE09C8F340141A2E8C5454D8A5EB3D
:101AA0000E029A4242D009F1040292B29609C8F39A
:101AB00000141A2E4C5547D8A2EB0E049C4235D088
:101AC00009F10505ADB2AE09C8F3C0041A2E8C5455
:101AD0003AD8A5EB0E029A4228D009F1060292B23A
:101AE0009609C8F380041A2E4C552DD8A2EB0E048B
:101AF0009C421BD009F10705ADB2AE09C8F3400402
:101B00001A2E8C5420D8A5EB0E029A420ED009F161
:101B100008091FFA89F2960908F001041A2E4C559B
:101B200012D8A2EB0E029A4206D100BF013082B257
:101B300052094A2AF14607D80AF1010ABBF1010B02
:101B40000CF1010C7FF460AF04B0BDE8F08F000031
:101B50002DE9F04F83B00C9E0C460E99792E019022
:101B60000AD0F12E06D0A12E19BF304602961020C1
:101B7000029003E0182000E00C2002900D78A5F1FF
:101B80002000C0B25E2831D8DDF804A0652E02EB3B
:101B90000A0003EB04024FF0000338BF0123029F49
:101BA0001FFA80F827FA03FB4F1C1FFA82F900BFC7
:101BB0001FFA8AF00299404528BF0C44A1B249455A
:101BC00014D240450198EAB20D9D28BF5FFA80FA11
:101BD0001FFA8AF033460095FFF7F8FB17F8015B10
:101BE000DA44A5F12000C0B25F28E1D303B0BDE81C
:101BF000F08F0000000000002DE9F04F81B02DEDC6
:101C0000028B8CB040F25071C1F2000103200870C9
:101C100040F25170C1F200004FF0010B80F800B0AB
:101C200040F20000C2F2000080F801B001207F21E4
:101C300010F04EF9422000900020002140F21F32A7
:101C400040F2DF134FF0000910F0B0F943F6627074
:101C500040F2747AC0F60200F1245021C1F2000A69
:101C60004FF02008CDE90014039001200221022248
:101C70004FF4F073AAF80080CDF808B011F08CF999
:101C8000282501201A2140F21E321B23009510F056
:101C90008DF943F68870C0F602004FF44876039041
:101CA00001200E2140F2BB124FF4F073CDE9006425
:101CB000CDF808B011F070F90B204FF4DC71402220
:101CC00040F2D513009510F071F943F68B70C0F611
:101CD000020003900120602140F2BB124FF4F07328
:101CE000CDE90064CDF808B011F056F95D204FF44D
:101CF000DC71922240F2D513009510F057F943F6AB
:101D00007A70C0F6020003900120B22140F2BB12AB
:101D10004FF4F073CDE90064CDF808B011F03CF950
:101D2000AF204FF4DC71E42240F2D513009510F09F
:101D30003DF943F68E70C0F60200039001204FF487
:101D4000827140F2BB124FF4F073CDE90064CDF81C
:101D500008B011F021F940F201104FF4DC714FF49A
:101D60009B7240F2D513009510F020F9D020AAF80C
:101D7000000043F69770C0F6020010240390012083
:101D800002211C224FF4F073CDE90064CDF808B0B5
:101D900011F002F943F66870C0F6020003900120CA
:101DA0004FF4C8711C224FF4F073CDE90064CDF8F4
:101DB00008B011F0F1F801204FF4D77140F21E3253
:101DC00040F2AF13009510F0F1F843F69670C0F6AC
:101DD00002000390012002215C224FF4F073CDE950
:101DE0000064CDF808B011F0D7F843F66B70C0F678
:101DF0000200039001204FF4C8715C224FF4F0738D
:101E0000CDE90064CDF808B011F0C6F843F695703E
:101E1000C0F602000390012002219C224FF4F073CF
:101E2000CDE90064CDF808B011F0B6F843F66E7055
:101E3000C0F60200039001204FF4C8719C224FF4B9
:101E4000F073CDE90064CDF808B011F0A5F843F6C1
:101E50009D70C0F60200039001200221DC224FF4A5
:101E6000F073CDE90064CDF808B011F095F843F6B1
:101E70007170C0F60200039001204FF4C871DC229B
:101E80004FF4F073CDE90064CDF808B011F084F898
:101E900043F69970C0F602000390012002214FF42E
:101EA0008E724FF4F073CDE90064CDF808B011F0F4
:101EB00073F843F67470C0F60200039001204FF4EB
:101EC000C8714FF48E724FF4F073CDE90064CDF811
:101ED00008B011F061F843F69170C0F6020003906B
:101EE000012002214FF4AE724FF4F073CDE900648B
:101EF000CDF808B011F050F843F67775C0F602053A
:101F000001204FF4C8714FF4AE724FF4F073CDE975
:101F10000064CDF808B0039511F03EF814202D218F
:101F200015224B23CDF8008010F040F814206D21CD
:101F300015228B23CDF8008010F038F81420AD2145
:101F40001522CB23CDF8008010F030F81420ED21BD
:101F5000152240F20B13CDF8008010F027F8142062
:101F600040F22D11152240F24B13CDF8008010F0F5
:101F70001DF8142040F26D11152240F28B13CDF89C
:101F8000008010F013F840F6B01040F634189FEDC2
:101F9000048BC1F20000C1F20008C0F808903AE1D9
:101FA00062803D702606D8BFC8F84810B8F84C00CB
:101FB00040F2000409F1010100F13C0609F10202BE
:101FC00007F13C03C2F20004D02588B292B29BB262
:101FD000B1B2257000950FF089FFD8F81C00B8F851
:101FE0005010C8F84C00B8F808007C31421C831C23
:101FF000B8F82000277800F17C0690B289B29AB236
:10200000B3B200970FF072FFD8F82000B8F8541060
:10201000C8F85000B8F80800BC31421C831CB8F85E
:102020002400277800F1BC0690B289B29AB2B3B20C
:1020300000970FF05BFFD8F82400B8F85810C8F8E4
:102040005400B8F80800FC31421C831CB8F8280082
:10205000277800F1FC0690B289B29AB2B3B2009729
:102060000FF044FFD8F82800B8F85C10C8F8580002
:10207000B8F8080001F59E71421C831CB8F82C00CA
:10208000277800F59E7690B289B29AB2B3B20097E3
:102090000FF02CFFD8F82C00B8F86010C8F85C00DE
:1020A000B8F8080001F5BE71421C831CB8F8300076
:1020B000277800F5BE7690B289B29AB2B3B2009793
:1020C0000FF014FFD8F83000B8F86410C8F86000BA
:1020D000B8F808003C3100F28F1200F5C873B8F868
:1020E0003400277800F13C0690B289B29AB2B3B2BC
:1020F00000970FF0FBFED8F83400B8F86810C8F865
:102100006400B8F808007C3100F28F1200F5C87343
:10211000B8F83800277800F17C0690B289B29AB2FC
:10212000B3B200970FF0E2FED8F83800B8F86C10A0
:10213000C8F86800B8F80800BC3100F28F1200F54A
:10214000C873B8F83C00277800F1BC0690B289B299
:102150009AB2B3B200970FF0C9FED8F83C00B8F8B5
:102160007010C8F86C00B8F80800FC3100F28F124B
:1021700000F5C873B8F84000277800F1FC0690B26B
:1021800089B29AB2B3B200970FF0B0FED8F840000F
:10219000B8F87410C8F87000B8F8080001F59E711E
:1021A00000F28F1200F5C873B8F84400277800F5E4
:1021B0009E7690B289B29AB2B3B200970FF096FEB3
:1021C000D8F84400B8F80C10C8F87400B8F8080043
:1021D00001F5BE7100F28F1200F5C873B8F848001F
:1021E000277800F5BE7690B289B29AB2B3B2009762
:1021F0000FF07CFE40F6B012C1F200029168D8F8F0
:10220000480001F10109B1F5C57FC8F80C00C2F81A
:10221000089000F3718141F21840C2F2080050F8B2
:102220002900C8F808901DF08BFC55EC186B32465D
:102230002B461DF08DFA1DF0CDF9074643F25830BC
:10224000C2F2080050F82900C8F81C701DF078FC94
:1022500032462B461DF07CFA1DF0BCF9014644F2D3
:102260004460C1F2000050F829000B91C8F820101A
:102270001DF066FC32462B461DF06AFA1DF0AAF9E5
:1022800001464FF2D840C2F2070050F829000A91E7
:10229000C8F824101DF054FC32462B461DF058FAA5
:1022A0001DF098F9014642F20470C1F2000050F8A6
:1022B00029000991C8F828101DF042FC32462B462F
:1022C0001DF046FA1DF086F901464DF29850C2F213
:1022D000070050F829000891C8F82C101DF030FCB8
:1022E00032462B461DF034FA1DF074F9014646F2D1
:1022F0001470C1F2000050F829000791C8F830109E
:102300001DF01EFC32462B461DF022FA1DF062F92C
:10231000014645F29820C2F2080050F829000691C3
:10232000C8F834101DF00CFC32462B461DF010FA94
:102330001DF050F9014648F25460C1F2000050F817
:1023400029000591C8F838101DF0FAFB32462B46DB
:102350001DF0FEF91DF03EF9824647F2D810C2F298
:10236000080050F82900C8F83CA01DF0E9FB3246EF
:102370002B461DF0EDF91DF02DF983464AF29450DD
:10238000C1F2000050F82900C8F840B01DF0D8FB99
:1023900032462B461DF0DCF91DF01CF9044649F2CB
:1023A0001810C2F2080050F82900C8F844401DF087
:1023B000C7FB32462B461DF0CBF91DF00BF917F188
:1023C0001F0FC8F8480009DA4FF6A0630B99DDE942
:1023D00007566FF01F07CFF6FF730BE04FF6A063B1
:1023E0000B99DDE90756B7F5B87FCFF6FF7303DB2E
:1023F0004FF4B877C8F81C7011F15F0F02DA6FF074
:102400005F0104E0B1F5987F03DB4FF49871C8F8E1
:1024100020100A9911F19F0F02DA6FF09F0102E07C
:10242000F02902DBF021C8F82410099911F1DF0F1F
:1024300002DA6FF0DF0102E0B02902DBB021C8F858
:10244000281003F1400116F5907F0A4602DD702E38
:1024500002DB7022C8F82C2015F5B07F1A4602DD89
:10246000302D02DB3022C8F83020069A12F11F0FFF
:1024700002DA6FF01F0204E0B2F5B87F03DB4FF41D
:10248000B872C8F83420059A12F15F0F02DA6FF0C3
:102490005F0204E0B2F5987F03DB4FF49872C8F84E
:1024A00038201AF19F0F03DA6FF09F0204E000BF9B
:1024B000BAF1F00F02DBF022C8F83C201BF1DF0F6D
:1024C00002DA6FF0DF0203E0BBF1B00F02DBB022F3
:1024D000C8F8402014F5907F02DD702C02DB7021DB
:1024E000C8F8441010F5B07F19467FF75DAD30286D
:1024F000FFF65CAD302157E540F2DC04C2F2000487
:102500002068012818DB4EF624160025C2F20A06C0
:10251000492700BF56F82500B0F5C67F0CDA013018
:1025200080B21C21024640F2AD1300970FF0DEFC92
:10253000206801358542EDDB41F200044CF6480687
:102540004FF2A07540F25077C4F20204C1F20006C7
:10255000C2F201054FF00008C1F2000702E000BF1F
:1025600085F8008040F20000C2F2000040780128A7
:1025700036D10A2014F0F2FB20464FF4806114F0AB
:10258000C9FEC8B120464FF4006114F0C3FE88B103
:1025900020464FF4805114F0BDFE58B120464FF450
:1025A000005114F0B7FE28B1307839788842D7D07E
:1025B00007E000BF032000E0012030703978884236
:1025C000CED029780131CAB2FA2A2970CAD30021A3
:1025D00029700CB0BDEC028B01B0BDE8F08F00BFDC
:1025E000142814BF47F6191003200CB0BDEC028B61
:1025F00001B0BDE8F08F00002DE9F04F81B02DED66
:10260000028B90B082460FF6E4310020524610F063
:10261000F5FF40F25071C1F200010320087040F252
:102620005170C1F20000012540F2000B0570C2F2AA
:10263000000B01207F218BF801A00FF049FC4227FD
:102640000020002140F21F3240F2DF1300970FF00C
:10265000ADFC40F27479C1F200092020A9F8000015
:1026600043F66270C0F60200F1275021CDE9001751
:1026700003900120022102224FF4F073029510F022
:102680008BFC282401201A2140F21E321B230094C7
:102690000FF08CFC43F68870C0F602004FF44878C7
:1026A000039001200E2140F2BB124FF4F073CDE9EC
:1026B0000087029510F070FC0B204FF4DC71402273
:1026C00040F2D51300940FF071FC43F68B70C0F606
:1026D000020003900120602140F2BB124FF4F0731E
:1026E000CDE90087029510F057FC5D204FF4DC71B6
:1026F000922240F2D51300940FF058FC43F67A7002
:10270000C0F6020003900120B22140F2BB124FF448
:10271000F073CDE90087029510F03EFCAF204FF436
:10272000DC71E42240F2D51300940FF03FFC01204D
:102730004FF4D77140F21E3240F2AF1300940FF005
:1027400035FC43F68E70C0F60200039001204FF472
:10275000827140F2BB124FF4F073CDE9008702950D
:1027600010F01AFC40F201104FF4DC714FF49B7230
:1027700040F2D51300940FF019FC9BF8010040F6CD
:10278000B0160628C1F2000640F0D8800FF6682087
:10279000A121CDE900810390012002211C224FF4E8
:1027A000F073029510F0F8FB40F2D800C2F200007E
:1027B000026840F2AC00C2F20000036806F10C04AB
:1027C0000FF63C212046FDF755FE1027012002217F
:1027D0002C224FF4F073CDE900870295039410F09A
:1027E000DBFB40F2B800C2F2000002680FF62821BD
:1027F0002046FDF73FFE012002214C224FF4F073EA
:10280000CDE900870295039410F0C6FB40F2BC00AE
:10281000C2F20000026840F2C400C2F20000036885
:102820000FF600212046FDF725FE012002215C2243
:102830004FF4F073CDE900870295039410F0ACFBE0
:1028400040F2C000C2F20000026843F6D971C0F63F
:1028500002012046FDF70EFE012002216C224FF4FA
:10286000F073CDE900870295039410F095FB40F2D8
:10287000B000C2F20000026840F2B400C2F20000F0
:1028800003680FF6B4112046FDF7F4FD0120022184
:102890008C224FF4F073CDE900870295039410F079
:1028A0007BFB40F2D000C2F2000090ED000A40F243
:1028B000CC00C2F2000090ED001A31EE000A10EEDA
:1028C000100A1DF03DF902460B460FF68011204616
:1028D000FDF7D0FD01200221AC224FF4F073CDE9C9
:1028E00000870295039410F057FB40F2C800C2F233
:1028F000000090ED000A40F2D400C2F2000090ED1A
:10290000001A31EE000A10EE100A1DF019F9024605
:102910000B460FF648112046FDF7ACFD01200221C1
:10292000BC224FF4F073CDE900870295039410F0B8
:1029300033FB40F25077C1F20007EFE3D020A9F853
:10294000000043F69770C0F60200102703900120A4
:1029500002211C224FF4F073CDE90087029510F09C
:102960001BFB43F66870C0F60200039001204FF491
:10297000C8711C224FF4F073CDE90087029510F066
:102980000BFB43F69670C0F6020003900120022173
:102990005C224FF4F073CDE90087029510F0FCFA49
:1029A00043F66B70C0F60200039001204FF4C8712B
:1029B0005C224FF4F073CDE90087029510F0ECFA39
:1029C00043F69570C0F602000390012002219C227C
:1029D0004FF4F073CDE90087029510F0DDFA43F66D
:1029E0006E70C0F60200039001204FF4C8719C2263
:1029F0004FF4F073CDE90087029510F0CDFA43F65D
:102A00009D70C0F60200039001200221DC224FF4E9
:102A1000F073CDE90087029510F0BEFA43F67170AD
:102A2000C0F60200039001204FF4C871DC224FF47D
:102A3000F073CDE90087029510F0AEFA43F6997075
:102A4000C0F602000390012002214FF48E724FF471
:102A5000F073CDE90087029510F09EFA43F674708A
:102A6000C0F60200039001204FF4C8714FF48E723B
:102A70004FF4F073CDE90087029510F08DFA43F61C
:102A80009170C0F602000390012002214FF4AE7253
:102A90004FF4F073CDE90087029510F07DFA43F60C
:102AA0007774C0F6020401204FF4C8714FF4AE727F
:102AB0004FF4F073CDE900870295039410F06CFA9F
:102AC00014202D2115224B23202400940FF06EFAA0
:102AD00014206D2115228B2300940FF067FA142027
:102AE000AD211522CB2300940FF060FA1420ED21C4
:102AF000152240F20B1300940FF058FA142040F204
:102B00002D11152240F24B1300940FF04FFA1420B0
:102B100040F26D11152240F28B1300940FF046FA2B
:102B20004FF4C6700AFB00F105914FF67461CFF6C1
:102B3000FF711AFB001040F634189FED058B0790CB
:102B40000020C1F200080022CDF818A0B06034E1E6
:102B500062803D702606D8BFC8F84810B8F84C000F
:102B600040F20004511C00F13C07023205F13C0325
:102B7000C2F20004D02688B292B29BB2B9B22670DB
:102B800000960FF0B3F9D8F81C00B8F85010C8F848
:102B90004C00B8F808007C31421C831CB8F82000B7
:102BA000277800F17C0690B289B29AB2B3B200974E
:102BB0000FF09CF9D8F82000B8F85410C8F850006D
:102BC000B8F80800BC31421C831CB8F824002778F0
:102BD00000F1BC0690B289B29AB2B3B200970FF07E
:102BE00085F9D8F82400B8F85810C8F85400B8F897
:102BF0000800FC31421C831CB8F82800277800F13B
:102C0000FC0690B289B29AB2B3B200970FF06EF997
:102C1000D8F82800B8F85C10C8F85800B8F80800D0
:102C200001F59E71421C831CB8F82C00277800F532
:102C30009E7690B289B29AB2B3B200970FF056F96D
:102C4000D8F82C00B8F86010C8F85C00B8F8080094
:102C500001F5BE71421C831CB8F83000277800F5DE
:102C6000BE7690B289B29AB2B3B200970FF03EF935
:102C7000D8F83000B8F86410C8F86000B8F8080058
:102C80003C3100F28F1200F5C873B8F83400277891
:102C900000F13C0690B289B29AB2B3B200970FF03D
:102CA00025F9D8F83400B8F86810C8F86400B8F806
:102CB00008007C3100F28F1200F5C873B8F83800B4
:102CC000277800F17C0690B289B29AB2B3B200972D
:102CD0000FF00CF9D8F83800B8F86C10C8F8680094
:102CE000B8F80800BC3100F28F1200F5C873B8F8CC
:102CF0003C00277800F1BC0690B289B29AB2B3B218
:102D000000970FF0F3F8D8F83C00B8F87010C8F846
:102D10006C00B8F80800FC3100F28F1200F5C8739F
:102D2000B8F84000277800F1FC0690B289B29AB258
:102D3000B3B200970FF0DAF8D8F84000B8F8741082
:102D4000C8F87000B8F8080001F59E7100F28F1203
:102D500000F5C873B8F84400277800F59E7690B265
:102D600089B29AB2B3B200970FF0C0F8D8F8440015
:102D7000B8F80C10C8F87400B8F8080001F5BE7176
:102D800000F28F1200F5C873B8F84800277800F5F4
:102D9000BE7690B289B29AB2B3B200970FF0A6F89D
:102DA000D9F80810D8F848004A1CB1F5C57FC8F812
:102DB0000C00C9F8082000F37F8107980F9200EB00
:102DC000020941F21840C2F2080050F82900C8F880
:102DD00008201CF0B5FE56EC187B3A4633461CF032
:102DE000B7FC1CF0F7FB054643F25830C2F208006E
:102DF00050F82900C8F81C501CF0A2FE3A46334691
:102E00001CF0A6FC1CF0E6FB014644F24460C1F253
:102E1000000050F829000E91C8F820101CF090FE18
:102E20003A4633461CF094FC1CF0D4FB01464FF2AA
:102E3000D840C2F2070050F829000D91C8F82410BC
:102E40001CF07EFE3A4633461CF082FC1CF0C2FBAE
:102E5000014642F20470C1F2000050F829000C91C2
:102E6000C8F828101CF06CFE3A4633461CF070FC83
:102E70001CF0B0FB01464DF29850C2F2070050F82A
:102E800029000B91C8F82C101CF05AFE3A46334624
:102E90001CF05EFC1CF09EFB014646F21470C1F271
:102EA000000050F829000A91C8F830101CF048FEC4
:102EB0003A4633461CF04CFC1CF08CFB014645F2B4
:102EC0009820C2F2080050F829000991C8F834107F
:102ED0001CF036FE3A4633461CF03AFC1CF07AFBF6
:102EE000014648F25460C1F2000050F829000891F0
:102EF000C8F838101CF024FE3A4633461CF028FC73
:102F00001CF068FB834647F2D810C2F2080050F864
:102F10002900C8F83CB01CF013FE3A4633461CF0BA
:102F200017FC1CF057FB04464AF29450C1F2000013
:102F300050F82900C8F840401CF002FE3A463346DB
:102F40001CF006FC1CF046FB824649F21810C2F247
:102F5000080050F82900C8F844A01CF0F1FD3A46DA
:102F600033461CF0F5FB1CF035FB15F11F0FC8F8BC
:102F7000480009DA4FF6A0630E99DDE90A676FF0A1
:102F80001F05CFF6FF730BE04FF6A0630E99DDE946
:102F90000A67B5F5B87FCFF6FF7303DB4FF4B8755A
:102FA000C8F81C5011F15F0F02DA6FF05F0104E006
:102FB000B1F5987F03DB4FF49871C8F820100D9994
:102FC00011F19F0F02DA6FF09F0102E0F02902DB9E
:102FD000F021C8F824100C9911F1DF0F02DA6FF01C
:102FE000DF0102E0B02902DBB021C8F8281003F1AC
:102FF000400117F5907F0A4602DD702F02DB702238
:10300000C8F82C2016F5B07F1A4602DD302E02DB00
:103010003022C8F83020099A12F11F0F02DA6FF03F
:103020001F0204E0B2F5B87F03DB4FF4B872C8F8B2
:103030003420089A12F15F0F02DA6FF05F0204E0A9
:10304000B2F5987F03DB4FF49872C8F838201BF173
:103050009F0F07DA40F6B0196FF09F02C1F2000926
:1030600008E000BF40F6B019BBF1F00FC1F2000953
:1030700002DBF022C8F83C2014F1DF0F02DA6FF017
:10308000DF0202E0B02C02DBB022C8F840200F9A29
:103090001AF5907F03DDBAF1700F02DB7021C8F8DA
:1030A000441010F5B07F19467FF756AD3028FFF673
:1030B00055AD302150E500BF40F2DC09C2F20009F5
:1030C000D9F80000DDF818A040F25077059C0128DF
:1030D000C1F2000722DB4EF624160025C2F20A06D2
:1030E0004FF0490803E000BF0135854216DA56F873
:1030F0002510A14212DA079A9142F5DD081B00F271
:103100008D1080B21C21024640F2AD13CDF8008034
:103110000EF0ECFED9F80000E6E700BF40F2000038
:10312000C2F200004078142806D1032010B0BDEC94
:10313000028B01B0BDE8F08F41F200044CF6480666
:103140004FF2A075C4F20204C1F20006C2F20105FA
:103150004FF0000809E000BF85F8008040F2000051
:10316000C2F2000040781428DFD0504536D10A2042
:1031700013F0F4FD20464FF4806114F0CBF8C8B191
:1031800020464FF4006114F0C5F888B120464FF492
:10319000805114F0BFF858B120464FF4005114F09C
:1031A000B9F828B1307839788842D5D007E000BF27
:1031B000032000E00120307039788842CCD0297893
:1031C0000131CAB2FA2A2970C8D30021297010B07F
:1031D000BDEC028B01B0BDE8F08F00BF47F61910BF
:1031E00010B0BDEC028B01B0BDE8F08F7061676577
:1031F0003D25640D0A00000022232436370000001C
:1032000048523A2025642062706D2852523A256453
:10321000206D732900000000503A202564206D7352
:10322000000000005152533A202564206D7320287D
:10323000256420646567290051542F5154633A2056
:1032400025642F2564206D73000000005256352B35
:103250005356313A202566206D5600005256312BC8
:103260005356353A202566206D56000000000000B8
:103270002DE9F04F81B02DED0E8B98B041F2000595
:103280000FF678210020C4F20205002410F0B6F9F0
:1032900040F2507140F6341BC1F200010320C1F22C
:1032A000000B08709BF8011040F25170C1F2000051
:1032B000002904708BF800408BF80240CBE90144F0
:1032C0006ED105F5806420464021002214F01CF8E0
:1032D00020462021002214F017F80A2013F03EFDAA
:1032E000112010F0BFFC4FF4967013F037FD202032
:1032F000002113F0DBFA02460FF61421002010F033
:103300007DF9642013F04CFD4120862113F0CEFAA4
:10331000642013F045FD4220352113F0C7FA6420E4
:1033200013F03EFD4320CC2113F0C0FA642013F0CB
:1033300037FD5820092113F0B9FA642013F030FD4D
:103340005920D82113F0B2FA642013F029FD4D2042
:10335000FF2113F0ABFA642013F022FD4E20FF2171
:1033600013F0A4FA642013F01BFD4520002113F094
:103370009DFA642013F014FD102010F073FC6420FB
:1033800013F00EFD082010F06DFC204620210122D4
:10339000012413F0B9FFC82013F0E0FC8BF80140C2
:1033A0000FF67411002010F029F901207F2101246B
:1033B0000EF08EFD4FF042080020002140F21F3237
:1033C00040F2DF13CDF800800EF0F0FD40F274778C
:1033D000C1F20007202038800FF650104FF0180976
:1033E0005021CDE9001903900120022102224FF45F
:1033F000F07302940FF0D0FD0FF63410F1264FF465
:103400004875039001201A2102224FF4F073CDE990
:10341000005602940FF0C0FD4FF0280A01201A2137
:1034200040F21E321B23CDF800A00EF0BFFD0FF6B8
:103430000810039001200E2140F2BB124FF4F073EC
:10344000CDE9005602940FF0A7FD0B204FF4DC717C
:10345000402240F2D513CDF800A00EF0A7FD0FF6E4
:10346000DC0003900120602140F2BB124FF4F073A6
:10347000CDE9005602940FF08FFD5D204FF4DC7112
:10348000922240F2D513CDF800A00EF08FFD0FF67A
:10349000B00003900120B22140F2BB124FF4F07350
:1034A000CDE9005902940FF077FD0FF698000390D4
:1034B0000120CA2140F2BB124FF4F073CDE900564F
:1034C00002940FF069FDAF204FF4DC71E42240F26A
:1034D000D513CDF800A00EF069FDA7F8008043F6E3
:1034E0009777C0F602071026012002211C224FF414
:1034F000F073CDE90056029403970FF04DFD43F6AB
:103500006877C0F6020701204FF4C8711C224FF4FF
:10351000F073CDE90056029403970FF03DFD0120B2
:103520004FF4D77140F21E3240F2AF13CDF800A035
:103530000EF03CFD43F69677C0F60207012002210B
:103540005C224FF4F073CDE90056029403970FF01C
:1035500023FD43F66B77C0F6020701204FF4C871D4
:103560005C224FF4F073CDE90056029403970FF0FC
:1035700013FD43F69577C0F60207012002219C2235
:103580004FF4F073CDE90056029403970FF004FD59
:1035900043F66E77C0F6020701204FF4C8719C22F3
:1035A0004FF4F073CDE90056029403970FF0F4FC4A
:1035B00043F69D77C0F6020701200221DC224FF47A
:1035C000F073CDE90056029403970FF0E5FC43F643
:1035D0007177C0F6020701204FF4C871DC224FF466
:1035E000F073CDE90056029403970FF0D5FC43F633
:1035F0009977C0F60207012002214FF48E724FF432
:10360000F073CDE90056029403970FF0C5FC43F622
:103610007477C0F6020701204FF4C8714FF48E7220
:103620004FF4F073CDE90056029403970FF0B4FC09
:1036300043F69177C0F60207012002214FF4AE72E3
:103640004FF4F073CDE90056029403970FF0A4FCF9
:1036500043F67777C0F6020701204FF4C8714FF4A4
:10366000AE724FF4F073CDE90056029403970FF059
:1036700093FC11F081FF052013F070FB11F07CFF2B
:10368000052013F06BFB11F077FF052013F066FBAC
:1036900011F072FF052013F061FB11F06DFF0520A2
:1036A00013F05CFB40F23C20C2F2000000681CF00A
:1036B00047FA9FEDA70B56EC105B2A4633461CF0E9
:1036C00047F81BF087FF8146CBF81C0040F2302002
:1036D000C2F2000000681CF033FA2A4633461CF0A0
:1036E00037F81BF077FF1790CBF8200040F2382016
:1036F000C2F2000000681CF023FA2A4633461CF090
:1037000027F81BF067FF1390CBF8240040F240200D
:10371000C2F2000000681CF013FA2A4633461CF07F
:1037200017F81BF057FF1690CBF8280040F2442002
:10373000C2F2000000681CF003FA2A4633461CF06F
:1037400007F81BF047FF1590CBF82C0040F24820FB
:10375000C2F2000000681CF0F3F92A4633461BF061
:10376000F7FF1BF037FF1290CBF8300040F25020EB
:10377000C2F2000000681CF0E3F92A4633461BF051
:10378000E7FF1BF027FF0446CBF8340040F2582037
:10379000C2F2000000681CF0D3F92A4633461BF041
:1037A000D7FF1BF017FF0746CBF8380040F2602028
:1037B000C2F2000000681CF0C3F92A4633461BF031
:1037C000C7FF1BF007FF1190CBF83C0040F26820C8
:1037D000C2F2000000681CF0B3F92A4633461BF021
:1037E000B7FF1BF0F7FE8046CBF8400040F2702098
:1037F000C2F2000000681CF0A3F92A4633461BF011
:10380000A7FF1BF0E7FE1090CBF8440040F2CC700D
:10381000C1F2000000681CF093F92A4633460F9568
:103820000E961BF095FF1BF0D5FE19F11F0F4946B0
:10383000CDF85090CBF848000CDA6FF01F0141F240
:103840000009179E139DDDE915321491C4F2020997
:103850000FE000BF149941F20009179E139DDDE9A6
:103860001532B1F5B87FC4F2020905DB4FF4B87127
:1038700014911499CBF81C1016F15F0F02DA6FF057
:103880005F0604E0B6F5987F03DB4FF49876CBF83B
:10389000206015F19F0F03DA6FF09F0503E000BF72
:1038A000F02D02DBF025CBF8245012F1DF0F03DA04
:1038B0006FF0DF0203E000BFB02A02DBB022CBF8DA
:1038C00028204FF6A06ACFF6FF7A0AF1400113F5DF
:1038D000907F1692179102DD702B03DB70210B464F
:1038E000CBF82C10129915933B46274611F5B07F63
:1038F000544602DD302903DB30242146CBF830402A
:1039000017F11F0F04DA1F46119B6FF01F0407E029
:103910003C46B7F5B87F1F46119B03DB4FF4B874E4
:10392000CBF8344017F15F0F02DA6FF05F0704E065
:10393000B7F5987F03DB4FF49877CBF8387013F125
:103940009F0F09DA6FF09F0309E000BF00BF00BFBF
:103950007AE04C0CB0073EC0F02B02DBF023CBF832
:103960003C3018F1DF0F03DA6FF0DF0805E000BF2D
:10397000B8F1B00F03DB4FF0B008CBF84080C6467B
:10398000DDF840808C46179918F5907F03DDB8F17B
:10399000700F03DB70218846CBF8441010F5B07F20
:1039A00003DD302804DB4FF0300A5046CBF848A046
:1039B000DBF808109FEDE48AB1F5C67FA4BF0021B3
:1039C000CBF808101499CBF80C00CBE91316169914
:1039D00040F6B010CBF85450CBF858101599CBE9FD
:1039E0001947C1F200004CF648054FF2A07740F2AB
:1039F00050740C300026C1F20005C2F20107C1F27A
:103A00000004CBE9171CCBE91B3ECBF87480109067
:103A100001E000BF3E709BF8000028B1052013F0C4
:103A20009DF900F0E1BD00BF11F0A6FD40F2302687
:103A3000C2F2000630681CF083F840F23828C2F267
:103A400000080446D8F800000D461CF079F840F252
:103A50005029C2F2000941EC190BD9F800001CF002
:103A60006FF840F2582AC2F2000A41EC1A0BDAF859
:103A700000001CF065F841EC1B0B40F26020C2F224
:103A8000000000681CF05CF841EC1C0B40F2682060
:103A9000C2F2000000681CF053F841EC1D0B40F22C
:103AA0007020C2F2000000681CF04AF841EC1E0BC6
:103AB00040F2CC70C1F2000000681CF041F8109F89
:103AC00041EC100B3846A1A122462B468DEC0C9BF5
:103AD0008DED0C0BFCF7CEFC384613F0B5F840F238
:103AE0003C20C2F2000000681CF02AF80F9C0E9FD8
:103AF00022463B461BF02CFE1BF06CFD0546CBF826
:103B00001C0030681CF01CF822463B461BF020FECF
:103B10001BF060FD1690CBF82000D8F800001CF0D8
:103B20000FF822463B461BF013FE1BF053FD159089
:103B3000CBF8240040F24020C2F2000000681BF0E5
:103B4000FFFF22463B461BF003FE1BF043FD149093
:103B5000CBF8280040F24420C2F2000000681BF0BD
:103B6000EFFF22463B461BF0F3FD1BF033FD1390A5
:103B7000CBF82C0040F24820C2F2000000681BF095
:103B8000DFFF22463B461BF0E3FD1BF023FD1290B6
:103B9000CBF83000D9F800001BF0D2FF22463B469C
:103BA0001BF0D6FD1BF016FD1190CBF83400DAF8AF
:103BB00000001BF0C5FF22463B461BF0C9FD1BF071
:103BC00009FD0646CBF8380040F26020C2F2000042
:103BD00000681BF0B5FF22463B461BF0B9FD1BF009
:103BE000F9FC8146CBF83C0040F26820C2F20000AC
:103BF00000681BF0A5FF22463B461BF0A9FD1BF009
:103C0000E9FC8246CBF8400040F27020C2F200008E
:103C100000681BF095FF22463B461BF099FD1BF008
:103C2000D9FC8046CBF8440040F2CC70C1F20000D1
:103C300000681BF085FF22463B461BF089FD1BF008
:103C4000C9FC15F11F0FCBF8480009DA4FF6A06246
:103C50001699139B6FF01F05CFF6FF720BE000BFA4
:103C60004FF6A0621699139BB5F5B87FCFF6FF7299
:103C700003DB4FF4B875CBF81C5011F15F0F03DA7A
:103C80006FF05F0105E000BFB1F5987F03DB4FF4F3
:103C90009871CBF82010159911F19F0F02DA6FF08F
:103CA0009F0102E0F02902DBF021CBF824101499E7
:103CB00011F1DF0F02DA6FF0DF0102E0B02902DB61
:103CC000B021CBF82810179913F5907F02DD702BE7
:103CD00002DB7021CBF82C10129B114613F5B07F3C
:103CE00002DD302B02DB3021CBF83010119911F1BD
:103CF0001F0F47DA6FF01F0149E000BF31326C65DA
:103D00006164205461736B2073746172740D0A00D6
:103D100069643D25780D0A0031326C656164205478
:103D200061736B20447261770D0A0000313200002C
:103D30002021222324000000343500003637000003
:103D4000313000002B0000000000A0425B24494EEF
:103D500046245D3132545F252E33665F252E33664F
:103D60005F252E33665F252E33665F252E33665F13
:103D7000252E33665F252E33665F252E33665F451D
:103D8000240D0A00B1F5B87F03DB4FF4B871CBF80E
:103D9000341016F15F0F03DA6FF05F0105E000BF2A
:103DA000B6F5987F03DB4FF49871CBF8381019F112
:103DB0009F0F07DA40F6B0146FF09F01C1F20004C4
:103DC000002309E040F6B014B9F1F00FC1F200048D
:103DD0004FF0000302DBF021CBF83C101AF1DF0FAB
:103DE00004DA6FF0DF014FF07F0A05E0BAF1B00F9F
:103DF0004FF07F0A02DBB021CBF84010179918F57D
:103E0000907F03DDB8F1700F02DB7021CBF8441016
:103E100010F5B07F114602DD302802DB3021CBF8EF
:103E20004810DBF80800B0F5C67F1DDBCBF8083082
:103E300002201C21032240F2AD13CDF800A00EF0A9
:103E4000B5F8BBF8080040F2AD1300F5C87100F2F8
:103E5000911288B292B21C21CDF800A00EF0A6F803
:103E6000DBF80800DBF81C509BF802106FF02F0203
:103E700040F20008002908BF4222C2F2000888F878
:103E80000020BBF84C20431C02F13C07821C05F1CA
:103E90003C0600294FF0D00598B292B2B3B2B9B245
:103EA00008BF422500950EF021F8DBF81C00BBF896
:103EB0005010CBF84C00CBF87800BBF808007C31F0
:103EC000421C831CBBF8200098F8007000F17C06AF
:103ED00090B289B29AB2B3B200970EF007F8DBF84D
:103EE0002000BBF85410CBF850002060BBF808004D
:103EF000BC31421C831CBBF8240098F8007000F110
:103F0000BC0690B289B29AB2B3B200970DF0EEFF40
:103F1000DBF82400BBF85810CBF854006060BBF805
:103F20000800FC31421C831CBBF8280098F8007084
:103F300000F1FC0690B289B29AB2B3B200970DF0CC
:103F4000D5FFDBF82800BBF85C10CBF85800BBF8B5
:103F5000080001F59E71421C831CBBF82C0098F8E8
:103F6000007000F59E7690B289B29AB2B3B2009713
:103F70000DF0BCFFDBF82C00BBF86010CBF85C0048
:103F8000BBF8080001F5BE71421C831CBBF8300071
:103F900098F8007000F5BE7690B289B29AB2B3B2CA
:103FA00000970DF0A3FFDBF83000BBF86410CBF8EE
:103FB0006000BBF808003C3100F28F1200F5C873B6
:103FC000BBF8340098F8007000F13C0690B289B25A
:103FD0009AB2B3B200970DF089FFDBF83400BBF85A
:103FE0006810CBF86400BBF808007C3100F28F1237
:103FF00000F5C873BBF8380098F8007000F17C0633
:1040000090B289B29AB2B3B200970DF06FFFDBF8AD
:104010003800BBF86C10CBF86800BBF80800BC3166
:1040200000F28F1200F5C873BBF83C0098F80070DE
:1040300000F1BC0690B289B29AB2B3B200970DF00B
:1040400055FFDBF83C00BBF87010CBF86C00BBF8F8
:104050000800FC3100F28F1200F5C873BBF8400075
:1040600098F8007000F1FC0690B289B29AB2B3B22F
:1040700000970DF03BFFDBF84000BBF87410CBF865
:104080007000BBF8080001F59E7100F28F1200F578
:10409000C873BBF8440098F8007000F59E7690B2A3
:1040A00089B29AB2B3B200970DF020FFDBF844005A
:1040B000BBF80C10CBF87400BBF8080001F5BE711A
:1040C00000F28F1200F5C873BBF8480098F8007032
:1040D00000F5BE7690B289B29AB2B3B200970DF0F5
:1040E00005FFDBF84800BBF80810CBF80C00C81C33
:1040F000043180B28AB21C2140F2AD13CDF800A089
:104100000DF054FFBBF8080040F2AD1300F291111E
:1041100000F5C97288B292B21C21CDF800A00DF052
:1041200045FF40F27470C1F200004FF0420843F6C0
:104130009777A0F800804FF44879102501260120D8
:1041400002211C224FF4F073C0F60207CDF8009054
:104150000195029603970EF01FFF43F66877012042
:104160004FF4C8711C224FF4F073C0F60207CDE97A
:104170000095029603970EF00FFF01204FF4D771C0
:1041800040F21E3240F2AF13282700970DF00EFFC9
:1041900043F69677012002215C224FF4F073C0F6BB
:1041A0000207CDE90095029603970EF0F5FE43F65F
:1041B0006B7701204FF4C8715C224FF4F073C0F6A6
:1041C0000207CDE90095029603970EF0E5FE43F64F
:1041D0009577012002219C224FF4F073C0F602076C
:1041E000CDE90095029603970EF0D6FE43F66E7762
:1041F00001204FF4C8719C224FF4F073C0F60207FF
:10420000CDE90095029603970EF0C6FE43F69D7722
:1042100001200221DC224FF4F073C0F60207CDE941
:104220000095029603970EF0B7FE43F671770120D2
:104230004FF4C871DC224FF4F073C0F60207CDE9E9
:104240000095029603970EF0A7FE43F6997701209A
:1042500002214FF48E724FF4F073C0F60207CDE9DD
:104260000095029603970EF097FE43F674770120AF
:104270004FF4C8714FF48E724FF4F073C0F602071A
:10428000CDE90095029603970EF086FE43F69177EE
:10429000012002214FF4AE724FF4F073C0F6020712
:1042A000CDE90095029603970EF076FE43F67777F8
:1042B00001204FF4C8714FF4AE724FF4F073C0F6A2
:1042C0000207CDE90095029603970EF065FE1420D3
:1042D0002D2115224B23CDF800800DF067FE142010
:1042E0006D2115228B23CDF800800DF05FFE142088
:1042F000AD211522CB23CDF800800DF057FE142000
:10430000ED21152240F20B13CDF800800DF04EFE8A
:10431000142040F22D11152240F24B13CDF80080ED
:104320000DF044FE142040F26D11152240F28B1363
:10433000CDF800800DF03AFEDBF808009BF8021083
:1043400001300029CBF8080000F0CB8040F23C207F
:10435000C2F2000090ED000ADBF8040041F21841BF
:10436000C2F2080140F2302220EE080A01EB80017F
:10437000C2F2000292ED001A81ED000A43F25831B8
:10438000C2F2080140F2382221EE080A01EB800156
:10439000C2F2000292ED001A81ED000A44F244617B
:1043A000C1F2000140F2402221EE080A01EB800137
:1043B000C2F2000292ED001A81ED000A4FF2D841DC
:1043C000C2F2070140F2442221EE080A01EB80010B
:1043D000C2F2000292ED001A81ED000A42F204716D
:1043E000C1F2000140F2482221EE080A01EB8001EF
:1043F000C2F2000292ED001A81ED000A4DF29851CE
:10440000C2F2070140F2502221EE080A01EB8001BE
:10441000C2F2000292ED001A81ED000A46F2147118
:10442000C1F2000140F2582221EE080A01EB80019E
:10443000C2F2000292ED001A81ED000A45F29821C5
:10444000C2F2080140F2602221EE080A01EB80016D
:10445000C2F2000292ED001A81ED000A48F25461A6
:10446000C1F2000140F2682221EE080A01EB80014E
:10447000C2F2000292ED001A81ED000A47F2D81153
:10448000C2F2080140F2702221EE080A01EB80011D
:10449000C2F2000292ED001A81ED000A4AF2945134
:1044A000C1F2000140F2CC7221EE080A01EB80015A
:1044B000C1F2000292ED001A81ED000A49F21811D2
:1044C000C2F2080121EE080A01EB800181ED000A29
:1044D00040F2CE71884200F10100CBF8040080F276
:1044E000B980DBF87800DBE90732411D8B424FF0E1
:1044F0000007A0F105014FF00000A8BF01278B4283
:10450000D8BF01202368384305339A42CBF8140002
:1045100001DA8A4206DC00284FF0010018BF0220B1
:10452000CBF814006368DBF82420053341F200095E
:1045300040F250744FF2A0774CF648059A42C4F20C
:104540000209C1F20004C2F20107C1F200054FF0F6
:10455000000601DA8A4202DC0130CBF81400DBF8F5
:104560001020022802F10501CBF8101038D3C42A1C
:1045700036DB4EF66020B0FBF1F243F658710020B6
:10458000C0F60201CBF81820CBF810600FF036F817
:104590004FF43470012140F21E321923CDF800A0EF
:1045A0000EF04AFD40F20000109EDBF81830C2F217
:1045B000000043F6B571821C3046C0F60201FBF7DD
:1045C00059FF502000901820019001204FF43471C1
:1045D00002224FF4F0730290039600260EF0DCFCEA
:1045E00041F2CC0012F0DCFB48464FF4806112F03F
:1045F00091FEC8B148464FF4006112F08BFE88B1BD
:1046000048464FF4805112F085FE58B148464FF4A9
:10461000005112F07FFE28B12878217888423FF4BB
:10462000F9A907E0032000E00120287021788842E2
:104630003FF4F0A939780131CAB2FA2A3970FFF48F
:10464000EAA90021397018B0BDEC0E8B01B0BDE8AD
:10465000F08F00BF00208BF80200CBF8040015F0AB
:1046600037FF12F0E7FA4CF2D445C1F200052846B4
:1046700015F0E2FD28780BF099F969788046084634
:104680000BF094F9A978814608460BF08FF9297947
:10469000074608460BF08AF96979044608460BF08C
:1046A00085F9A979054608460BF080F9CDE9007433
:1046B000109F43F6A1710646C0F6020138464246F5
:1046C0004B4602950396FBF7D5FE012518260120DF
:1046D00001214FF448727823CDE900650297FDF778
:1046E00037FA43F68270C0F60200029001202821BA
:1046F0004FF44872782300960195FDF729FA43F6A6
:104700007D70C0F602000290012050214FF44872E3
:10471000782300960195FDF71BFA0FF65C60F124F3
:10472000029040F2191001214FF44872782300944E
:104730000195FDF70DFA40F2D800C2F200000268C0
:1047400043F64D71C0F602013846FBF793FE40F286
:10475000491001214FF448727823CDE90065029792
:10476000FDF7F6F940F2AC00C2F20000026843F631
:10477000C371C0F602013846FBF77CFE40F2191007
:1047800021214FF448727823CDE900650297FDF7A7
:10479000DFF940F2C400C2F20000026843F6BA71C9
:1047A000C0F602013846FBF765FE0FF6D0500290C6
:1047B00040F2191041214FF4487278230096019578
:1047C000FDF7C6F90FF6B850029040F23D104121B6
:1047D0004FF44872782300940195FDF7B9F940F23F
:1047E0006D1041214FF448727823CDE9006502979E
:1047F000FDF7AEF940F2BC00C2F20000026843F6D9
:10480000CD71C0F602013846FBF734FE40F21910B4
:1048100061214FF448727823CDE900650297FDF7D6
:1048200097F940F2C000C2F20000026843F6D97165
:10483000C0F602013846FBF71DFE40F21910812137
:104840004FF448727823CDE900650297FDF780F9AF
:1048500040F2B000C2F20000026843F6D871C0F620
:1048600002013846FBF706FE40F2E11001214FF449
:1048700048727823CDE900650297FDF769F940F2A7
:10488000B400C2F20000026843F6E271C0F6020111
:104890003846FBF7EFFD40F2E11021214FF448725A
:1048A0007823CDE900650297FDF752F940F2D00078
:1048B000C2F2000090ED000A40F2CC00C2F200000B
:1048C00090ED001A31EE000A10EE100A1BF038F9D4
:1048D00002460B460FF6AC413846FBF7CBFD40F2E3
:1048E000E11041214FF448727823CDE90065029729
:1048F000FDF72EF940F2C800C2F2000090ED000A68
:1049000040F2D400C2F2000090ED001A31EE000A2D
:1049100010EE100A1BF014F902460B460FF6784110
:104920003846FBF7A7FD40F2E11061214FF44872D1
:104930007823CDE900650297FDF70AF94BF2105490
:10494000C2F208044BF28051C0F201012046FCF78C
:10495000BFF843F697770120012150224FF4AF634F
:10496000C0F60207CDE90065029710F03BFA43F666
:1049700096770120792150224FF4AF63C0F60207E9
:10498000CDE90065029710F02DFA43F695770120E6
:10499000F12150224FF4AF63C0F60207CDE9006564
:1049A000029710F01FFA43F69D77012040F269113B
:1049B00050224FF4AF63C0F60207CDE900650297BD
:1049C00010F010FA43F69977012040F2E1115022DD
:1049D0004FF4AF63C0F60207CDE90065029710F00F
:1049E00001FA43F69177012040F2592150224FF409
:1049F000AF63C0F60207CDE90065029710F0F2F947
:104A000043F66877012040F2D12150224FF4AF6382
:104A1000C0F60207CDE90065029710F0E3F943F60E
:104A20006B77012040F2493150224FF4AF63C0F65A
:104A30000207CDE90065029710F0D4F943F66E77CE
:104A4000012040F2C13150224FF4AF63C0F602079B
:104A5000CDE90065029710F0C5F943F671770120A2
:104A600040F2394150224FF4AF63C0F60207CDE95E
:104A70000065029710F0B6F943F67477012040F212
:104A8000B14150224FF4AF63C0F60207CDE9006593
:104A9000029710F0A7F943F67777012040F22951E9
:104AA00050224FF4AF63C0F60207CDE900650297CC
:104AB00010F098F904F52F4080F8505080F8C85055
:104AC00080F8405180F8B85180F8305280F8A852F0
:104AD00080F8205380F8985380F8105480F8885458
:104AE00080F8005580F877554BF27840204480F8E4
:104AF000505080F8C85080F8405180F8B85180F884
:104B0000305280F8A85280F8205380F8985380F8EB
:104B1000105480F8885480F8005580F877554BF68B
:104B2000F010204480F8505080F8C85080F8405170
:104B300080F8B85180F8305280F8A85280F820539D
:104B400080F8985380F8105480F8885480F8005505
:104B500080F877554BF66870204480F8505080F804
:104B6000C85080F8405180F8B85180F8305280F831
:104B7000A85280F8205380F8985380F8105480F899
:104B8000885480F8005580F877554CF2E040204476
:104B900080F8505080F8C85080F8405180F8B851E3
:104BA00080F8305280F8A85280F8205380F898534B
:104BB00080F8105480F8885480F8005580F87755B4
:104BC0004CF65820204480F8505080F8C85080F8A7
:104BD000405180F8B85180F8305280F8A85280F8DF
:104BE000205380F8985380F8105480F8885480F847
:104BF000005580F877554CF6D070204480F850501E
:104C000080F8C85080F8405180F8B85180F8305290
:104C100080F8A85280F8205380F8985380F81054F8
:104C200080F8885480F8005580F877554DF2485048
:104C3000204480F8505080F8C85080F8405180F8E7
:104C4000B85180F8305280F8A85280F8205380F88C
:104C5000985380F8105480F8885480F8005580F8F4
:104C600077554DF6C020204480F8505080F8C85049
:104C700080F8405180F8B85180F8305280F8A8523E
:104C800080F8205380F8985380F8105480F88854A6
:104C900080F8005580F877554EF23800204480F8AF
:104CA000505080F8C85080F8405180F8B85180F8D2
:104CB000305280F8A85280F8205380F8985380F83A
:104CC000105480F8885480F8005580F877554EF2DB
:104CD000B050204480F8505080F8C85080F84051BF
:104CE00080F8B85180F8305280F8A85280F82053EC
:104CF00080F8985380F8105480F8885480F8005554
:104D000080F877554EF62830204480F8505080F8CF
:104D1000C85080F8405180F8B85180F8305280F87F
:104D2000A85280F8205380F8985380F8105480F8E7
:104D3000885480F8005580F877554FF2A000204441
:104D400080F8505080F8C85080F8405180F8B85131
:104D500080F8305280F8A85280F8205380F8985399
:104D600080F8105480F8885480F8005580F8775502
:104D70004FF21860204480F8505080F8C85080F8F6
:104D8000405180F8B85180F8305280F8A85280F82D
:104D9000205380F8985380F8105480F8885480F895
:104DA000005580F877554FF69030204480F85050E9
:104DB00080F8C85080F8405180F8B85180F83052DF
:104DC00080F8A85280F8205380F8985380F8105447
:104DD00080F8885480F8005580F8775504F58030C5
:104DE00000F5847080F8505080F8C85080F8405129
:104DF00080F8B85180F8305280F8A85280F82053DB
:104E000080F8985380F8105480F8885480F8005542
:104E100080F8775504F5AF3080F8505080F8C850CE
:104E200080F8405180F8B85180F8305280F8A8528C
:104E300080F8205380F8985380F8105480F88854F4
:104E400080F8005580F8775504F5B03000F55E70B5
:104E500080F8505080F8C85080F8405180F8B85120
:104E600080F8305280F8A85280F8205380F8985388
:104E700080F8105480F8885480F8005580F87755F1
:104E800004F5B03000F50F6080F8505080F8C8503D
:104E900080F8405180F8B85180F8305280F8A8521C
:104EA00080F8205380F8985380F8105480F8885484
:104EB00080F8005580F8775504F5B43000F5CD60E2
:104EC00080F8505080F8C85080F8405180F8B851B0
:104ED00080F8305280F8A85280F8205380F8985318
:104EE00080F8105480F8885480F8005580F8775581
:104EF00004F5B03000F59F5080F8505080F8C8504D
:104F000080F8405180F8B85180F8305280F8A852AB
:104F100080F8205380F8985380F8105480F8885413
:104F200080F8005580F8775504F5C43000F5E76146
:104F300004F5C83000F5966080F8885480F8105465
:104F400080F8985380F8205380F8A85280F83052A7
:104F500080F8B85180F8405180F8C85080F850501F
:104F600080F8005580F8775504F5CC3000F50A70CC
:104F700080F8505080F8C85080F8405180F8B851FF
:104F800080F8305280F8A85280F8205380F8985367
:104F900080F8105480F8885480F8005580F87755D0
:104FA00004F5C03000F5FD5080F8505080F8C8502E
:104FB00080F8405180F8B85180F8305280F8A852FB
:104FC00080F8205380F8985380F8105480F8885463
:104FD00080F8005580F8775504F5D03000F5A360CF
:104FE00080F8505080F8C85080F8405180F8B8518F
:104FF00080F8305280F8A85280F8205380F89853F7
:1050000080F8105480F8885480F8005580F877555F
:1050100004F5D03000F5296080F8505080F8C85071
:1050200080F8405180F8B85180F8305280F8A8528A
:1050300080F8205380F8985380F8105480F88854F2
:1050400080F8005580F8775504F5D830083080F89E
:10505000505080F8C85080F8405180F8B85180F81E
:10506000305280F8A85280F8205380F8985380F886
:10507000105480F8885480F8005580F8775540F235
:105080008060C0F201002554204480F8785080F8F8
:10509000F05080F8685180F8E05180F8585280F85C
:1050A000D05280F8485380F8C05380F8385480F8C4
:1050B000B05480F8275540F6F830C0F2010025546E
:1050C000204480F8785080F8F05080F8685180F8DB
:1050D000E05180F8585280F8D05280F8485380F858
:1050E000C05380F8385480F8B05480F8275541F206
:1050F0007010C0F201002554204480F8785080F8E8
:10510000F05080F8685180F8E05180F8585280F8EB
:10511000D05280F8485380F8C05380F8385480F853
:10512000B05480F8275541F2E860C0F201002554E0
:10513000204480F8785080F8F05080F8685180F86A
:10514000E05180F8585280F8D05280F8485380F8E7
:10515000C05380F8385480F8B05480F8275541F691
:105160006040C0F201002554204480F8785080F857
:10517000F05080F8685180F8E05180F8585280F87B
:10518000D05280F8485380F8C05380F8385480F8E3
:10519000B05480F8275542F2D810C0F201002554CF
:1051A000204480F8785080F8F05080F8685180F8FA
:1051B000E05180F8585280F8D05280F8485380F877
:1051C000C05380F8385480F8B05480F8275542F224
:1051D0005070C0F201002554204480F8785080F8C7
:1051E000F05080F8685180F8E05180F8585280F80B
:1051F000D05280F8485380F8C05380F8385480F873
:10520000B05480F8275542F6C840C0F2010025543A
:10521000204480F8785080F8F05080F8685180F889
:10522000E05180F8585280F8D05280F8485380F806
:10523000C05380F8385480F8B05480F8275543F2B2
:105240004020C0F201002554204480F8785080F8B6
:10525000F05080F8685180F8E05180F8585280F89A
:10526000D05280F8485380F8C05380F8385480F802
:10527000B05480F8275543F2B870C0F201002554AD
:10528000204480F8785080F8F05080F8685180F819
:10529000E05180F8585280F8D05280F8485380F896
:1052A000C05380F8385480F8B05480F8275543F63E
:1052B0003050C0F201002554204480F8785080F826
:1052C000F05080F8685180F8E05180F8585280F82A
:1052D000D05280F8485380F8C05380F8385480F892
:1052E000B05480F8275544F2A820C0F2010025549C
:1052F000204480F8785080F8F05080F8685180F8A9
:10530000E05180F8585280F8D05280F8485380F825
:10531000C05380F8385480F8B05480F8275544F6CC
:105320002000C0F201002554204480F8785080F815
:10533000F05080F8685180F8E05180F8585280F8B9
:10534000D05280F8485380F8C05380F8385480F821
:10535000B05480F8275544F69850C0F2010081F807
:10536000505081F8C85081F8405181F8775581F844
:10537000005581F8885481F8105481F8985381F8C9
:10538000205381F8A85281F8305281F8B85104F5C1
:10539000C0312554204401F51C6180F8785080F814
:1053A000F05080F8685180F8E05180F8585280F849
:1053B000D05280F8485380F8C05380F8385480F8B1
:1053C000B05480F8275545F2103081F8505081F8DC
:1053D000C85081F8405181F8775581F8005581F81F
:1053E000885481F8105481F8985381F8205381F83B
:1053F000A85281F8305281F8B85104F5C031C0F29A
:10540000010001F589612554204481F8505081F84C
:10541000C85081F8405181F8775581F8005581F8DE
:10542000885481F8105481F8985381F8205381F8FA
:10543000A85281F8305281F8B85104F5B83180F89B
:10544000785080F8F05080F8685180F8E05180F88A
:10545000585280F8D05280F8485380F8C05380F8F2
:10546000385480F8B05480F8275545F6880001F587
:105470006D61C0F2010081F8505081F8C85081F888
:10548000405181F8775581F8005581F8885481F8AA
:10549000105481F8985381F8205381F8A85281F86C
:1054A000305281F8B85104F5BC312554204401F53F
:1054B000AC7180F8785080F8F05080F8685180F82E
:1054C000E05180F8585280F8D05280F8485380F864
:1054D000C05380F8385480F8B05480F8275504F54C
:1054E000833081F8505081F8C85081F8405181F8DC
:1054F000775581F8005581F8885481F8105481F867
:10550000985381F8205381F8A85281F8305281F8DD
:10551000B85157300C214FF0013200BFC0F829209C
:10552000C0F82D20C0F84120C0F84520C0F859200F
:10553000C0F85D20C0F87120C0F87520013900F175
:105540007800EBD104F5AC3000F5B1600C214FF0E0
:10555000013200BF40F8782F013942608261C26198
:10556000026342638264C264F4D11F2018B0BDECB0
:105570000E8B01B0BDE8F08F224100005152530064
:10558000234200005256352B5356313A20252E33F4
:1055900066206D56000000005256312B5356353AA6
:1055A00020252E3366206D56000000002DE9F04FB7
:1055B00081B02DED108B84B013F066FD4FF4AF6019
:1055C00011F0EEFB13F060FD4FF4AF6011F0E8FB5B
:1055D00013F05AFD4FF4AF6011F0E2FB13F054FDED
:1055E0004FF4AF6011F0DCFB13F04EFD4FF4AF60F1
:1055F00011F0D6FB13F048FD4FF4AF6011F0D0FB73
:1056000013F042FD4FF4AF6011F0CAFB13F03CFD04
:105610004FF4AF6011F0C4FB13F036FD4FF4AF60F0
:1056200011F0BEFB13F030FD4FF4AF6011F0B8FB8A
:1056300013F02AFD4FF4AF6011F0B2FB13F024FD1C
:105640004FF4AF6011F0ACFB13F01EFD4FF4AF60F0
:1056500011F0A6FB13F018FD4FF4AF6011F0A0FBA2
:1056600013F012FD4FF4AF6011F09AFB13F00CFD34
:105670004FF4AF6011F094FB13F006FD4FF4AF60F0
:1056800011F08EFB13F000FD4FF4AF6011F088FBBA
:1056900013F0FAFC4FF4AF6011F082FB13F0F4FC4E
:1056A0004FF4AF6011F07CFB13F0EEFC4FF4AF60F1
:1056B00011F076FB13F0E8FC4FF4AF6011F070FBD3
:1056C00013F0E2FC4FF4AF6011F06AFB13F0DCFC66
:1056D0004FF4AF6011F064FB13F0D6FC4FF4AF60F1
:1056E00011F05EFB13F0D0FC4FF4AF6011F058FBEB
:1056F00013F0CAFC4FF4AF6011F052FB13F0C4FC7E
:105700004FF4AF6011F04CFB13F0BEFC4FF4AF60F0
:1057100011F046FB13F0B8FC4FF4AF6011F040FB02
:1057200013F0B2FC4FF4AF6011F03AFB13F0ACFC95
:105730004FF4AF6011F034FB13F0A6FC4FF4AF60F0
:1057400011F02EFB13F0A0FC4FF4AF6011F028FB1A
:1057500013F09AFC4FF4AF6011F022FB13F094FCAD
:105760004FF4AF6011F01CFB13F08EFC4FF4AF60F0
:1057700011F016FB13F088FC4FF4AF6011F010FB32
:1057800013F082FC4FF4AF6011F00AFB13F07CFCC5
:105790004FF4AF6011F004FB13F076FC4FF4AF60F0
:1057A00011F0FEFA13F070FC4FF4AF6011F0F8FA4C
:1057B00013F06AFC4FF4AF6011F0F2FA13F064FCDE
:1057C0004FF4AF6011F0ECFA13F05EFC4FF4AF60F1
:1057D00011F0E6FA13F058FC4FF4AF6011F0E0FA64
:1057E00013F052FC4FF4AF6011F0DAFA13F04CFCF6
:1057F0004FF4AF6011F0D4FA13F046FC4FF4AF60F1
:1058000011F0CEFA13F040FC4FF4AF6011F0C8FA7B
:1058100013F03AFC4FF4AF6011F0C2FA13F034FC0D
:105820004FF4AF6011F0BCFA13F02EFC4FF4AF60F0
:1058300011F0B6FA13F028FC4FF4AF6011F0B0FA93
:1058400013F022FC4FF4AF6011F0AAFA13F01CFC25
:105850004FF4AF6011F0A4FA13F016FC4FF4AF60F0
:1058600011F09EFA13F010FC4FF4AF6011F098FAAB
:1058700013F00AFC4FF4AF6011F092FA13F004FC3D
:105880004FF4AF6011F08CFA13F0FEFB4FF4AF60F1
:1058900011F086FA13F0F8FB4FF4AF6011F080FAC4
:1058A00013F0F2FB4FF4AF6011F07AFA13F0ECFB57
:1058B0004FF4AF6011F074FA13F0E6FB4FF4AF60F1
:1058C00011F06EFA13F0E0FB4FF4AF6011F068FADC
:1058D00013F0DAFB4FF4AF6011F062FA13F0D4FB6F
:1058E0004FF4AF6011F05CFA13F0CEFB4FF4AF60F1
:1058F00011F056FA13F0C8FB4FF4AF6011F050FAF4
:1059000013F0C2FB4FF4AF6011F04AFA13F0BCFB86
:105910004FF4AF6011F044FA13F0B6FB4FF4AF60F0
:1059200011F03EFA13F0B0FB4FF4AF6011F038FA0B
:1059300013F0AAFB4FF4AF6011F032FA13F0A4FB9E
:105940004FF4AF6011F02CFA13F09EFB4FF4AF60F0
:1059500011F026FA13F098FB4FF4AF6011F020FA23
:1059600013F092FB4FF4AF6011F01AFA13F08CFBB6
:105970004FF4AF6011F014FA13F0F8FB502400BF9D
:1059800013F0BCFB4FF4AF6011F00AFA13F0B6FB52
:105990004FF4AF6011F004FA013CF1D14FF640141E
:1059A000CFF6FF7413F0E2FB642011F0D7F940F258
:1059B000080640F21209C1F200060020C1F20009F7
:1059C000307048464FF4D861FBF760F8012021465B
:1059D00009EB010211F5907182F8C00682F8C80641
:1059E00082F8D00682F8D80682F8E00682F8E80647
:1059F00082F8F00682F8F80682F8000782F80807B5
:105A000082F8100782F8180782F8200782F8280722
:105A100082F8300782F8380782F8400782F8480792
:105A200082F8500782F8580782F8600782F8680702
:105A300082F8700782F8780782F8800782F8880772
:105A400082F8900782F8980782F8A00782F8A807E2
:105A500082F8B00782F8B80782F8C00782F8C80752
:105A600082F8D00782F8D807B2D113F03FFD0A20A0
:105A700011F074F948464FF4D861FBF707F84FF678
:105A800040110120CFF6FF7109EB010211F5907171
:105A900082F8C10682F8C90682F8D10682F8D906D2
:105AA00082F8E10682F8E90682F8F10682F8F90642
:105AB00082F8010782F8090782F8110782F81907AE
:105AC00082F8210782F8290782F8310782F839071E
:105AD00082F8410782F8490782F8510782F859078E
