:020000040800F2
:10000000B007002081010008312D000819230008E5
:1000100000000000000000000000000000000000E0
:100020000000000000000000000000007B3300081A
:10003000000000000000000079330008CD33000804
:1000400093010008000000009301000893010008DC
:100050009301000893010008930100089301000830
:1000600000000000930100089301000893010008BC
:1000700093010008930100089301000800000000AC
:100080009301000800000000000000009301000838
:100090000000000093010008553400089301000897
:1000A00093010008930100089301000893010008E0
:1000B00093010008000000000000000000000000A4
:1000C00000F002F800F04CF812A030C808382418EC
:1000D0002D18AC4201D100F043F80FCCA246AB463C
:1000E0000CA730CF2D1B083F3F197C427F1E544484
:1000F0002D090426F441641EAC4201D300F030F80F
:100100000126334200D0FB1A3343984754465D46DC
:10011000DFE700007C4B00009C4B0000103A02D34C
:1001200078C878C1FAD8520701D330C830C101D598
:1001300004680C6070470000704700000023002432
:1001400000250026103A01D378C1FBD8520700D30E
:1001500030C100D50B6070471FB51FBD10B510BD75
:1001600000F003F91146FFF7F7FF03F053FA00F030
:100170001BF903B4FFF7F2FF03BC00F021F9000004
:100180000748804707480047FEE7FEE7FEE7FEE72F
:10019000FEE7FEE704480549054A064B70470000A4
:1001A00053340008C1000008B0010020B00700204F
:1001B000B0030020B003002001E004C0091F04299F
:1001C000FBD28B0701D50280801CC90700D00270CA
:1001D000704700290BD0C30702D00270401C491E93
:1001E000022904D3830702D50280801C891EE3E71D
:1001F0000022EEE70022DFE7002203098B422CD326
:10020000030A8B4211D300239C464EE003460B4366
:100210003CD4002243088B4231D303098B421CD3C8
:10022000030A8B4201D394463FE0C3098B4201D3BA
:10023000CB01C01A524183098B4201D38B01C01AF2
:10024000524143098B4201D34B01C01A5241030969
:100250008B4201D30B01C01A5241C3088B4201D318
:10026000CB00C01A524183088B4201D38B00C01AC5
:10027000524143088B4201D34B00C01A5241411AEC
:1002800000D201465241104670475DE0CA0F00D0CF
:100290004942031000D3404253409C4600220309C8
:1002A0008B422DD3030A8B4212D38901FC2212BA4E
:1002B000030A8B420CD3890192118B4208D3890126
:1002C00092118B4204D389013AD0921100E089093E
:1002D000C3098B4201D3CB01C01A524183098B421F
:1002E00001D38B01C01A524143098B4201D34B0108
:1002F000C01A524103098B4201D30B01C01A52416B
:10030000C3088B4201D3CB00C01A524183088B42F1
:1003100001D38B00C01A5241D9D243088B4201D37A
:100320004B00C01A5241411A00D2014652411046B8
:1003300063465B1001D34042002B00D54942704711
:1003400063465B1000D3404201B50549002802DC3A
:10035000491C084000E00846C046C04602BD00BF38
:10036000FFFFFF7F704770477047754600F024F825
:10037000AE46050069465346C008C000854618B021
:1003800020B5FFF707FF60BCB64600260027C0C5B2
:10039000C0C5C0C5C0C5C0C5C0C5C0C5C0C5403D3D
:1003A000490849008D46704710B50446C046C0460E
:1003B0002046FFF7DEFE10BD004870471000002009
:1003C00001491820ABBEFEE726000200704781B04D
:1003D000EFF3108072B60090FFE7FEE780B584B0BF
:1003E000039000F085F90290039801900198401C59
:1003F000002806D0FFE709480178019840180190CD
:10040000FFE7FFE700F074F90299401A019988426A
:1004100001D2FFE7F6E704B080BDC046040000202B
:100420008AB00990089100200790FFE708980068BB
:100430000799C840002800D147E108980068079A4A
:1004400001219140084006900698002800D138E12B
:100450000898406803210840012807D0FFE7089862
:1004600040680321084002282CD1FFE709988068E2
:100470000590079840000321814005988843059026
:100480000898C16807984000814005980843059086
:100490000598099988600998406805900798012196
:1004A00081400598884305900898406810210840CD
:1004B0000109079881400598084305900598099916
:1004C0004860FFE70898406803210840032816D0D9
:1004D000FFE70998C0680590079840000321814014
:1004E00005988843059008988168079840008140E6
:1004F00005980843059005980999C860FFE7089892
:10050000406803210840022820D1FFE70998079995
:10051000C90889004018006A059007984007C00E76
:100520000F21814005988843059008980169079834
:100530004007C00E81400598084305900598099929
:10054000079AD208920089180862FFE709980068A4
:10055000059007984100032002468A40059991437F
:100560000591089949680140079840008140059825
:1005700008430590059809990860089880798007D4
:10058000002800D19CE00798032188435049405837
:10059000059007988007C00E0F2181400598884379
:1005A0000590099805210907884203D1FFE700203B
:1005B000049022E009984749884203D1FFE70120CF
:1005C000039017E009984449884203D1FFE70220CD
:1005D00002900CE00999414A0320052300939142BF
:1005E000019001D00098019001980290FFE70298D5
:1005F0000390FFE703980490FFE7049907988007AA
:10060000C00E81400598084305900598079903227C
:1006100091432F4A88503248006805900699059802
:100620008843059008988079C006002805D5FFE723
:100630000699059808430590FFE705982849086042
:100640002848006805900699059888430590089801
:1006500080798006002805D5FFE7069905980843AC
:100660000590FFE705981F4908601F48006805903E
:100670000699059888430590089880798007002896
:1006800005D5FFE70699059808430590FFE705980B
:100690001549086015480068059006990598884333
:1006A000059008988079C007002805D0FFE70699D3
:1006B000059808430590FFE705980C490860FFE797
:1006C000FFE70798401C0790B0E60AB07047C046A5
:1006D000601802400004005000080050000C005058
:1006E000001802400418024084180240801802409A
:1006F000014800687047C046A801002010B583B0CB
:100700000190009101984121405C202839D1FFE7F8
:10071000FFE701984021405C012804D1FFE702A9CE
:100720000220087031E00199402201208854FFE73F
:10073000FFE7019941222420885401980168086844
:100740000123984308600198016808681C03A043CE
:100750000860009C019801680868204308600198BF
:100760000168086818430860019920208854FFE751
:100770000199402200208854FFE702A90020087058
:1007800003E002A902200870FFE702A8007803B086
:1007900010BD84B00290019102984121405C202854
:1007A0003FD1FFE7FFE702984021405C012804D1D8
:1007B000FFE703A90220087037E0029940220120D8
:1007C0008854FFE7FFE702994122242088540298C9
:1007D000016808680123984308600298006800686F
:1007E000009000980F2109028843009001980102AF
:1007F00000980843009000980299096808600298E0
:100800000168086818430860029920208854FFE7AF
:100810000299402200208854FFE703A900200870B5
:1008200003E003A902200870FFE703A8007804B0E2
:100830007047000080B582B000900098002804D175
:10084000FFE701A9012008707EE000984121405C8B
:10085000002808D1FFE70099402200208854009822
:1008600000F096FAFFE7009941222420885400986E
:1008700001680868012290430860009948680F23C6
:100880001B06984309680861009801688868D203CC
:10089000904388600098C068012808D1FFE700995C
:1008A00088680122D20310430968886007E0009934
:1008B000886821229202104309688860FFE7009847
:1008C000C068022808D1FFE7009801684868012243
:1008D000D2021043486007E000980168486801228E
:1008E000D20290434860FFE7009801684868184AC0
:1008F0001043486000980168C8680122D3039843F8
:10090000C860009908694B6918438B691B0218433A
:100910000968C8600099C8690B6A184309680860CB
:100920000098016808681043086000990020486436
:10093000009A41232021D154009908630099422252
:10094000885401A90870FFE701A8007802B080BDB3
:100950000080000210B588B00A9C069005A80180AE
:10096000049203A8038006984121405C202800D00F
:10097000E5E0FFE706984021405C012804D1FFE74D
:1009800007A902200870DEE0069940220120885461
:10099000FFE7FFE7FFF7ACFE02900698029900918F
:1009A0000122D103192301F0FDFD002804D0FFE747
:1009B00007A901200870C6E0069941222220885428
:1009C0000699422210208854069900204864049910
:1009D000069A51620399069A5185069948630698CA
:1009E000408D000A00280FD0FFE70699FF200885F8
:1009F000069805A909882822825C554B009301239B
:100A00001B0601F0A5FD0FE00698408D06990885AC
:100A1000069805A909882822825C4D4B0093012382
:100A20005B0601F095FDFFE7FFE70698408D002883
:100A30005ED0FFE706980A99029A01F015FE002899
:100A400004D0FFE707A9012008707CE00698006841
:100A5000406A0699496A08700699486A401C4862CB
:100A60000699088D401E08850699488D401E4885C8
:100A70000698408D00283AD0FFE70698008D0028A0
:100A800035D1FFE706980A9B029900918021002248
:100A900001F088FD002804D0FFE707A901200870B5
:100AA00051E00698408D000A00280FD0FFE7069914
:100AB000FF200885069805A909882822825C002362
:100AC000009301231B0601F043FD0FE00698408DC3
:100AD00006990885069805A909882822825C0023C2
:100AE000009301235B0601F033FDFFE7FFE79CE77E
:100AF00006980A99029A01F067FE002804D0FFE7E1
:100B000007A9012008701EE0069801682020C8612E
:100B100006990A6851689D4B194051600699412217
:100B200088540699422200208854FFE70699402203
:100B300000208854FFE707A90020087003E007A9F8
:100B400002200870FFE707A8007808B010BDC04673
:100B50000024008010B588B00A9C069005A801808A
:100B6000049203A8038006984121405C202800D00D
:100B700001E1FFE706984021405C012804D1FFE72E
:100B800007A902200870FAE0069940220120885443
:100B9000FFE7FFE7FFF7ACFD02900698029900918E
:100BA0000122D103192301F0FDFC002804D0FFE746
:100BB00007A901200870E2E006994122212088540B
:100BC000069942221020885406990020486404990E
:100BD000069A51620399069A5185069948630698C8
:100BE000408D000A002807D0FFE70699FF200885FE
:100BF00001200006019007E00698408D06990885BF
:100C0000012040060190FFE70698008D00281DD0C6
:100C1000FFE70699486A0078096888620699486A79
:100C2000401C48620699488D401E48850699088DEB
:100C3000401E0885069805A90988028D521C019B53
:100C4000514C0094D2B201F083FC0AE0069805A949
:100C500009882822825C019B4B4C009401F078FCAF
:100C6000FFE7FFE70698408D00285DD0FFE7069874
:100C70000A99029A01F0F8FD002804D0FFE707A9BD
:100C8000012008707BE00699486A0078096888624C
:100C90000699486A401C48620699488D401E48855E
:100CA0000699088D401E08850698408D00283AD088
:100CB000FFE70698008D002835D1FFE706980A9BCC
:100CC000029900918021002201F06CFC002804D0E0
:100CD000FFE707A90120087051E00698408D000A3F
:100CE00000280FD0FFE70699FF200885069805A980
:100CF00009882822825C0023009301231B0601F04F
:100D000027FC0FE00698408D06990885069805A9EE
:100D100009882822825C0023009301235B0601F0EE
:100D200017FCFFE7FFE79DE706980A99029A01F092
:100D30004BFD002804D0FFE707A9012008701EE042
:100D4000069801682020C86106990A6851680F4B0F
:100D50001940516006994122885406994222002088
:100D60008854FFE70699402200208854FFE707A92E
:100D70000020087003E007A902200870FFE707A819
:100D8000007808B010BDC0460020008000E800FEDA
:100D900080B588B0079000200690059004900390DD
:100DA0000290079800681649884226D1FFE7FFE7BE
:100DB0001448026802210A4302600068084001905A
:100DC0000198FFE7032040030290122003900020C7
:100DD00004900590062006900B4802A9FFF720FB1F
:100DE000FFE74A480268012189050A43026000685A
:100DF000084000900098FFE7FFE708B080BDC046BC
:100E0000005800403410024000040050304802787E
:100E100002490868801808607047C046A801002091
:100E200080B582B001A900200870F4490868012249
:100E3000120210430860032000F00EF8002804D0CE
:100E4000FFE701A90120087002E000F043F8FFE786
:100E500001A8007802B080BD80B584B0039002A9DB
:100E6000002008701A480078002829D0FFE7E748DA
:100E700000680190164801787D20C000FFF7BCF99A
:100E800001460198FFF7B8F900F0A4FD002812D13F
:100E9000FFE70398032809D8FFE703990022D0430E
:100EA00000F041F80398DA49086003E002A9012044
:100EB0000870FFE703E002A901200870FFE703E0E4
:100EC00002A901200870FFE702A8007804B080BDE5
:100ED0000400002082B0FFE70B48026801210A43AA
:100EE00002600068084001900198FFE7FFE70748AB
:100EF0000268012109070A43026000680840009067
:100F00000098FFE702B07047401002403C100240DA
:100F100080B582B0014601A801700021405602F060
:100F200021FB02B080BD80B584B0034603A80370E6
:100F30000291019200214056029902F029FB04B06F
:100F400080BD000080B584B002901A490868032271
:100F500052029043029A104308600298012149020C
:100F600088421ED1FFE7A94801680620484312497C
:100F7000FFF742F9401C0190FFE710480068400568
:100F800000280DD5FFE70198002804D0FFE701985D
:100F9000401E019003E003A90320087005E0ECE780
:100FA000FFE703A900200870FFE703A8007804B05A
:100FB00080BDC0460070004040420F0014700040E9
:100FC00080B584B0029001910298002804D1FFE717
:100FD00003A9012008700CE10198884909680722DB
:100FE0001140884221D9FFE78449086807229043CD
:100FF000019A10430860FFF77BFB0090FFE77F48F2
:10100000006807210840019988420DD0FFE7FFF7EB
:101010006FFB0099401A7F49884204D3FFE703A978
:1010200003200870E5E0EAE7FFE702980078800710
:10103000002817D5FFE7029800784007002807D559
:10104000FFE7B84908680722120310430860FFE76A
:10105000B44908680F2212029043029A9268104322
:101060000860FFE702980078C007002872D0FFE709
:101070000298406801280BD1FFE7AE480068800362
:10108000002804D4FFE703A901200870B1E03DE087
:101090000298406802280BD1FFE7A648006880014B
:1010A000002804D4FFE703A901200870A1E02CE088
:1010B0000298406800280BD1FFE79E480068400571
:1010C000002804D4FFE703A90120087091E01BE089
:1010D0000298406803280BD1FFE74A480068800760
:1010E000002804D4FFE703A90120087081E00AE08A
:1010F000434800688007002804D4FFE703A90120C3
:10110000087076E0FFE7FFE7FFE7FFE7854908683B
:1011100007229043029A526810430860FFF7E8FAEA
:101120000090FFE77F48006838210840029949682D
:10113000C90088420DD0FFE7FFF7DAFA0099401A9C
:101140003449884204D3FFE703A90320087050E024
:10115000E8E7FFE70198294909680722114088421A
:1011600021D2FFE72549086807229043019A1043DE
:101170000860FFF7BDFA0090FFE7204800680721EC
:101180000840019988420DD0FFE7FFF7B1FA0099B6
:10119000401A2049884204D3FFE703A903200870BE
:1011A00027E0EAE7FFE702980078400700280AD521
:1011B000FFE75C490868072212039043029AD2684D
:1011C00010430860FFE700F027F8564909680F222E
:1011D000120211408A090C4989581F221140C84047
:1011E0000A4908600A480068FFF736FE03A908703C
:1011F000FFE703A8007804B080BDC046002002408D
:101200005C10024060100240504C000800000020BA
:10121000080000208913000080B588B041480068AC
:101220008006400F00280FD1FFE7424800680721E1
:10123000C9020840C10A01208840039003993C4834
:10124000FEF7DAFF029069E036480068382108406E
:10125000082803D1FFE7354802905EE03148006876
:101260003821084010283CD1FFE72F4801680322AD
:10127000114006910068702108400009401C04904C
:1012800006980190022812D0FFE7019803280FD199
:10129000FFE704992548FEF7AFFF014622480068A2
:1012A0007F2212021040000A484307900EE0FFE739
:1012B00004991F48FEF7A0FF01461B4800687F22E3
:1012C00012021040000A48430790FFE716480068E2
:1012D000400F401C059007980599FEF78DFF02907E
:1012E0001AE01048006838210840202804D1FFE7A0
:1012F0000120C00302900EE00A480068382108402F
:10130000182804D1FFE77D200002029002E00020AF
:101310000290FFE7FFE7FFE7FFE7FFE7029808B06B
:1013200080BDC046081002400C10024000127A0036
:101330000024F4000010024010B588B00690069812
:10134000002804D1FFE707A9012008702AE30698C6
:101350000078C007002800D188E0FC4800683821E8
:1013600008400490FA48006803210840039004985C
:10137000102804D1FFE70398032804D0FFE704985E
:10138000082810D1FFE7F84800688003002809D535
:10139000FFE706984068002804D1FFE707A901206D
:1013A0000870FFE261E0FFE7069840680121090448
:1013B000884207D1FFE7EC49086801221204104374
:1013C00008601DE0069840680521090488420BD199
:1013D000FFE7E5490868012293041843086008689C
:1013E0001204104308600AE0DF4908680122130470
:1013F000984308600868920490430860FFE7FFE79D
:10140000FFE706984068002817D0FFE7FFF770F95C
:101410000590FFE7D4480068800300280CD4FFE75C
:10142000FFF766F90599401A652804D3FFE707A975
:1014300003200870B6E2EDE716E0FFF759F90590D2
:10144000FFE7C9480068800300280CD5FFE7FFF7D5
:101450004FF90599401A652804D3FFE707A903202F
:1014600008709FE2EDE7FFE7FFE7FFE706980078E7
:101470008007002800D4A3E0B44800683821084061
:101480000490B34800680321084003900498102892
:1014900004D1FFE70398022804D0FFE7049800284E
:1014A0003BD1FFE7B04800684005002809D5FFE7B9
:1014B0000698C068002804D1FFE707A9012008703A
:1014C00070E2AA4908687F2212029043069A526984
:1014D0001202104308600498002811D1FFE7A248C7
:1014E00002680721C9028A43069B1B691A430260EE
:1014F00000680840C10A9E48C8409E490860FFE74E
:101500009D480068FFF7A8FC002804D0FFE707A962
:101510000120087046E2FFE751E00698C068002805
:101520002FD0FFE7904908680722D2029043069A1D
:101530001269104308600868012212021043086013
:10154000FFF7D6F80590FFE78748006840050028B8
:101550000CD4FFE7FFF7CCF80599401A032804D311
:10156000FFE707A9032008701CE2EDE77F49086840
:101570007F2212029043069A5269120210430860B9
:101580001CE0794908680122120290430860FFF7C5
:10159000AFF80590FFE774480068400500280CD5B7
:1015A000FFE7FFF7A5F80599401A032804D3FFE7E2
:1015B00007A903200870F5E1EDE7FFE7FFE7FFE784
:1015C000069800780007002856D5FFE7F74800681E
:1015D00038210840182810D1FFE7F7480068800735
:1015E000002809D5FFE706988069002804D1FFE7A5
:1015F00007A901200870D5E13DE006988069002820
:101600001CD0FFE7EC490868012210430860FFF78F
:101610006FF80590FFE7E8480068800700280CD4C1
:10162000FFE7FFF765F80599401A032804D3FFE7A1
:1016300007A903200870B5E1EDE71BE0DE49086863
:10164000012290430860FFF753F80590FFE7DA485E
:101650000068800700280CD5FFE7FFF749F80599D7
:10166000401A032804D3FFE707A90320087099E173
:10167000EDE7FFE7FFE7FFE706980078400700285F
:1016800000D4CAE002A900200870C84800683821C8
:101690000840202810D1FFE7CA48006880070028CA
:1016A00009D5FFE706988068002804D1FFE707A95D
:1016B0000120087076E1AFE0C0480068C000002853
:1016C00010D4FFE7FFE7BD480268012109070A437C
:1016D00002600068084001900198FFE702A901201C
:1016E0000870FFE7B6480068C00500281DD4FFE772
:1016F000B34908680122120210430860FEF7F8FFA0
:101700000590FFE7AE480068C00500280CD4FFE74D
:10171000FEF7EEFF0599401A032804D3FFE707A957
:10172000032008703EE1EDE7FFE7FFE706988068D9
:10173000012806D1FFE7A349086801221043086089
:1017400027E006988068052818D103E008100240B9
:101750000C1002409B490868042210430860086886
:1017600001221043086013E0001002400410024000
:101770000024F400000000200800002091490868BF
:101780000122904308600868042290430860FFE744
:10179000FFE7FFE706988068002818D0FFE7FEF70C
:1017A000A7FF0590FFE787480068800700280DD451
:1017B000FFE7FEF79DFF0599401A8349884204D34D
:1017C000FFE707A903200870ECE0ECE717E0FEF75D
:1017D0008FFF0590FFE77B480068800700280DD544
:1017E000FFE7FEF785FF0599401A7749884204D341
:1017F000FFE707A903200870D4E0ECE7FFE702A8A1
:101800000078012807D1FFE76C4908680122120718
:1018100090430860FFE7FFE7FFE70698C0690028EC
:1018200000D1BBE06148006838210840102876D01C
:10183000FFE70698C06902284ED1FFE75D490868B6
:101840000122120690430860FEF752FF0590FFE761
:1018500058480068800100280CD5FFE7FEF748FFD4
:101860000599401A032804D3FFE707A9032008704D
:1018700098E0EDE74E490868554A1040069B1A6A01
:101880005C6A22439C6A24022243DC6A22431B6B6B
:101890001A4310430860474B18680122140620437E
:1018A00018600868120710430860FEF721FF0590D2
:1018B000FFE740480068800100280CD4FFE7FEF7EE
:1018C00017FF0599401A032804D3FFE707A903204F
:1018D000087067E0EDE721E036490868012212064A
:1018E00090430860FEF704FF0590FFE73148006869
:1018F000800100280CD5FFE7FEF7FAFE0599401A93
:10190000032804D3FFE707A9032008704AE0EDE7A6
:10191000274908682D4A10400860FFE73DE0069817
:10192000C069012804D1FFE707A90120087039E048
:101930001F48006803900398032108400699096A2C
:10194000884224D1FFE70398702108400699496A2C
:1019500088421CD1FFE703987F21090208400699BD
:10196000896A0902884212D1FFE703981F214904BE
:1019700008400699C96A884209D1FFE70398072100
:10198000490708400699096B884204D0FFE707A978
:101990000120087006E0FFE7FFE7FFE707A9002046
:1019A0000870FFE707A8007808B010BD08100240D3
:1019B0000C10024000100240601002403C10024037
:1019C000007000405C10024089130000FCFFFEEF35
:1019D0008C80C11F80B582B00190019801F0CEFCCF
:1019E00002B080BD81B0009001B0704781B000901E
:1019F00001B0704781B0009001B0704780B582B0EF
:101A000000900098002804D1FFE701A90120087088
:101A100045E000983D21405C002808D1FFE700998F
:101A20003C2200208854009800F03EF8FFE700991F
:101A30003D2202208854009901C901F013FD00994C
:101A4000482201208854FFE700993E220120885453
:101A500000993F22885400994022885400994122DD
:101A60008854009942228854009943228854FFE701
:101A7000FFE70099442201208854009945228854A8
:101A8000009946228854009947228854FFE700991C
:101A90003D220120885401A900200870FFE701A819
:101AA000007802B080BD000080B584B00390039838
:101AB00000680E49884216D1FFE7FFE70C4802682C
:101AC000012189040A4302600068084002900298DC
:101AD000FFE71620019000221146FFF724FA019833
:101AE000FFF716FAFFE704B080BDC046004801408A
:101AF0004010024083B0019001983D21405C0128D4
:101B000004D0FFE702A90120087038E001993D22C6
:101B10000220885401980168C86801221043C860F7
:101B2000019800681849884206D0FFE701980068CC
:101B30001649884218D1FFE7019800688068144967
:101B400008400090009806280DD0FFE7009801217A
:101B50000904884207D0FFE701980168086801225C
:101B600010430860FFE706E0019801680868012259
:101B700010430860FFE702A900200870FFE702A8F1
:101B8000007803B07047C046002C014000040040BC
:101B90000700010081B0009001B0704780B584B0AB
:101BA000039003980068C068029003980068006979
:101BB000019001A800788007002825D5FFE702A83A
:101BC0000078800700281ED5FFE7039801680220EF
:101BD000C043086103990120087703980068806971
:101BE0008007002804D0FFE70398FFF7D3FF06E043
:101BF000039800F005F9039800F006F9FFE7039950
:101C000000200877FFE7FFE701A8007840070028D9
:101C100026D5FFE702A80078400700281FD5FFE778
:101C2000039801680420C0430861039902200877E3
:101C30000398006880698005800F002804D0FFE7C2
:101C40000398FFF7A7FF06E0039800F0D9F8039880
:101C500000F0DAF8FFE7039900200877FFE7FFE7D5
:101C600001A800780007002825D5FFE702A8007822
:101C7000000700281ED5FFE7039801680820C0432D
:101C8000086103990420087703980068C0698007F9
:101C9000002804D0FFE70398FFF77CFF06E00398D5
:101CA00000F0AEF8039800F0AFF8FFE703990020CA
:101CB0000877FFE7FFE701A80078C006002826D5CF
:101CC000FFE702A80078C00600281FD5FFE70398A9
:101CD00001681020C0430861039908200877039821
:101CE0000068C0698005800F002804D0FFE70398D2
:101CF000FFF750FF06E0039800F082F8039800F029
:101D000083F8FFE7039900200877FFE7FFE701A8C2
:101D10000078C007002810D0FFE702A80078C007AD
:101D2000002809D0FFE7039801680120C04308613B
:101D3000039800F06DF8FFE7FFE701988021084065
:101D4000802806D0FFE701A84078800600280FD53C
:101D5000FFE702A800780006002808D5FFE70398EF
:101D60000168254808610398FFF740FEFFE7FFE799
:101D700001A84078C00700280FD0FFE702A800782C
:101D80000006002808D5FFE7039801681B48086192
:101D90000398FFF727FEFFE7FFE701A8007840065A
:101DA000002810D5FFE702A800784006002809D5D2
:101DB000FFE7039801684020C0430861039800F0E2
:101DC000A7FAFFE7FFE701A800788006002810D5F2
:101DD000FFE702A800788006002809D5FFE70398EE
:101DE00001682020C04308610398FFF703FEFFE766
:101DF000FFE704B080BDC0467FDFFFFFFFFEFFFFAF
:101E000081B0009001B0704781B0009001B0704780
:101E100080B586B005900598F949884200D06BE2FC
:101E200003A90020087001204870F6480088C821E6
:101E3000FEF7E2F9012804DBFFE703A9012088701F
:101E400003E003A900208870FFE7EE4800883221F4
:101E5000FEF7D2F901210840012804DBFFE703A9BE
:101E60000120C87003E003A90020C870FFE7E5481F
:101E700000881921FEF7C0F901210840012804DB80
:101E8000FFE703A90120087103E003A900200871FE
:101E9000FFE7DD480088002800D0A9E0DB48029079
:101EA000012100F0C2FD0298022100F0BEFD02985F
:101EB000042100F0BAFDD648017803A8405C002850
:101EC00006D0FFE705200007012100F0AEFD05E088
:101ED00005200007012100F079FDFFE7CC4841789B
:101EE00003A8405C002806D0FFE705200007042176
:101EF00000F09BFD05E005200007042100F066FDD1
:101F0000FFE7C348817803A8405C002806D0FFE7BC
:101F100005200007102100F088FD05E005200007DE
:101F2000102100F053FDFFE7F748C17803A8405C9B
:101F3000002806D0FFE705200007402100F075FDCE
:101F400005E005200007402100F040FDFFE7EF48D5
:101F5000017803A8405C002806D0FFE705200007B1
:101F6000022100F062FD05E005200007022100F0DB
:101F70002DFDFFE7E548417803A8405C002806D026
:101F8000FFE705200007082100F04FFD05E00520D0
:101F90000007082100F01AFDFFE7DC48817803A85C
:101FA000405C002806D0FFE705200007202100F054
:101FB0003CFD05E005200007202100F007FDFFE7BC
:101FC000D248C17803A8405C002806D0FFE705206E
:101FD0000007802100F029FD05E005200007802191
:101FE00000F0F4FCFFE7C748012100F0EFFCFFE739
:101FF000C3480088012800D0A9E0C248019001210F
:1020000000F013FD0198022100F00FFD019804215A
:1020100000F00BFDBC48017903A8405C002806D005
:10202000FFE705200007012100F0FFFC05E0052087
:102030000007012100F0CAFCFFE7B348417903A87B
:10204000405C002806D0FFE705200007042100F0CF
:10205000ECFC05E005200007042100F0B7FCFFE7D9
:10206000A948817903A8405C002806D0FFE7052035
:102070000007102100F0D9FC05E005200007102121
:1020800000F0A4FCFFE7A048C17903A8405C002849
:1020900006D0FFE705200007402100F0C6FC05E060
:1020A00005200007402100F091FCFFE797480179E7
:1020B00003A8405C002806D0FFE7052000070221A6
:1020C00000F0B3FC05E005200007022100F07EFCD3
:1020D000FFE78E48417903A8405C002806D0FFE75F
:1020E00005200007082100F0A0FC05E005200007FE
:1020F000082100F06BFCFFE78448817903A8405C6D
:10210000002806D0FFE705200007202100F08DFC05
:1021100005E005200007202100F058FCFFE77B4880
:10212000C17903A8405C002806D0FFE7052000071E
:10213000802100F07AFC05E005200007802100F0F6
:1021400045FCFFE76F48022100F040FCFFE76C48C8
:102150000088022800D0B4E06A480090012100F015
:1021600064FC0098022100F060FC0098042100F05B
:102170005CFC6548017A03A8405C002806D0FFE7B4
:1021800005200007012100F050FC05E005200007B4
:10219000012100F01BFCFFE75B48417A03A8405C8B
:1021A000002806D0FFE705200007042100F03DFCD1
:1021B00005E005200007042100F008FCFFE7524875
:1021C000817A03A8405C002806D0FFE705200007BD
:1021D000102100F02AFC05E005200007102100F086
:1021E000F5FBFFE74848C17A03A8405C002811D0FE
:1021F000FFE705200007402100F017FC10E0C04673
:10220000E40000208A0000208C0000200004005020
:102210007E00002005200007402100F0D7FBFFE7EB
:102220003A48017A03A8405C002806D0FFE7052061
:102230000007022100F0F9FB05E00520000702215C
:1022400000F0C4FBFFE73148417A03A8405C002856
:1022500006D0FFE705200007082100F0E6FB05E0B7
:1022600005200007082100F0B1FBFFE72748817A2D
:1022700003A8405C002806D0FFE7052000072021C6
:1022800000F0D3FB05E005200007202100F09EFBB5
:10229000FFE71E48C17A03A8405C002806D0FFE78C
:1022A00005200007802100F0C0FB05E005200007A5
:1022B000802100F08BFBFFE71248042100F086FB31
:1022C000FFE70F480188491C01800088032804DBD0
:1022D000FFE70B4900200880FFE708480188491CF8
:1022E0000180008819210901884204DBFFE70349C6
:1022F00000200880FFE7FFE706B080BD8A000020CD
:102300008C000020000400507E000020700000209F
:1023100081B0009001B07047FFE7FEE781B0009008
:10232000009800688069022108404008002805D014
:10233000FFE70098016800208862FFE700980068C6
:102340008069C007002807D1FFE700980168886905
:10235000012210438861FFE701B0704780B58AB061
:1023600009900891079206A9002008700999096848
:102370008969059104900798039005A80078C00624
:10238000002800D484E0099801681020C861FFE7A4
:10239000099800688069202108404109002000292F
:1023A000009006D1FFE706A800784142484100901E
:1023B000FFE70098C007002858D0FFE70898401CA6
:1023C000002852D0FFE7FEF793F90399401A0899C5
:1023D000884204D8FFE70898002845D1FFE709980C
:1023E0000068406801218903084002900998422151
:1023F000405C01A9087009980068806980B2C00B30
:10240000002816D0FFE7029801218903884210D0E6
:10241000FFE701A8007820280BD0FFE709980168A2
:1024200048680122920310434860FEF761F9039067
:10243000FFE7FFE70998006880692021084040090C
:10244000002810D1FFE7FEF753F90399401A1A2824
:1024500008D3FFE7049820210843049006A901202F
:10246000087000E0E6E7FFE7FFE791E706A80078DD
:10247000002805D1FFE7099801682020C861FFE71F
:10248000049804210843049006A901200870FFE77E
:10249000099800688069059005A84078C007002861
:1024A0000BD0FFE7049901200143049109990A68C0
:1024B0000102D16106A90870FFE705A8407840072E
:1024C00000280CD5FFE704980821084304900998D8
:1024D000026801208102D16106A90870FFE705A802
:1024E0004078800700280CD5FFE7049802210843B4
:1024F00004900998026801204102D16106A9087080
:10250000FFE706A8007800281DD0FFE70998FFF72D
:1025100005FF099801684868AA4A10404860049A73
:102520000999486C10434864099941222020885435
:102530000999422200208854FFE70999402200208F
:102540008854FFE7FFE706A800780AB080BDC046C0
:1025500010B585B0079C049003A8018002A90A70F9
:10256000019300880D4A1040097809044018019928
:102570000843079908430121C9078843009004983C
:10258000006840680799490D88430549084000994B
:10259000084304990968486005B010BDFF030000B6
:1025A000009C00FC10B586B0089C0490039102A822
:1025B00002700193FFE7049800688069039908405E
:1025C000401A4142484102A90978884243D1FFE7B5
:1025D00004980199089AFFF7C1FE002804D0FFE78C
:1025E00005A9012008703AE00198401C002831D06C
:1025F000FFE7FEF77DF80899401A0199884204D850
:10260000FFE70198002824D1FFE70498006880695B
:1026100003990840401A4142484102A9097888427A
:1026200016D1FFE7049A516C2020014351640499AC
:10263000412288540499422200208854FFE70499DB
:10264000402200208854FFE705A90120087006E019
:10265000FFE7FFE7AFE705A900200870FFE705A83F
:10266000007806B010BD000080B586B005900491DA
:10267000039202A900200870FFE7059800688069AE
:1026800004210840810800200029019006D1FFE7BD
:1026900002A80078414248410190FFE70198C00735
:1026A000002800D189E005980499039AFFF756FEA7
:1026B000002804D0FFE702A901200870FFE7059871
:1026C00000688069202108404009012847D1FFE7C0
:1026D00002A80078002842D1FFE7059800688069C9
:1026E000042108408008012809D1FFE70598008DE2
:1026F000002804D0FFE702A900200870FFE7059832
:1027000000688069102108400009012822D1FFE7F4
:10271000059801681020C86105990420486405984F
:1027200001682020C86105990A685168254B194045
:10273000516005994122885405994222002088540D
:10274000FFE70599402200208854FFE702A90120F5
:10275000087003E0059900204864FFE7FFE7FDF7F4
:10276000C7FF0399401A0499884204D8FFE70498E8
:10277000002821D1FFE702A8007800281CD1FFE73C
:10278000059800688069042108408008002812D15B
:10279000FFE7059A516C20200143516405994122BD
:1027A0008854FFE70599402200208854FFE702A9DA
:1027B00001200870FFE7FFE75FE702A8007806B096
:1027C00080BDC04600E800FE80B584B00290019153
:1027D0000092FFE7029800688069202108404009C4
:1027E000002839D1FFE702980199009AFFF7B6FD5A
:1027F000002804D0FFE703A90120087030E0FDF7AE
:1028000077FF0099401A0199884204D8FFE70198A0
:10281000002820D1FFE70298006880692021084045
:102820004009002816D1FFE7029A516C202001438D
:10283000516402994122885402994222002088540E
:10284000FFE70299402200208854FFE703A90120F6
:10285000087005E0FFE7BDE703A900200870FFE767
:1028600003A8007804B080BD80B584B002900191C7
:102870000092FFE702980068806902210840400842
:1028800000283FD1FFE702980199009AFFF766FD03
:10289000002804D0FFE703A90120087036E0019862
:1028A000401C00282DD0FFE7FDF722FF0099401AB9
:1028B0000199884204D8FFE70198002820D1FFE75A
:1028C000029800688069022108404008002816D15B
:1028D000FFE7029A516C2020014351640299412282
:1028E00088540299422200208854FFE7029940222E
:1028F00000208854FFE703A90120087006E0FFE7E5
:10290000FFE7B7E703A900200870FFE703A80078F6
:1029100004B080BD80B584B0039002910020019086
:10292000FFE7029800680199C84000284BD0FFE7F4
:1029300002980068019A0121914008400090009897
:1029400000283CD0FFE702984068012805D0FFE747
:102950000298406802280DD1FFE703980099029A77
:10296000926800F0A5F803980099029AD26800F0E6
:102970007EF8FFE703980099029A126900F086F842
:1029800002984068022813D1FFE70098FF2807D873
:10299000FFE703980099029A526900F01FF806E0D9
:1029A00003980099029A526900F02BF8FFE7FFE7BD
:1029B00003980099029A526800F047F8FFE70198DF
:1029C000401C0190ADE7002004B080BD82B00190B2
:1029D000009100980199886202B0704783B002901C
:1029E000019100920298006A019A524352430F21CA
:1029F000514388430099514308430299086203B048
:102A0000704783B00290019100920298406A019948
:102A10000A0A524352430F215143884300995143BC
:102A200008430299486203B0704782B00190009158
:102A300000980199886102B0704782B001900091BE
:102A400000980199886102B0704783B002900191AB
:102A5000009202980068019A52430321514388432F
:102A60000099514308430299086003B0704783B04E
:102A700002900191009202984068019A9043009957
:102A8000514308430299486003B0704783B00290F5
:102A9000019100920298C068019A52430321514368
:102AA00088430099514308430299C86003B07047B6
:102AB00083B002900191009202988068019A52437B
:102AC0000321514388430099514308430299886088
:102AD00003B0704782B00190019A05480168114324
:102AE00001600068019908400090009802B07047AA
:102AF00034100240F0B58FB0002006900E900D907B
:102B00000C900B900A90099001242046FFF7E2FFF9
:102B100002263046FFF7DEFF05200007049021461D
:102B2000FFF78BFF04983146FFF787FF04980425D1
:102B30002946FFF782FF049808210091FFF77DFFE7
:102B4000049810210191FFF778FF04982021029149
:102B5000FFF773FF049840210391FFF76EFF04987D
:102B600080273946FFF769FF464808902146FFF75E
:102B700064FF08983146FFF760FF08982946FFF781
:102B80005CFF0498069909940A94032205920B921B
:102B90000C910D9109A90791FFF7BCFE059B069AC0
:102BA0000799049809960A940B930C920D92FFF7DB
:102BB000B1FE059B069A0799049809950A940B9310
:102BC0000C920D92FFF7A6FE059B069A00980799B6
:102BD000099004980A940B930C920D92FFF79AFEB9
:102BE000059B069A01980799099004980A940B93FB
:102BF0000C920D92FFF78EFE059B069A029807999C
:102C0000099004980A940B930C920D92FFF782FEA0
:102C1000059B069A03980799099004980A940B93C8
:102C20000C920D92FFF776FE059B069A0498079981
:102C300009970A940B930C920D92FFF76BFE059B7C
:102C4000069A0799089809940A940B930C920D928E
:102C5000FFF760FE059B069A0799089809960A9463
:102C60000B930C920D92FFF755FE059B069A079960
:102C7000089809950A940B930C920D92FFF74AFE5F
:102C80000FB0F0BD0004005080B582B04F480190F5
:102C90001549016015494160002181600122C2602F
:102CA000016141618161C1610162FDF7C3FD0028DD
:102CB00003D0FFE7FDF78BFBFFE744480021FDF75A
:102CC0001DFD002803D0FFE7FDF781FBFFE73F482C
:102CD0000021FDF75EFD002803D0FFE7FDF777FB3D
:102CE000FFE702B080BDC04600580040B57DB1107E
:102CF00080B582B00B4801900B4901600B494160DF
:102D0000002181603122C2600161416180218161C5
:102D1000FEF774FE002803D0FFE7FDF758FBFFE73E
:102D200002B080BDE400002000480140FF18000010
:102D3000FFE7FEE710B58CB00193044601980BAB9A
:102D40001C800AAC218009A90A80089018880322F7
:102D50001040188020881040208008881A4A1040AF
:102D6000088008888008088007AA04230493137049
:102D70000B98800024886408001950700A98C001DC
:102D8000497840183C3090700998D070FF24009426
:102D90000E48029072210391FDF7DCFE06A9059111
:102DA00008800120FDF71AFB02980399049B089AFA
:102DB0000094FDF7CFFD0246059806991143018066
:102DC00000880CB010BDC046FF0F0000900000202E
:102DD00080B58CB000220AAB059310461146FFF770
:102DE000A9FF0598007887281DD0FFE70AA840783A
:102DF000492818D0FFE70AA84078482813D0FFE7F1
:102E00000AA8407847280ED0FFE70AA8407825286E
:102E100009D0FFE70AA84078242804D0FFE70BA9CF
:102E20000120088057E10AA840782438049025281A
:102E300064D80498810001A040588746F52E000808
:102E4000ED2E0008FD2E0008FD2E0008FD2E0008C6
:102E5000FD2E0008FD2E0008FD2E0008FD2E0008A6
:102E6000FD2E0008FD2E0008FD2E0008FD2E000896
:102E7000FD2E0008FD2E0008FD2E0008FD2E000886
:102E8000FD2E0008FD2E0008FD2E0008FD2E000876
:102E9000FD2E0008FD2E0008FD2E0008FD2E000866
:102EA000FD2E0008FD2E0008FD2E0008FD2E000856
:102EB000FD2E0008FD2E0008FD2E0008FD2E000846
:102EC000FD2E0008FD2E0008E52E0008DD2E00086E
:102ED000D52E000882498748088013E0804984483D
:102EE00008800FE07E49814808800BE07C497E48DD
:102EF000088007E07A497B48088003E07849002091
:102F00000880FFE703200202002109AB0393084673
:102F1000FFF710FF0399C8780722104008AA107025
:102F2000C8788006400F07AA1070C8788009897891
:102F3000C907490F401806A90870694800886A49FE
:102F4000884206D0FFE7664800886649884204D177
:102F5000FFE706A900200870FFE708A80078401ED8
:102F60000290032837D80298810001A04058874674
:102F7000812F0008972F0008AD2F0008C32F0008ED
:102F80005D49012008705D49002008705C490870A7
:102F90005C4908701FE058490120087057490870C3
:102FA0005749002008705749087014E05249012021
:102FB0000870524908705249087052490020087040
:102FC00009E04D49012008704C4908704C490870CF
:102FD0004C490870FFE707A80078401E01900328BD
:102FE00037D80198810001A040588746FD2F00087E
:102FF00013300008293000083F3000084249012002
:103000000870424900200870414908704149087021
:103010001FE03D49012008703C4908703C490020F0
:1030200008703C49087014E037490120087037499E
:1030300008703749087037490020087009E03249A4
:103040000120087031490870314908703149087011
:10305000FFE706A80078401E0090032837D80098A4
:10306000810001A040588746793000088F30000861
:10307000A5300008BB300008274901200870274907
:103080000020087026490870264908701FE0224970
:103090000120087021490870214900200870214949
:1030A000087014E01C49012008701C4908701C4974
:1030B00008701C490020087009E0174901200870B9
:1030C000164908701649087016490870FFE70BA9E1
:1030D00000200880FFE70BA800880CB080BDC04628
:1030E0007C0000202487000025870000478700001F
:1030F0004887000049870000300100203A01002085
:10310000440100204E0100205801002062010020EF
:103110006C01002076010020800100208A0100203F
:10312000940100209E01002010B590B00B4601468E
:103130000EA801800DA90B800C920088098800223E
:103140000BAB0493FFF7F6FD0498007887281DD099
:10315000FFE70BA84078492818D0FFE70BA8407874
:10316000482813D0FFE70BA8407847280ED0FFE788
:103170000BA84078252809D0FFE70BA84078242821
:1031800004D0FFE70FA9012008804CE00EA80190B1
:1031900000880DA90091098878220AAB0293FFF7F5
:1031A000C9FD0099019800880988742209AB03932E
:1031B000FFF7C0FD0299039B48780F22104007AC2F
:1031C00020704878000909788907890E411808A8F5
:1031D0000170D978114005AA1170D97809099B7836
:1031E0009B079B0ECB1806A90B7012780C9BDA80FC
:1031F00009780C9A11810078002804D1FFE70C9916
:103200000020487003E00C9901204870FFE707A8F0
:1032100000780C99488008A800780C9988800FA93C
:1032200000200880FFE70FA8008810B010BDB0B5DF
:103230008CB00A4601460AA8018009A90A800088C4
:103240000988002208AB0593FFF774FD0598007804
:1032500087281DD0FFE708A84078492818D0FFE745
:1032600008A84078482813D0FFE708A840784728E6
:103270000ED0FFE708A84078252809D0FFE708A866
:103280004078242804D0FFE70BA9012008801BE028
:103290000AA80490008809A901910988782202925D
:1032A00007AB0393FFF746FD0199029A039B04982D
:1032B000DC7820252C43DC700088098800F008F8B1
:1032C0000BA900200880FFE70BA800880CB0B0BD58
:1032D00010B58CB0039302920A46029903460398F4
:1032E0000BAC23800AAB1A8009AA118008902088B1
:1032F00003210840208018880840188010881C4C42
:103300002040108010888008108007A801700B9959
:1033100089001B885B08C91841700A99C901527855
:1033200089183C3181700999C170079905AA1170FB
:103330004178517081789170C078D0700898007889
:1033400010710898407850710898807890710898AA
:10335000C078D071FF200090064872210823FDF745
:10336000F9FB014604A8018000880CB010BDC046DE
:10337000FF0F0000900000207047704780B584B0B8
:1033800002900298401E000E002803D0FFE70120A3
:10339000039011E00298401E094908600020019046
:1033A000C043032100F0F4F8019806490860064A7A
:1033B000072111600390FFE7039804B080BDC04669
:1033C00014E000E018E000E010E000E080B5FDF758
:1033D0001DFD80BD10B594B007A802903421FCF704
:1033E00009FF0020009006900590049003900120B2
:1033F00001904002FDF7A6FD009A01990298022370
:1034000007930C020A940B9240240C940E930F9392
:103410001092082211924A04129249071391FDF763
:103420008BFF002803D0FFE7FCF7D1FFFFE7072061
:1034300003900221049100200590069003A8FDF757
:10344000BFFD002803D0FFE7FCF7C1FFFFE714B082
:1034500010BD704780B50248FEF7A0FB80BDC04696
:10346000E400002083B0029001910298006800906F
:1034700002983749884205D0FFE7029835498842CB
:103480000AD1FFE7009870218843009001984168B5
:10349000009808430090FFE702982D49884214D015
:1034A000FFE702982B4988420FD0FFE702982A498C
:1034B00088420AD0FFE702982849884205D0FFE7F2
:1034C0000298274988420BD1FFE70098032109029F
:1034D000884300900198C168009808430090FFE776
:1034E0000098802188430199496908430090009819
:1034F00002990860019880680299C8620198006882
:10350000029988620298124988420AD0FFE702981D
:103510001249884205D0FFE702981149884205D137
:10352000FFE70198006902990863FFE7029901200B
:10353000486102980069C007002806D0FFE7029999
:103540000869012290430861FFE703B07047C04655
:10355000002C0140000400400020004000440140D5
:103560000048014081B00146684601700021405684
:10357000002809D4FFE7684601781F200140012098
:10358000884002490860FFE701B0704700E100E0B1
:1035900070B582B0024601A8027000910021405629
:1035A000002816D4FFE7002401A908570322D343BB
:1035B0001840174A805809578C07E50EFF24AC4085
:1035C000A043009CA401E4B2AC40204319408850C1
:1035D0001AE001A908780F24204008380322D343B9
:1035E00018400A4A8058002549578D07EE0EFF25DE
:1035F000B540A843009DAD01EDB2B5402843214040
:10360000083919408850FFE702B070BD1CED00E09A
:1036100000E400E080B584B0002001900390FDF745
:10362000FFFBFFF7D7FEFFF765FAFFF72DFBFFF76C
:103630005FFBFB48FEF75EFA019802A90880FFE7EE
:1036400002A800880B280BDCFFE702A80288F549D6
:1036500001208854FFE70298401C02A90880EFE788
:10366000C820FCF7BBFE02A900200880FFE702A8E3
:103670000088092816DCFFE7FFF7AAFB002801D124
:10368000FFE70FE03220FCF7A9FEFFE702A8008861
:10369000092801D1FFE7F9E7FFE70298401C02A9DA
:1036A0000880E4E702A900200880FFE702A800885C
:1036B0000B280BDCFFE702A80288DA4900208854B7
:1036C000FFE70298401C02A90880EFE7D64800787F
:1036D000002804D0FFE7D54901200870FFE7D4484F
:1036E0000078002804D0FFE7D04901204870FFE7A8
:1036F000D0480078002804D0FFE7CC49012088702A
:10370000FFE7CD480078002804D0FFE7C749012033
:10371000C870FFE7C9480078002804D0FFE7C34914
:1037200001200871FFE7C6480078002804D0FFE7B1
:10373000BE4901204871FFE7C2480078002804D044
:10374000FFE7BA4901208871FFE7BF4800780028E9
:1037500004D0FFE7B5490120C871FFE7BB480078F6
:10376000002804D0FFE7B14901200872FFE7B848FC
:103770000078002804D0FFE7AC4901204872FFE739
:10378000B4480078002804D0FFE7A84901208872D7
:10379000FFE7B1480078002804D0FFE7A3490120E3
:1037A000C872FFE77D208000FCF718FE02A9002008
:1037B0000880FFE702A800880B280BDCFFE702A8BF
:1037C00002889A4900208854FFE70298401C02A909
:1037D0000880EFE7FFE794480078002806D0FFE76D
:1037E000914A00210846FFF79FFCFFE790480078C8
:1037F000002806D0FFE78E4A00200121FFF794FC45
:10380000FFE78C480078002806D0FFE7894A0020AF
:103810000221FFF789FCFFE787480078002806D0DF
:10382000FFE7854A00200321FFF77EFCFFE783487E
:103830000078002806D0FFE7804A01200021FFF72A
:1038400073FCFFE77E480078002806D0FFE77C4A3B
:1038500001210846FFF768FCFFE77A480078002856
:1038600006D0FFE7774A01200221FFF75DFCFFE762
:1038700075480078002806D0FFE7734A012003212D
:10388000FFF752FCFFE771480078002806D0FFE7F9
:103890006E4A02200021FFF747FCFFE76C480078E2
:1038A000002806D0FFE76A4A02200121FFF73CFC0E
:1038B000FFE768480078002806D0FFE7654A022144
:1038C0000846FFF731FCFFE763480078002806D080
:1038D000FFE7614A02200321FFF726FCFFE7524879
:1038E000407800280AD0FFE74F484088012805D1DA
:1038F000FFE700210846FFF79AFCFFE74C484078B5
:1039000000280AD0FFE74A484088012805D1FFE790
:1039100000200121FFF78BFCFFE746484078002894
:103920000AD0FFE743484088012805D1FFE700207F
:103930000221FFF77CFCFFE73F48407800280AD0CF
:10394000FFE73D484088012805D1FFE7002003211B
:10395000FFF76DFCFFE73948407800280AD0FFE701
:1039600036484088012805D1FFE701200021FFF7F4
:103970005EFCFFE73248407800280AD0FFE7304875
:103980004088012805D1FFE701210846FFF74FFCD9
:10399000FFE72C48407800280AD0FFE729484088F4
:1039A000012805D1FFE701200221FFF740FCFFE7D6
:1039B0002548407800280AD0FFE72348408801289E
:1039C00005D1FFE701200321FFF731FCFFE71F4886
:1039D000407800280AD0FFE71C484088012805D11C
:1039E000FFE702200021FFF722FCFFE7184840789C
:1039F00000280AD0FFE716484088012805D1FFE7D4
:103A000002200121FFF713FCFFE71248407800284D
:103A100029D0FFE70F484088012824D11EE0C04686
:103A2000E40000207E000020300100207000002013
:103A30003A010020440100204E01002058010020DE
:103A4000620100206C01002076010020800100202E
:103A50008A010020940100209E01002002210846D6
:103A6000FFF7E5FBFFE7FE48407800280AD0FFE7B4
:103A7000FB484088012805D1FFE702200321FFF71A
:103A8000D6FBFFE7F7480088F74988420DD0FFE7EB
:103A9000F4480088F549884207D0FFE7F1480088DC
:103AA000F349884201D000F0C7FDF2484078002871
:103AB0006DD0FFE7EF484088C00700282CD0FFE713
:103AC000EC4988880989884204D1FFE7EA49012046
:103AD0000870FFE7E74908898988FCF78DFB022811
:103AE00004DBFFE7E44902200870FFE7E1490889A9
:103AF0008988FCF781FB042804DBFFE7DE4903200B
:103B00000870FFE7DB488088012804D1FFE7DA4925
:103B100004200870FFE703E0D74900200870FFE7A2
:103B2000D4484088800700282CD5FFE7D1498888F1
:103B30000989884204D1FFE7D04901200870FFE7D6
:103B4000CC4908898988FCF757FB022804DBFFE78A
:103B5000CA4902200870FFE7C64908898988FCF72E
:103B60004BFB042804DBFFE7C44903200870FFE790
:103B7000C0488088012804D1FFE7C04904200870AC
:103B8000FFE703E0BD4900200870FFE705E0BA4900
:103B900000200870B9490870FFE7B948407800284C
:103BA0006DD0FFE7B6484088C00700282CD0FFE75B
:103BB000B34988880989884204D1FFE7AE490120CA
:103BC0004870FFE7AE4908898988FCF715FB022891
:103BD00004DBFFE7A84902204870FFE7A8490889ED
:103BE0008988FCF709FB042804DBFFE7A2490320CE
:103BF0004870FFE7A2488088012804D1FFE79E496A
:103C000004204870FFE703E09B4900204870FFE76D
:103C10009B484088800700282CD5FFE79849888872
:103C20000989884204D1FFE7944901204870FFE7E1
:103C3000934908898988FCF7DFFA022804DBFFE74B
:103C40008E4902204870FFE78D4908898988FCF772
:103C5000D3FA042804DBFFE7884903204870FFE714
:103C600087488088012804D1FFE7844904204870F0
:103C7000FFE703E0814900204870FFE705E07E4947
:103C8000002048707D494870FFE77E484078002852
:103C90006DD0FFE77B484088C00700282CD0FFE7A5
:103CA000784988880989884204D1FFE77249012050
:103CB0008870FFE7734908898988FCF79DFA022814
:103CC00004DBFFE76C4902208870FFE76D49088933
:103CD0008988FCF791FA042804DBFFE76649032092
:103CE0008870FFE767488088012804D1FFE76249B0
:103CF00004208870FFE703E05F4900208870FFE739
:103D000060484088800700282CD5FFE75D498888F7
:103D10000989884204D1FFE7584901208870FFE7EC
:103D2000584908898988FCF767FA022804DBFFE70D
:103D3000524902208870FFE7524908898988FCF7B8
:103D40005BFA042804DBFFE74C4903208870FFE797
:103D50004C488088012804D1FFE748490420887036
:103D6000FFE703E0454900208870FFE705E042498E
:103D70000020087041498870FFE7434840780028D8
:103D800000D183E040484088C00700282CD0FFE7DE
:103D90003D4988880989884204D1FFE736490120D6
:103DA000C870FFE7384908898988FCF725FA022896
:103DB00004DBFFE730490220C870FFE73249088979
:103DC0008988FCF719FA042804DBFFE72A49032055
:103DD000C870FFE72C488088012804D1FFE72649F6
:103DE0000420C870FFE703E023490020C870FFE704
:103DF00025484088800700282CD5FFE7224988887D
:103E00000989884204D1FFE71C490120C870FFE7F7
:103E10001D4908898988FCF7EFF9022804DBFFE7D0
:103E200016490220C870FFE7174908898988FCF7FE
:103E3000E3F9042804DBFFE710490320C870FFE71B
:103E400011488088012804D1FFE70C490420C8707C
:103E5000FFE703E009490020C870FFE71CE0C04607
:103E60009E0100207C000020498700004887000058
:103E700047870000300100207E00002070000020F5
:103E80003A010020440100204E010020FB4900209F
:103E9000C870FB49C870FFE7FA48407800286DD029
:103EA000FFE7F8484088C00700282CD0FFE7F54915
:103EB00088880989884204D1FFE7F0490120087108
:103EC000FFE7F04908898988FCF796F9022804DBA6
:103ED000FFE7EA4902200871FFE7EA490889898873
:103EE000FCF78AF9042804DBFFE7E44903200871A2
:103EF000FFE7E4488088012804D1FFE7DF49042078
:103F00000871FFE703E0DD4900200871FFE7DD48A5
:103F10004088800700282CD5FFE7DA49888809897E
:103F2000884204D1FFE7D64901200871FFE7D5494F
:103F300008898988FCF760F9022804DBFFE7D0498B
:103F400002200871FFE7CF4908898988FCF754F9F6
:103F5000042804DBFFE7CA4903200871FFE7C948CA
:103F60008088012804D1FFE7C54904200871FFE7D4
:103F700003E0C34900200871FFE705E0BF490020C6
:103F80000871BF490871FFE7BF48407800286DD02D
:103F9000FFE7BD484088C00700282CD0FFE7BA499A
:103FA00088880989884204D1FFE7B4490120487113
:103FB000FFE7B54908898988FCF71EF9022804DB68
:103FC000FFE7AE4902204871FFE7AF4908898988B9
:103FD000FCF712F9042804DBFFE7A8490320487125
:103FE000FFE7A9488088012804D1FFE7A3490420FE
:103FF0004871FFE703E0A14900204871FFE7A248AC
:104000004088800700282CD5FFE79F4988880989C8
:10401000884204D1FFE79A4901204871FFE79A4995
:1040200008898988FCF7E8F8022804DBFFE794494F
:1040300002204871FFE7944908898988FCF7DCF879
:10404000042804DBFFE78E4903204871FFE78E4810
:104050008088012804D1FFE7894904204871FFE7DF
:1040600003E0874900204871FFE705E0834900200D
:10407000487183494871FFE78448407800286DD033
:10408000FFE782484088C00700282CD0FFE77F491F
:1040900088880989884204D1FFE77849012088711E
:1040A000FFE77A4908898988FCF7A6F8022804DB2B
:1040B000FFE7724902208871FFE7744908898988FF
:1040C000FCF79AF8042804DBFFE76C4903208871A9
:1040D000FFE76E488088012804D1FFE76749042084
:1040E0008871FFE703E0654900208871FFE76748B2
:1040F0004088800700282CD5FFE764498888098913
:10410000884204D1FFE75E4901208871FFE75F49DB
:1041100008898988FCF770F8022804DBFFE7584912
:1041200002208871FFE7594908898988FCF764F8FB
:10413000042804DBFFE7524903208871FFE7534856
:104140008088012804D1FFE74D4904208871FFE7EA
:1041500003E04B4900208871FFE705E04749002054
:10416000887147498871FFE74948407800286DD039
:10417000FFE747484088C00700282CD0FFE74449A4
:1041800088880989884204D1FFE73C490120C87129
:10419000FFE73F4908898988FCF72EF8022804DBED
:1041A000FFE736490220C871FFE739490889898845
:1041B000FCF722F8042804DBFFE730490320C8712C
:1041C000FFE733488088012804D1FFE72B4904200A
:1041D000C871FFE703E029490020C871FFE72C48B8
:1041E0004088800700282CD5FFE72949888809895D
:1041F000884204D1FFE722490120C871FFE7244922
:1042000008898988FBF7F8FF022804DBFFE71C49CF
:104210000220C871FFE71E4908898988FBF7ECFF77
:10422000042804DBFFE716490320C871FFE718489C
:104230008088012804D1FFE711490420C871FFE7F5
:1042400003E00F490020C871FFE705E00B4900209B
:10425000C8710B49C871FFE70E48407800287CD030
:10426000FFE70C484088C00700283BD0FFE709491A
:1042700088880989884213D10EE0C0467E0000205C
:104280007000002058010020620100206C01002015
:104290007601002080010020FC4901200872FFE720
:1042A000FB4908898988FBF7A7FF022804DBFFE7A1
:1042B000F64902200872FFE7F54908898988FBF76B
:1042C0009BFF042804DBFFE7F04903200872FFE7A7
:1042D000EF488088012804D1FFE7EC4904200872E8
:1042E000FFE703E0E94900200872FFE7E84840885B
:1042F000800700282CD5FFE7E5498888098988428E
:1043000004D1FFE7E34901200872FFE7E04908898B
:104310008988FBF771FF022804DBFFE7DD490220F3
:104320000872FFE7DA4908898988FBF765FF0428E6
:1043300004DBFFE7D74903200872FFE7D4488088F1
:10434000012804D1FFE7D34904200872FFE703E006
:10435000D04900200872FFE705E0CC490020087230
:10436000CC490872FFE7CC48407800286DD0FFE7C1
:10437000C9484088C00700282CD0FFE7C649888874
:104380000989884204D1FFE7C04901204872FFE74C
:10439000C14908898988FBF72FFF022804DBFFE762
:1043A000BA4902204872FFE7BB4908898988FBF7B0
:1043B00023FF042804DBFFE7B44903204872FFE72A
:1043C000B5488088012804D1FFE7B049042048722D
:1043D000FFE703E0AD4900204872FFE7AE484088A0
:1043E000800700282CD5FFE7AB49888809898842D7
:1043F00004D1FFE7A74901204872FFE7A6490889D1
:104400008988FBF7F9FE022804DBFFE7A1490220B7
:104410004872FFE7A04908898988FBF7EDFE042868
:1044200004DBFFE79B4903204872FFE79A48808836
:10443000012804D1FFE7974904204872FFE703E011
:10444000944900204872FFE705E090490020487237
:1044500090494872FFE79148407800286DD0FFE707
:104460008E484088C00700282CD0FFE78B498888F9
:104470000989884204D1FFE7844901208872FFE757
:10448000864908898988FBF7B7FE022804DBFFE725
:104490007E4902208872FFE7804908898988FBF7F6
:1044A000ABFE042804DBFFE7784903208872FFE7AE
:1044B0007A488088012804D1FFE774490420887273
:1044C000FFE703E0714900208872FFE773484088E6
:1044D000800700282CD5FFE7704988880989884221
:1044E00004D1FFE76B4901208872FFE76B49088917
:1044F0008988FBF781FE022804DBFFE7654902207B
:104500008872FFE7654908898988FBF775FE0428EA
:1045100004DBFFE75F4903208872FFE75F4880887C
:10452000012804D1FFE75B4904208872FFE703E01C
:10453000584900208872FFE705E05449002088723E
:1045400054498872FFE75648407800286DD0FFE74D
:1045500053484088C00700282CD0FFE7504988887E
:104560000989884204D1FFE7484901200872FFE722
:104570004B4908898988FBF73FFE022804DBFFE7E7
:10458000424902200872FFE7454908898988FBF7FC
:1045900033FE042804DBFFE73C4903200872FFE7F1
:1045A0003F488088012804D1FFE738490420087279
:1045B000FFE703E0354900200872FFE738484088EC
:1045C000800700282CD5FFE735498888098988426B
:1045D00004D1FFE72F490120C872FFE7304908895D
:1045E0008988FBF709FE022804DBFFE7294902203E
:1045F000C872FFE72A4908898988FBF7FDFD04286E
:1046000004DBFFE723490320C872FFE724488088C2
:10461000012804D1FFE71F490420C872FFE703E027
:104620001C490020C872FFE705E018490020087205
:104630001849C872FFE7FFE71A4800881A498842FC
:1046400006D0FFE7174800881849884200D0EDE2FD
:1046500017484078002800D181E015484088C007FD
:10466000002841D0FFE7124988880989884204D18F
:10467000FFE7064901200870FFE70D49088989888E
:10468000FBF7BAFD022819DB14E0C0467E000020CB
:1046900080010020700000208A0100209401002089
:1046A0009E0100207C000020258700002487000058
:1046B00030010020FC4902200870FFE7FB4908890F
:1046C0008988FBF799FD042804DBFFE7F6490320FE
:1046D0000870FFE7F5488088012804D1FFE7F24918
:1046E00004200870FFE703E0EF4900200870FFE7AF
:1046F000EE484088800700282CD5FFE7EB498888E2
:104700000989884204D1FFE7E94901200870FFE7E1
:10471000E64908898988FBF76FFD022804DBFFE77B
:10472000E34902200870FFE7E04908898988FBF720
:1047300063FD042804DBFFE7DD4903200870FFE781
:10474000DA488088012804D1FFE7D949042008709D
:10475000FFE703E0D64900200870FFE705E0D249F3
:1047600000200870D2490870FFE7D248407800283E
:104770006DD0FFE7CF484088C00700282CD0FFE766
:10478000CC4988880989884204D1FFE7C6490120BD
:104790004870FFE7C74908898988FBF72DFD022883
:1047A00004DBFFE7C04902204870FFE7C1490889E0
:1047B0008988FBF721FD042804DBFFE7BA490320C1
:1047C0004870FFE7BB488088012804D1FFE7B6495D
:1047D00004204870FFE703E0B34900204870FFE77A
:1047E000B4484088800700282CD5FFE7B149888865
:1047F0000989884204D1FFE7AD4901204870FFE7ED
:10480000AC4908898988FBF7F7FC022804DBFFE73D
:10481000A74902204870FFE7A64908898988FBF765
:10482000EBFC042804DBFFE7A14903204870FFE705
:10483000A0488088012804D1FFE79D4904204870E2
:10484000FFE703E0FC4900204870FFE705E09649D8
:1048500000204870F8494870FFE7F8484078002881
:104860006DD0FFE7F5484088C00700282CD0FFE74F
:10487000F24988880989884204D1FFE7F349012079
:104880008870FFE7ED4908898988FBF7B5FC0228A5
:1048900004DBFFE7ED4902208870FFE7E74908895C
:1048A0008988FBF7A9FC042804DBFFE7E74903201C
:1048B0008870FFE7E1488088012804D1FFE7E349D9
:1048C00004208870FFE703E0E04900208870FFE7DC
:1048D000DA484088800700282CD5FFE7D749888828
:1048E0000989884204D1FFE7D34901208870FFE796
:1048F000D24908898988FBF77FFC022804DBFFE79F
:10490000CD4902208870FFE7CC4908898988FBF7E8
:1049100073FC042804DBFFE7C74903208870FFE726
:10492000C6488088012804D1FFE7C3490420887065
:10493000FFE703E0C04900208870FFE705E0C349B6
:1049400000208870BC498870FFE7BD484078002887
:104950006DD0FFE7BA484088C00700282CD0FFE799
:10496000B74988880989884204D1FFE7B7490120FF
:10497000C870FFE7B24908898988FBF73DFC022827
:1049800004DBFFE7B1490220C870FFE7AC490889A2
:104990008988FBF731FC042804DBFFE7AB490320DF
:1049A000C870FFE7A6488088012804D1FFE7A7491F
:1049B0000420C870FFE703E0A4490020C870FFE7A7
:1049C0009F484088800700282CD5FFE79C498888AD
:1049D0000989884204D1FFE797490120C870FFE7A1
:1049E000974908898988FBF707FC022804DBFFE761
:1049F00091490220C870FFE7914908898988FBF72F
:104A0000FBFB042804DBFFE78B490320C870FFE7AA
:104A10008B488088012804D1FFE787490420C870AB
:104A2000FFE703E084490020C870FFE705E08749FD
:104A30000020C8708049C870FFE78248407800288D
:104A400075D0FFE77F484088C007002834D0FFE7D3
:104A50007C4988880989884204D1FFE77B49012085
:104A60004871FFE7774908898988FBF7C5FB022869
:104A700004DBFFE7754902204871FFE771490889A7
:104A80008988FBF7B9FB042804DBFFE76F490320A3
:104A90004871FFE76B488088012804D1FFE76B4924
:104AA00004204871FFE70BE07E0000203001002069
:104AB000700000203A010020644900204871FFE79F
:104AC00060484088800700282CD5FFE75D4988882A
:104AD0000989884204D1FFE7574901204871FFE75F
:104AE000584908898988FBF787FB022804DBFFE720
:104AF000514902204871FFE7524908898988FBF72C
:104B00007BFB042804DBFFE74B4903204871FFE7E8
:104B10004C488088012804D1FFE7474904204871A8
:104B2000FFE703E0444900204871FFE705E04749FB
:104B30000020487140494871FFE743484078002809
:104B40006DD0FFE740484088C00700282CD0FFE721
:104B50003D4988880989884204D1FFE73B49012003
:104B60008871FFE7384908898988FBF745FB0228E7
:104B700004DBFFE7354902208871FFE732490889E5
:104B80008988FBF739FB042804DBFFE72F49032062
:104B90008871FFE72C488088012804D1FFE72B4962
:104BA00004208871FFE703E0284900208871FFE7AF
:104BB00025484088800700282CD5FFE722498888AF
:104BC0000989884204D1FFE71B4901208871FFE76A
:104BD0001D4908898988FBF70FFB022804DBFFE7E2
:104BE000154902208871FFE7174908898988FBF772
:104BF00003FB042804DBFFE70F4903208871FFE76C
:104C000011488088012804D1FFE70B4904208871EE
:104C1000FFE703E0084900208871FFE705E00B4942
:104C20000020887104498871FFE7FFE77D2080003C
:104C3000FBF7D4FBFEF7CFFD7000002044010020FD
:104C40004E010020620100206C0100207E00002047
:104C50000000000000000000000000000000000054
:104C60000000000000000000000000000000000044
:104C7000010000000200000003000000040000002A
:104C80000600000007000000080000000900000006
:104C9000B04C000800000020100000001C010008BB
:104CA000C04C000810000020A00700003C010008D4
:104CB0000024F400010000000400000000000000D7
:04000005080000C12E
:00000001FF
