:020000040800F2
:1000000000000220CDD400089DD200089FD2000835
:10001000A1D20008A3D20008A5D200080000000069
:10002000000000000000000000000000A18B00089C
:10003000A7D2000800000000318C00087585000878
:100040001DD500081DD500081DD500081DD50008C8
:100050001DD500081DD500081DD500081DD50008B8
:100060001DD500081DD500081DD500081DD50008A8
:100070001DD500081DD500081DD500081DD5000898
:100080001DD500081DD500081DD500081DD5000888
:100090001DD500081DD500081DD500081DD5000878
:1000A0001DD500081DD50008A9D200081DD50008DF
:1000B0001DD50008C5D200081DD500081DD50008B3
:1000C0001DD500081DD500081DD500081DD5000848
:1000D0001DD500081DD500081DD500081DD5000838
:1000E0001DD500081DD500081DD500081DD5000828
:1000F0001DD500081DD500081DD500081DD5000818
:100100001DD500081DD500081DD500081DD5000807
:100110001DD500081DD50008D1D200081DD5000846
:10012000F1D200081DD500081DD50008FDD2000839
:1001300009D300081DD500081DD500081DD50008ED
:100140001DD500081DD500081DD5000815D30008D1
:100150001DD5000821D300081DD500081DD50008B5
:100160001DD500081DD500081DD500081DD50008A7
:100170001DD500081DD500081DD500080000000091
:080180001DD500081DD5000883
:1001900010B5054C237833B9044B13B10448AFF3C1
:1001A00000800123237010BDD40200200000000055
:1001B00070FF000808B5034B1BB103490348AFF3B8
:1001C000008008BD00000000D802002070FF000879
:1001D00081F0004102E000BF83F0004330B54FEAF8
:1001E00041044FEA430594EA050F08BF90EA020F65
:1001F0001FBF54EA000C55EA020C7FEA645C7FEAF8
:10020000655C00F0E2804FEA5454D4EB5555B8BF1A
:100210006D420CDD2C4480EA020281EA030382EA8B
:10022000000083EA010180EA020281EA0303362D1D
:1002300088BF30BD11F0004F4FEA01314FF4801CF0
:100240004CEA113102D0404261EB410113F0004F02
:100250004FEA03334CEA133302D0524263EB4303B9
:1002600094EA050F00F0A780A4F10104D5F1200E57
:100270000DDB02FA0EFC22FA05F2801841F10001B2
:1002800003FA0EF2801843FA05F359410EE0A5F186
:1002900020050EF1200E012A03FA0EFC28BF4CF0B7
:1002A000020C43FA05F3C01851EBE37101F000456D
:1002B00007D54FF0000EDCF1000C7EEB00006EEB7A
:1002C0000101B1F5801F1BD3B1F5001F0CD3490804
:1002D0005FEA30004FEA3C0C04F101044FEA44525B
:1002E00012F5800F80F09A80BCF1004F08BF5FEAE2
:1002F000500C50F1000041EB045141EA050130BDC2
:100300005FEA4C0C404141EB0101013C28BFB1F5D3
:10031000801FE9D291F0000F04BF01460020B1FA1E
:1003200081F308BF2033A3F10B03B3F120020CDAF1
:100330000C3208DD02F1140CC2F10C0201FA0CF0CF
:1003400021FA02F10CE002F11402D8BFC2F1200C34
:1003500001FA02F120FA0CFCDCBF41EA0C019040EA
:10036000E41AA2BF01EB0451294330BD6FEA040433
:100370001F3C1CDA0C340EDC04F11404C4F120021E
:1003800020FA04F001FA02F340EA030021FA04F330
:1003900045EA030130BDC4F10C04C4F1200220FA87
:1003A00002F001FA04F340EA0300294630BD21FAC5
:1003B00004F0294630BD94F0000F83F4801306BF8B
:1003C00081F480110134013D4EE77FEA645C18BF7F
:1003D0007FEA655C29D094EA050F08BF90EA020F16
:1003E00005D054EA000C04BF1946104630BD91EA0E
:1003F000030F1EBF0021002030BD5FEA545C05D111
:100400004000494128BF41F0004130BD14F580044F
:100410003CBF01F5801130BD01F0004545F0FE41C3
:1004200041F470014FF0000030BD7FEA645C1ABFF8
:10043000194610467FEA655C1CBF0B46024650EA2F
:10044000013406BF52EA033591EA030F41F400215B
:1004500030BD00BF90F0000F04BF0021704730B5E1
:100460004FF4806404F132044FF000054FF00001B6
:1004700050E700BF90F0000F04BF0021704730B577
:100480004FF4806404F1320410F0004548BF40424C
:100490004FF000013EE700BF42004FEAE2014FEAA1
:1004A00031014FEA02701FBF12F07F4393F07F4F7C
:1004B00081F06051704732F07F4208BF704793F07F
:1004C0007F4F04BF41F40021704730B54FF4607492
:1004D00001F0004521F000411CE700BF50EA010295
:1004E00008BF704730B54FF000050AE050EA01023E
:1004F00008BF704730B511F0004502D5404261EBAE
:1005000041014FF4806404F132045FEA915C3FF4EE
:10051000D8AE4FF003025FEADC0C18BF03325FEA8B
:10052000DC0C18BF033202EBDC02C2F1200300FA3C
:1005300003FC20FA02F001FA03FE40EA0E0021FA61
:1005400002F11444BDE600BF70B54FF0FF0C4CF44F
:10055000E06C1CEA11541DBF1CEA135594EA0C0F01
:1005600095EA0C0F00F0DEF82C4481EA030621EA3C
:100570004C5123EA4C5350EA013518BF52EA033577
:1005800041F4801143F4801338D0A0FB02CE4FF029
:100590000005E1FB02E506F00042E0FB03E54FF059
:1005A0000006E1FB03569CF0000F18BF4EF0010E51
:1005B000A4F1FF04B6F5007F64F5407404D25FEA4D
:1005C0004E0E6D4146EB060642EAC62141EA555100
:1005D0004FEAC52040EA5E504FEACE2EB4F1FD0C42
:1005E00088BFBCF5E06F1ED8BEF1004F08BF5FEAC0
:1005F000500E50F1000041EB045170BD06F0004672
:1006000046EA010140EA020081EA0301B4EB5C041E
:10061000C2BFD4EB0C0541EA045170BD41F4801116
:100620004FF0000E013C00F3AB8014F1360FDEBF3B
:10063000002001F0004170BDC4F10004203C35DA17
:100640000C341BDC04F11404C4F1200500FA05F39A
:1006500020FA04F001FA05F240EA020001F000423B
:1006600021F0004110EBD37021FA04F642EB0601B1
:100670005EEA430E08BF20EAD37070BDC4F10C04DB
:10068000C4F1200500FA04F320FA05F001FA04F29F
:1006900040EA020001F0004110EBD37041F100018B
:1006A0005EEA430E08BF20EAD37070BDC4F1200596
:1006B00000FA05F24EEA020E20FA04F301FA05F2FE
:1006C00043EA020321FA04F001F0004121FA04F2A6
:1006D00020EA020000EBD3705EEA430E08BF20EA76
:1006E000D37070BD94F0000F0FD101F000464000B0
:1006F00041EB010111F4801F08BF013CF7D041EA32
:10070000060195F0000F18BF704703F00046520035
:1007100043EB030313F4801F08BF013DF7D043EA06
:100720000603704794EA0C0F0CEA135518BF95EABC
:100730000C0F0CD050EA410618BF52EA4306D1D143
:1007400081EA030101F000414FF0000070BD50EA62
:10075000410606BF1046194652EA430619D094EAEC
:100760000C0F02D150EA013613D195EA0C0F05D1D6
:1007700052EA03361CBF104619460AD181EA03012A
:1007800001F0004141F0FE4141F470014FF00000E2
:1007900070BD41F0FE4141F4780170BD70B54FF07D
:1007A000FF0C4CF4E06C1CEA11541DBF1CEA1355FD
:1007B00094EA0C0F95EA0C0F00F0A7F8A4EB0504DF
:1007C00081EA030E52EA03354FEA013100F08880D6
:1007D0004FEA03334FF0805545EA131343EA12639F
:1007E0004FEA022245EA111545EA10654FEA002654
:1007F0000EF000419D4208BF964244F1FD0404F50D
:10080000407402D25B084FEA3202B61A65EB030568
:100810005B084FEA32024FF480104FF4002CB6EB25
:10082000020E75EB030E22BFB61A754640EA0C00A5
:100830005B084FEA3202B6EB020E75EB030E22BFE5
:10084000B61A754640EA5C005B084FEA3202B6EB26
:10085000020E75EB030E22BFB61A754640EA9C00E5
:100860005B084FEA3202B6EB020E75EB030E22BFB5
:10087000B61A754640EADC0055EA060E18D04FEA73
:10088000051545EA16754FEA06164FEAC30343EA13
:1008900052734FEAC2025FEA1C1CC0D111F4801FE0
:1008A0000BD141EA00014FF000004FF0004CB6E7D9
:1008B00011F4801F04BF01430020B4F1FD0C88BF78
:1008C000BCF5E06F3FF6AFAEB5EB030C04BFB6EB83
:1008D000020C5FEA500C50F1000041EB045170BD76
:1008E0000EF0004E4EEA113114EB5C04C2BFD4EBA3
:1008F0000C0541EA045170BD41F480114FF0000E27
:10090000013C90E645EA060E8DE60CEA135594EAA2
:100910000C0F08BF95EA0C0F3FF43BAF94EA0C0FA5
:100920000AD150EA01347FF434AF95EA0C0F7FF41A
:1009300025AF104619462CE795EA0C0F06D152EA6E
:1009400003353FF4FDAE1046194622E750EA410652
:1009500018BF52EA43067FF4C5AE50EA41047FF463
:100960000DAF52EA43057FF4EBAE12E74FF0FF3CC8
:1009700006E000BF4FF0010C02E000BF4FF0010C99
:100980004DF804CD4FEA410C7FEA6C5C4FEA430C12
:1009900018BF7FEA6C5C1BD001B050EA410C0CBF61
:1009A00052EA430C91EA030F02BF90EA020F0020C3
:1009B000704710F1000F91EA030F58BF994208BF2A
:1009C00090422CBFD8176FEAE37040F001007047E7
:1009D0004FEA410C7FEA6C5C02D150EA013C07D13E
:1009E0004FEA430C7FEA6C5CD6D152EA033CD3D089
:1009F0005DF8040B704700BF8446104662468C4683
:100A00001946634600E000BF01B5FFF7B7FF0028B5
:100A100048BF10F1000F01BD4DF808EDFFF7F4FFDE
:100A20000CBF012000205DF808FB00BF4DF808ED69
:100A3000FFF7EAFF34BF012000205DF808FB00BF8C
:100A40004DF808EDFFF7E0FF94BF012000205DF8AE
:100A500008FB00BF4DF808EDFFF7CEFF94BF012063
:100A600000205DF808FB00BF4DF808EDFFF7C4FF5C
:100A700034BF012000205DF808FB00BF4FEA410CA5
:100A80007FEA6C5C02D150EA013C0AD14FEA430C88
:100A90007FEA6C5C02D152EA033C02D14FF00000C5
:100AA00070474FF0010070474FEA410212F5001203
:100AB00015D211D56FF47873B3EB625212D94FEAA5
:100AC000C12343F0004343EA505311F0004F23FA8F
:100AD00002F018BF404270474FF00000704750EAE4
:100AE000013005D111F0004008BF6FF000407047A1
:100AF0004FF00000704700BF4A0011D212F50012FB
:100B000011D20DD56FF47873B3EB62520ED44FEA65
:100B1000C12343F0004343EA505323FA02F07047E5
:100B20004FF00000704750EA013002D14FF0FF3023
:100B300070474FF00000704753B94AB9002908BF09
:100B400000281CBF4FF0FF314FF0FF3000F088B994
:100B5000ADF1080C6DE904CE00F006F8DDF804E014
:100B6000DDE9022304B070472DE9F047089D8E4669
:100B700004468846002B4AD18A42174662D9B2FA07
:100B800082F64EB1C6F1200301FA06F820FA03F30B
:100B9000B74043EA0808B4404FEA174E1FFA87FCF3
:100BA000B8FBFEF1230C0EFB118843EA084301FB5E
:100BB0000CF29A4209D9FB1801F1FF3080F0EA806B
:100BC0009A4240F2E78002393B449A1AA3B2B2FB40
:100BD000FEF00EFB102243EA024300FB0CFC9C4596
:100BE00009D9FB1800F1FF3280F0D6809C4540F215
:100BF000D3803B44023840EA0140A3EB0C030021C0
:100C00001DB1F3400022C5E90032BDE8F0878B42F8
:100C100005D90DB1C5E9000100210846F5E7B3FA91
:100C200083F1002946D1734502D3824200F2058147
:100C3000841A6EEB030201209046002DE5D0C5E931
:100C40000048E2E7002A00F09080B2FA82F6002E17
:100C500040F0A4808A1A030C4FEA174E80B2BCB24F
:100C60000121B2FBFEFC0EFB1C2243EA024304FB03
:100C70000CF29A4207D9FB180CF1FF3802D29A42C3
:100C800000F2E080C4469B1AB3FBFEF20EFB123367
:100C900040EA034302FB04F49C4207D9FB1802F12B
:100CA000FF3002D29C4200F2CA8002461B1B42EA7D
:100CB0000C40A5E7C1F120068B4022FA06F71F433E
:100CC0000EFA01F420FA06F32EFA06FE4FEA17494F
:100CD000234300FA01F81FFA87FCBEFBF9F01C0C55
:100CE00009FB10EE44EA0E4400FB0CFEA64502FA96
:100CF00001F209D93C1900F1FF3A80F09C80A64529
:100D000040F2998002383C44A4EB0E041FFA83FEA3
:100D1000B4FBF9F309FB13444EEA044403FB0CFC57
:100D2000A44508D93C1903F1FF3E80F08280A44518
:100D30007FD9023B3C4443EA0040A4EB0C04A0FBF7
:100D400002EC64457346E14662D35FD05DB1B8EB17
:100D5000030264EB090404FA06F622FA01F31E43C7
:100D6000CC40C5E9006400214FE7B1FBF2FC010C67
:100D700041EA0E4180B240EA01423B4638463C46D9
:100D8000B846BE462026B1FBF7F1A2EB080241EAC5
:100D90000C4166E7014618E710462CE7C6F1200231
:100DA0002EFA02F3B740B14020FA02F24FEA174E92
:100DB0000A43B3FBFEF8BCB20EFB1833110C41EA38
:100DC000034108FB04F9B04089454FEA104380B263
:100DD0003ED9791808F1FF3C01D289451FD8A1EB13
:100DE0000901B1FBFEF909FB04F80EFB191192B2DF
:100DF00042EA0142424529D2BA1809F1FF31C4D270
:100E00004245C2D2A9F102013A44BEE7F0459DD263
:100E1000BEEB02036CEB070C0138E14696E7A7EB4B
:100E200009094944A8F1020CB1FBFEF909FB04F8D9
:100E3000DBE773467FE7504666E70846FDE63B443E
:100E4000023A33E7ACF1020C3B441CE749469CE70D
:100E5000A1EB0901C446B1FBFEF909FB04F8C4E7A4
:100E6000704700BF0000000000000000000000000C
:100E700001F0FF01102A2BDB10F0070F08D010F84B
:100E8000013B013A8B422DD010F0070F42B3F6D14F
:100E9000F0B441EA012141EA014122F007047FF068
:100EA00000070023F0E80256083C85EA010586EABF
:100EB000010685FA47F5A3FA87F586FA47F6A5FAFB
:100EC00087F68EB9EED1F0BC01F0FF0102F0070207
:100ED00032B110F8013B013A83EA010313B1F8D1B2
:100EE0000020704701387047002D06BF3546033893
:100EF000073815F0010F07D1013015F4807F02BFCC
:100F0000013015F4C03F0130F0BC0138704700BF1C
:100F1000034613F8012B002AFBD1181A0138704739
:100F2000034AD2F8883043F47003C2F8883070471F
:100F300000ED00E0036A026A22F0010270B502626D
:100F4000446882690D6822F073022A438D6823F099
:100F500002032B430C4DA84203D005F58065A8423F
:100F60000BD1CD6823F008032B43D1E9055624F4B7
:100F70004074354323F004032C43446082614A6883
:100F80004263036270BD00BF00000140036A026A51
:100F900022F4807270B502624468C2690D6822F062
:100FA00073022A438D6823F4007343EA05230D4D31
:100FB000A84203D005F58065A8420DD1CD6823F481
:100FC000006343EA0523D1E9055624F44054354330
:100FD00023F4806344EA05144460C2614A68C26332
:100FE000036270BD00000140036A026A22F480526D
:100FF00030B502624468C2690D6822F4E64242EAF2
:1010000005228D6823F4005343EA0533084DA842B6
:1010100003D005F58065A84204D14D6924F48044CD
:1010200044EA85144460C2614A680264036230BDC8
:101030000000014070477047704770477047704725
:10104000704770477047704790F83D30012B30D1A2
:10105000022380F83D300368DA6842F00102DA606A
:10106000154A93421AD0B3F1804F17D0A2F57C42B3
:10107000934213D002F5806293420FD002F5806252
:1010800093420BD002F57842934207D002F570529A
:10109000934203D0A2F59432934204D19A6802F0AD
:1010A0000702062A03D01A6842F001021A600020E3
:1010B00070470120704700BF00000140036870B511
:1010C000DD681E69B10704460ED5AA070CD56FF07E
:1010D00002021A61012202779B699B0771D0D0F846
:1010E0009030984700232377710711D56A070FD5F1
:1010F00023686FF004021A61022222779B6913F4BD
:10110000407F65D0D4F8903020469847002323775D
:10111000330710D528070ED523686FF008021A612F
:1011200004222277DB69990759D0D4F89030204601
:10113000984700232377F20611D5EB060FD52368D5
:101140006FF010021A6108222277DB6913F4407FE6
:101150004CD0D4F890302046984700232377F007EE
:1011600009D5E90707D523686FF001021A61204607
:10117000D4F880309847320609D52B0607D5236866
:101180006FF080021A612046D4F8B030984770069C
:1011900009D5690607D523686FF040021A61204619
:1011A000D4F888309847B20627D5AB0625D52368F2
:1011B0006FF020021A612046D4F8A830BDE87040D4
:1011C0001847D0F898309847D4F89C30204688E7E4
:1011D000D4F8983020469847D4F89C3094E7D4F857
:1011E000983020469847D4F89C30A0E7D4F898303F
:1011F00020469847D4F89C30ADE770BD10B5034643
:10120000002A68D090F83D40012CE0B239D11A296B
:1012100012D8DFE801F04446484A4C4E505254562A
:10122000585A5C5E0E1215181B1E2124272A2D30D9
:101230003300C3F88020002010BDC3F88420FAE7F3
:10124000C3F88820F7E7C3F88C20F4E7C3F89020B0
:10125000F1E7C3F89420EEE7C3F89820EBE7C3F872
:101260009C20E8E7C3F8A020E5E7C3F8A420E2E764
:10127000C3F8A820DFE7C3F8AC20DCE7C3F8B02050
:10128000D9E793F83D0030BB0D2924D8DFE801F001
:1012900007090B0D0F11131517191B1D1F219A6438
:1012A000C9E7DA64C7E71A65C5E75A65C3E79A650F
:1012B000C1E7DA65BFE71A66BDE75A66BBE79A661B
:1012C000B9E7DA66B7E71A67B5E75A67B3E79A6727
:1012D000B1E7DA67AFE70120AEE70000274A03680D
:1012E000904212D0B0F1804F0FD0A2F57C429042D4
:1012F0000BD002F58062904207D002F580629042E6
:1013000003D002F57842904208D14A6823F0700376
:101310001343CA6823F44073134316E0184A9042FB
:10132000F7D002F580629042F3D002F580629042DD
:10133000EFD0A2F598329042EBD002F58062904255
:10134000E7D002F580629042E3D04A6923F080033F
:1013500013438A68C2620A688262084A904203D0D4
:1013600002F58062904201D10A690263026842F08C
:1013700004020260012242610360704700000140E4
:1013800000400140036A026A22F0100270B5026256
:10139000446882690D6822F4E64242EA05228D68BB
:1013A00023F0200343EA05130D4DA84203D005F5B1
:1013B0008065A8420DD1CD6823F0800343EA051370
:1013C000D1E9055624F44064354323F0400344EA50
:1013D0008504446082614A688263036270BD00BF15
:1013E0000000014038B590F83C30012B04464FD046
:1013F0000120082A84F83C003AD006D8BAB1042A61
:1014000026D0002384F83C3038BD0C2AF9D120685E
:10141000FFF7EAFDC3690A6943F40063C361C36966
:1014200023F48063C361C36943EA02232EE020688A
:10143000FFF780FD83690A6943F0080383618369CC
:1014400023F0040383618369134383610020D8E799
:101450002068FFF797FF83690A6943F4006383619B
:10146000836923F480638361836943EA0223ECE7A1
:101470002068FFF78BFDC3690A6943F00803C36165
:10148000C36923F00403C361C3691343C361DDE788
:101490000220B9E770B5056A046A194E24F0010408
:1014A0000462B042846926D0B0F1804F23D0A6F503
:1014B0007C46B0421FD006F58066B0421BD006F5D0
:1014C0008066B04217D006F57846B04213D006F5D4
:1014D0007056B0420FD0A6F59436B0420BD044F00F
:1014E000010263F3071201F00A0125F00A03194310
:1014F0008261016270BD24F003042243F1E700BF62
:1015000000000140F8B590F83C30012B05460C4630
:1015100000F082800120082A85F83C005CD006D8C3
:1015200042B3042A36D0002385F83C30F8BD0C2A9B
:10153000F9D12B68CE68186AD1E90027196A21F41D
:1015400080511962D969120321F4407141EA0721DF
:1015500020F4204002F4204266F30F310243D961A7
:101560001A62DA69A16822F44062DA61DA6942EA51
:1015700001224FE02868CB68D1E90012FFF78AFF0B
:101580008369A26823F00C03836183691343836139
:101590000020C8E72B68CE68186AD1E90027196ACD
:1015A00021F0100119629969120121F4407141EA98
:1015B000072120F0A00002F0A00266F30F310243E1
:1015C00099611A629A69A16822F440629A619A69E3
:1015D00042EA01229A61DBE72B68E768186A1E6A13
:1015E00026F48076D1E900211E62DE69120226F01F
:1015F0000306314320F4206002F4206267F30711F0
:101600000243D9611A62DA69A16822F00C02DA6138
:10161000DA690A43DA61BBE7022087E710B584681C
:101620000A4324F47F4442EA03222243826010BD2D
:1016300038B590F83C30012B04464FF0020000F022
:101640008E8084F83D000122206884F83C20836865
:1016500023F47F4323F0770383600B68602B4FD024
:1016600032D8402B64D016D8202B0DD00AD833F0B6
:10167000100109D0012384F83D30002384F83C3068
:10168000104638BD302BF5D1826822F0700213432A
:1016900043F0070328E0502BECD14A68CD68016A7B
:1016A000036A23F001030362836921F00A0123F036
:1016B000F00343EA05130A4383610262836823F05F
:1016C000700343F057030FE0B3F5805F0DD0B3F51F
:1016D000005F0CD0702BCDD1CB68D1E90121FFF791
:1016E0009DFF836843F0770383600022C2E7CB68E5
:1016F000D1E90121FFF792FF836843F48043F3E7C8
:10170000036A026A4D68C96822F0100202628269A7
:1017100023F0A00322F4704243EA051342EA0132A7
:1017200082610362836823F0700343F06703DBE7A1
:101730004A68CD68016A036A23F001030362836982
:1017400021F00A0123F0F00343EA05130A43836101
:101750000262836823F0700343F04703C4E7024644
:101760008EE7036A10B501F01F0101248C4023EAC3
:1017700004030362036A8A401A43026210BD000038
:1017800008B529B990F83E30012B1FD0012035E073
:10179000042907D190F83F30012BF7D1022380F8BC
:1017A0003F3016E008290CBF90F8403090F84130E7
:1017B000013B18BF0123002BE8D108294FF0020399
:1017C0000CBF80F8403080F8413002E0022380F8FE
:1017D0003E3000680122FFF7C4FF164B984203D049
:1017E00003F5806398420AD1436C43F40043436499
:1017F000836803F00703062B17D1002008BDB0F162
:10180000804FF5D00C4B9842F2D003F5806398429C
:10181000EED003F580639842EAD003F59A339842FC
:10182000E6D0A3F594339842E2D0036843F0010375
:101830000360E2E70000014000040040FFF7A0BFA2
:10184000134BC0F88030134BC0F88430124BC0F8F3
:101850008830124BC0F88C30114BC0F89030114BCF
:10186000C0F89430104BC0F89830104BC0F89C3042
:101870000F4BC0F8A0300F4BC0F8A4300E4BC0F88F
:10188000A8300E4BC0F8AC300D4BC0F8B0307047EC
:1018900099C20008371000084310000845100008DE
:1018A0003B1000083D100008391000083F100008E8
:1018B00041100008471000088D1B00088F1B00080E
:1018C000911B000810B5044668B390F83D3003F052
:1018D000FF0253B980F83C20FFF7B2FF836C0BB9CD
:1018E000124B8364A36C204698470223206884F837
:1018F0003D30211DFFF7F2FC012384F84630002023
:1019000084F83E3084F83F3084F8403084F8413029
:1019100084F8423084F8433084F8443084F8453009
:1019200084F83D3010BD0120FCE700BFC9CE00089F
:1019300010B5044668B390F83D3003F0FF0253B988
:1019400080F83C20FFF77CFF036E0BB9124B036657
:10195000236E204698470223206884F83D30211DDD
:10196000FFF7BCFC012384F84630002084F83E30A9
:1019700084F83F3084F8403084F8413084F84230B5
:1019800084F8433084F8443084F8453084F83D309E
:1019900010BD0120FCE700BF61CE000810B5044671
:1019A00068B390F83D3003F0FF0253B980F83C2053
:1019B000FFF746FF036D0BB9124B0365236D2046FD
:1019C00098470223206884F83D30211DFFF786FCEC
:1019D000012384F84630002084F83E3084F83F30FC
:1019E00084F8403084F8413084F8423084F8433041
:1019F00084F8443084F8453084F83D3010BD01202F
:101A0000FCE700BF35100008F8B50D460446002875
:101A100053D090F83D3003F0FF0253B980F83C20DA
:101A2000FFF70EFF036F0BB9254B0367236F2046AB
:101A300098472146022384F83D3051F8040B83680F
:101A400023F4804323F007038360FFF747FC81689A
:101A50002A688369AE69076A1143AA6823F4407350
:101A600023F0030342EA06221A432B69EE691B01A5
:101A700043EA0623EE6833432E6A22F47C4222F0C6
:101A8000FC0243EA063313436E696A68816027F0FB
:101A9000AA0742EA0612836117430123076284F80A
:101AA0004630002084F83E3084F83F3084F84230DD
:101AB00084F8433084F83D30F8BD0120FCE700BFD6
:101AC000DDCF000830B590F83C30012B02464FF0D6
:101AD000020032D0136882F83D005C680D68986897
:101AE00024F070042C435C60144CA3421AD0B3F170
:101AF000804F17D0A4F57C44A34213D004F5806432
:101B0000A3420FD004F58064A3420BD004F57844BF
:101B1000A34207D004F57054A34203D0A4F5943433
:101B2000A34204D1496820F0800001439960012359
:101B3000002082F83D3082F83C0030BD00000140BA
:101B400090F83C30012B02461ED0CB68886823F405
:101B500040730343486823F480630343086823F415
:101B600000630343086923F4805303434869C96948
:101B700023F40053034323F480430B4311680020F4
:101B80004B6482F83C0070470220704770477047F2
:101B90007047F7B5044610B390F89534056803F024
:101BA000FF021BB980F894240AF074F90323B5F1FD
:101BB000A04F84F8953404BF0023A371206800F07F
:101BC00015FE237C8DF80030251D95E80E00206859
:101BD00000F051FD014630B1022384F8953401250F
:101BE000284603B0F0BD206800F006FE0028F3D1BF
:101BF000267904F1140301270246C1B28E4203F193
:101C000024031BD8002104F515730A46C8B2864286
:101C100003F1240320D8237C8DF8003095E80E00D2
:101C2000206800F065FE05460028D5D101236074C8
:101C3000206884F8953401F09FF9D1E723F80A0C65
:101C400043E9072203F8237C03F8241C03F8202C23
:101C500043F8142C0130D0E743E9072203F8232C82
:101C600003F8240C03F8202C43F8142C0131CDE7A1
:101C700010B50446006894F89434012B15D0012364
:101C800084F89434C3685B0606D5637B012B02BFDE
:101C9000836B43F48033836300F0A2FD206801F07E
:101CA0005DF9002084F8940410BD0220FCE710B513
:101CB00090F89424012A04460AD0012280F8942442
:101CC0004174006801F03AF9002084F8940410BDD2
:101CD0000220FCE770B501F00F0606EBC60411F018
:101CE000800F05464FEA84044FF0240020D000FB0B
:101CF000065004F11401012429444475C2F30A0278
:101D00008A604A780E700B7102B14E83022B04BFB9
:101D100000234B7195F89434012B12D001232868CD
:101D200085F8943400F0A9FE002085F8940470BD75
:101D300000FB065004F515710024294480F8554233
:101D4000DCE70220F3E710B5044601F00F0000EBDA
:101D5000C00311F0800F4FEA83034FF0240215D027
:101D600002FB004203F11401012321445375087062
:101D700094F89434012B12D00123206884F8943411
:101D800000F0BAFE002084F8940410BD02FB00426B
:101D900003F515710023214482F85532E7E702204C
:101DA000F3E770B501F00F05242404FB050104FBE3
:101DB0000504C4E998230023C4F8683284F8553236
:101DC00084F85452164682790068012A01F515718B
:101DD00008BFC4F8706200F03BFF002070BD01F046
:101DE0000F01242303FB0100D0F86802704770B58F
:101DF00001F00F05242404FB050104FB0504C4E9DC
:101E000008230023A3620123637525751646827992
:101E100000689A4201F1140108BF266300F018FF20
:101E2000002070BD38B5037901F00F05AB420446C0
:101E30002BD311F0800F4FF024001DD000FB054183
:101E400000FB054001231431437501238B700D7095
:101E500094F894249A421AD0206884F8943401F0BB
:101E600019F82DB9A179206804F29C4201F0D2F84A
:101E7000002084F8940438BD00FB01431A4603F5A2
:101E80001571002382F85532DFE70120F3E70220C5
:101E9000F1E738B5037901F00F029342044629D3E4
:101EA00002EBC20311F0800F4FEA83034FF02400CE
:101EB00017D000FB024003F11401012321444375B4
:101EC00000258D700A7094F89434012B14D00123EE
:101ED000206884F8943401F008F884F89454284673
:101EE00038BD00FB024003F515710023214480F842
:101EF0005532E5E70120F3E70220F1E701F00F0397
:101F000003EBC3030A064FEA83034CBF03F114013A
:101F100003F515710144006800F044BE2DE9F04F4F
:101F2000066889B00446304601F062F80390002844
:101F300040F05681206801F02DF8002800F0508113
:101F4000D6F808382068C3F30D23C4F8D43401F060
:101F500021F8870748BF2268206842BF536903F011
:101F60000203536101F016F8C00606F500652DD591
:101F70002268936923F010039361D6F8208008F457
:101F8000F013B3F5802F08F00F0740F02C8147F6CF
:101F9000F07318EA030F14D0242303FB0747C8F398
:101FA0000A19D7F860124A46304600F053FFD7F8B6
:101FB00060324B44C7F86032D7F868324B44C7F8F8
:101FC00068322268936943F010039361206800F03F
:101FD000E1FF010300F11A81206800F0DBFF4203FA
:101FE0000DD5206800F0E2FF2746049006F5106B3F
:101FF0004FF0000A049B2068002B40F0D18120683C
:1020000000F0C8FF002813DA6B6823F001036B604F
:1020100094F8CC34012B40F06982002184F8CC1470
:10202000204600F0FFFA2268536903F00043536131
:10203000206800F0AFFF07050AD5AB68D80702D5C6
:10204000204609F097FF2268536903F40063536147
:10205000206800F09FFFC10433D56B68206823F02F
:1020600001036B60102100F0F7FB207906F5106387
:102070004FF67F31039A904200F23C82EB6943F0C5
:102080000113EB61E37B002B00F05082D5F8843024
:1020900043F00B03C5F884306B6C43F00B036B64A7
:1020A000D6F80038206823F4FE63C6F8003804F23E
:1020B0009C42A17900F0AEFF2268536903F480537B
:1020C0005361206800F066FF820416D5206800F096
:1020D00093FF206800F0C6FCE071276801F036FA33
:1020E000E2790146384600F00BFB204609F02FFF4D
:1020F0002268536903F400535361206800F04AFFDB
:10210000030707D5204609F01EFF2268536903F034
:1021100008035361206800F03DFF070600F11182BB
:10212000206800F037FFC0020CD5A04606F5126902
:1021300001272379BB4200F21D822268536903F410
:1021400080135361206800F025FF81022BD594F89D
:1021500004E0234606F532614FF0010CE6451DD937
:1021600093F87C720868012F40F01A82002880F2F0
:102170001782D4F8D42482EA1040C20700F11082FA
:1021800083F87B72B06940F08000B061706900062E
:1021900000F106826B6843F400736B602268536938
:1021A00003F400135361206800F0F4FE410007D5EA
:1021B000204609F003FF2268536903F0804353610E
:1021C000206800F0E7FE42070AD523685D686B07C8
:1021D00002D5204609F0F6FE226853682B4353606F
:1021E00009B0BDE8F08FB3F5402F7FF4EAAE0822C6
:1021F00004F29C41304600F02DFE242303FB0747E8
:10220000C8F30A18D7F868324344D8E6206800F0CB
:10221000C5FE06F530680490A2460027049B20689E
:10222000002B3FF4D9AE049BDB0778D55FFA87FB20
:10223000594600F0C3FE10F0010F81461FD0206800
:102240000123C8F8083094F806C0016C00F530632B
:1022500003EB4713BCF1010F9A6840F08B8012F03A
:10226000080F07D0AF48814209D9120407D54FF4AF
:10227000004203E012F0200F5AD020229A6019F099
:10228000080F21D00823C8F808302368A5491A6C24
:1022900003F5306303EB47138A42986804D90104BD
:1022A00044BF4FF4004098602046059209F034FE88
:1022B000059A9C498A4207D9A179012904D120684D
:1022C00004F29C4200F0A6FE19F0100F1CBF102370
:1022D000C8F8083019F0020F14D073691A0642BF0B
:1022E0006B6843F480636B609AF85732012B06D118
:1022F00000238AF857325946204609F057FE022338
:10230000C8F8083019F0200F1CBF2023C8F8083087
:1023100019F4005F1CBF4FF40053C8F80830049B49
:102320005B080137049308F120080AF1240A75E7D5
:10233000DFF8F0C1614501D9120498D41A69DAF8BE
:102340007432C2F312029B1ACAF868326FB9D4F819
:1023500064222AB904F29C42012100F05BFE04E0F1
:10236000D4F860221A44C4F860225946204609F085
:10237000D9FD84E7DFF8B0C1614507D111043FF50D
:1023800076AF9006F1D520229A60EEE7002FECD1CF
:10239000D4F86432002BE8D104F29C423946DCE7E1
:1023A000049BDB0740F199805FFA8AF31946059395
:1023B00000F00DFE10F0010F80461FD06B6B012165
:1023C0000AF00F0201FA02F223EA02036B63CBF870
:1023D0000810A17901290DD1D7E9072313443B62E5
:1023E000BAF1000F06D1636A23B9206804F29C4257
:1023F00000F010FE0599204609F09DFD18F0080F29
:102400001CBF0823CBF8083018F0100F1CBF102396
:10241000CBF8083018F0400F1CBF4023CBF8083031
:1024200018F0020F0FD05146304600F015FAFB7D30
:10243000012B05D100230599FB75204609F0BAFD53
:102440000223CBF808302368069318F0800F44D09D
:10245000D7E909329A4240D8A3EB0208FB699845B4
:1024600028BF9846069B03F5106308F1030803EBA9
:102470004A134FEA98080793079B996989B2414527
:10248000D7E9093227D393420BD8069B0AF00F00F5
:10249000D3F834280121814022EA0102C3F834280C
:1024A0001BE0A3EB0209FB69059A0698994528BF32
:1024B0009946A3790093396A1FFA89F300F0B4FBB7
:1024C0003B6A4B443B62BB6A09F103084B444FEA49
:1024D0009808BB62D0E79342D7D9049B5B080AF106
:1024E000010A049324370BF1200B83E5204609F001
:1024F00059FD98E599601A6822F400121A60C3F831
:102500000812D3F8002222F40012C3F80022D3F8F4
:10251000002242F00062C3F80022039A01320392C3
:102520002033A7E50A30544F0A31544F6B6943F406
:10253000005343F02B036B612B6943F00B032B61BA
:10254000AEE5B36923F08003B361012704F2572895
:102550004FF024092379BB427FF6E2AD09FB07F374
:1025600018F80330012B03D1F9B22046FFF7C6FC5F
:102570000137EFE798F83C30D9F80020012B09D15A
:10258000002A07DA67F07F0188F83B30C9B220469D
:10259000FFF7B4FC013708F1240809F12009C8E568
:1025A0000CF1010C24332031D8E500BF10B590F8B0
:1025B0009434012B044610D0012380F894340B0688
:1025C000006807D501F00F0100F046F9002084F8FB
:1025D000940410BD00F063F9F8E70220F9E7006801
:1025E00070B5436A120419B913438362002070BDA9
:1025F000846A4E1E03EB14430024B44205D33F31DA
:1026000000EB810013434360F0E704F1400500EB69
:10261000850501346D6803EB1543EEE70368002080
:1026200059627047704782B0002302460193019BB4
:1026300001330193019BB3F1706F1AD81369002B1A
:10264000F5DA0A230193019B83B9136943F001036F
:102650001361019B01330193019BB3F1706F08D8A3
:10266000106910F00100F4D102B07047019B013BEA
:10267000E8E70320F8E784B038B505AD85E80E003B
:102680009DF81930012B044627D1836B23F4803346
:102690008363C36823F4840323F04003C360C368E7
:1026A00023F44013C3609DF82030012B02BFC368A0
:1026B00043F48013C360FFF7B6FF9DF81630012B7B
:1026C00007D1A36843F00603A360A36843F0200387
:1026D000A360BDE8384004B07047C36843F04003CE
:1026E000C360FFF7A0FF9DF81D3023B9A36B43F42F
:1026F0008033A363E1E7A36B23F48033F9E70000A1
:10270000022A4AD1274B284A0B44934239D9274BF6
:10271000274A0B44934236D9264AA1F57403A3F500
:102720001053934231D9244AA1F18373A3F5E743AF
:1027300093422CD3214B224A0B44934229D9214B5B
:10274000214A0B44934226D3204B214A0B44934207
:1027500023D3204AA1F1B773A3F5585393421ED354
:102760001D4B1E4A0B4493422CBF06230723C2680D
:1027700022F47052C260C26842EA8323C360002020
:1027800070470F23F3E70E23F1E70D23EFE70C2348
:10279000EDE70B23EBE70A23E9E70923E7E7082343
:1027A000E5E700BF405327FFFF340C00401E1BFF2E
:1027B0003F420F007F4F120020D6130060B6E5FEA7
:1027C0005FE3160000D3CEFE40771B00C05BB3FE74
:1027D000C091210020753800E05459FEE09C410072
:1027E000836843F00103836000207047836823F00F
:1027F000010383600020704738B5C368012923F0C6
:10280000C04305460C46C36014D1C36843F000536F
:10281000C36000240A2001F0F3F96B69D90704F1C1
:102820000A0402D4C82CF5D1C824A4F1C803584224
:10283000584138BD71B9C36843F08043C3600A2072
:1028400001F0DEF96B69DA0704F10A04EDD5C82C52
:10285000F5D1E9E70120ECE782B0002302460193BD
:10286000019B01330193019BB3F1706F15D813697C
:10287000002BF5DA8901002341F020010193116159
:10288000019B01330193019BB3F1706F05D810696F
:1028900010F02000F4D102B070470320FBE782B0B3
:1028A000002302460193019B01330193019BB3F185
:1028B000706F13D81369002BF5DA002301931023EE
:1028C0001361019B01330193019BB3F1706F05D834
:1028D000106910F01000F4D102B070470320FBE73C
:1028E000D0F800381943C0F80018002070470000E5
:1028F00084B02DE9F843044609A880E80E000023BF
:102900009DF824609DF82E50194603F1400204EB17
:10291000820201330F2B5160F7D104F50067002DBF
:102920006CD17B6843F002037B60A36B43F400131C
:10293000A363A36B23F40023A363A36B23F480237B
:10294000A3630023C4F8003E9DF82930012B5FD11A
:102950009DF82710002959D12046FFF7C1FF10210B
:102960002046FFF779FF01462046FFF798FF08430E
:10297000C0B2002300383B6118BF01207B6104F521
:102980001062FB6119464FF0904C4FF0006E4FF60D
:102990007F389E423ED8002204F5306311464FF046
:1029A000904C4FF0006E4FF67F38964245D83B6909
:1029B00023F480733B610023A3616FF08043636164
:1029C0009DF826301BB9A36943F01003A361A269E7
:1029D000234B1343A3619DF82A301BB1A36943F035
:1029E0000803A361012D01BFA36943F0804343F0B5
:1029F0000403A361BDE8F84304B07047A36B23F45C
:102A00000013A363A36B43F4002399E71946A3E7DC
:102A10000321A1E7D2F80090B9F1000F0BDA3BB91E
:102A2000C2F800E011610133C2F808802032B0E73B
:102A3000C2F800C0F6E71160F4E7D3F80090B9F1EE
:102A4000000F0BDA3AB9C3F800E019610132C3F89C
:102A500008802033A9E7C3F800C0F6E71960F4E75F
:102A600000383C80D0F8083813F0060004D013F08A
:102A7000020F14BF02200F20704730B50C780122DE
:102A800004F00F05AA404D78012D00F5006300EB1E
:102A9000441019D1DD692A43DA61D0F800391A04EB
:102AA00010D48A68D0F80059C2F30A030A792B437C
:102AB00043EA824343EA845343F0805343F40043A0
:102AC000C0F80039002030BDDC6944EA0242DA6116
:102AD000D0F8003B1B04F5D48B68D0F8002BC3F36F
:102AE0000A0313430A7943EA824343F0805343F4D1
:102AF0000043C0F8003BE5E710B50A7849780129A2
:102B000000EB421300F5006002F00F0222D1D3F86F
:102B1000001900290BDAD3F8001941F00061C3F85D
:102B20000019D3F8001941F08041C3F80019C46BB3
:102B3000012101FA02F224EA0204C463C16921EA14
:102B40000202C261D3F80019144A0A40C3F80029EE
:102B5000002010BDD3F8001B00290BDAD3F8001BAE
:102B600041F00061C3F8001BD3F8001B41F0804125
:102B7000C3F8001BC46B4FF4803101FA02F224EA5F
:102B80000204C463C16921EA0202C261D3F8001BD6
:102B9000034A0A40C3F8002BDAE700BF007833ECA1
:102BA0000078F3EF82B000234A7801930B78012A72
:102BB0004FEA43131ED100F51060C118C258002A15
:102BC00002DB002002B07047C25842F00062C250DF
:102BD000C25842F08042C25042F21072019B01334F
:102BE0000193019B934201D90120EBE70B68002B75
:102BF000F4DBE6E700F53060C118C258002AE0DADD
:102C0000C25842F00062C250C25842F08042C250E4
:102C100042F21072019B01330193019B9342E3D86E
:102C20000B68002BF6DBCCE710B59DF8084044B9E3
:102C3000033301329B0800EB023001EB830399421E
:102C400001D1002010BD51F8042B0260F7E700000D
:102C50002DE9F3414B780C690F79DFF8F0E1DFF8EB
:102C6000F08116460A78012B00EB421540F0978060
:102C700005F5106CDCF8103074BB03EA0E03CCF8D9
:102C80001030DCF8103043F40023CCF81030DCF8BE
:102C9000103003EA0803012ECCF8103057D1CB696D
:102CA0000BB1CCF81430012F0CD1D0F8083813F444
:102CB000807FD5F800390CBF43F0005343F08053B8
:102CC000C5F80039D5F8003943F00443C5F8003998
:102CD000002002B0BDE8F08103EA0803CCF8103010
:102CE000DCF8103003EA0E03CCF810308B687AB9A8
:102CF000A34238BF0B61DCF8103043F40023CCF85A
:102D000010300B69DCF81040C3F312032343C2E711
:102D10001C44013CB4FBF3F44B4BDCF810E01FFA0D
:102D200084F803EAC44444EA0E04012FCCF81040AE
:102D3000E7D1DCF8103023F0C043CCF81030DCF8D9
:102D400010404FEA487303F0C0432343D7E7D5F858
:102D50000039012F43F00443C5F800390B690BD04B
:102D6000002BB5D0D0F8341802F00F0201239340A5
:102D70000B43C0F83438ABE7D0F8084814F4807F30
:102D8000D5F800490CBF44F0005444F08054C5F815
:102D900000490096C9689BB2FFF746FF98E7D5F84F
:102DA000103B03EA0803C5F8103BD5F8103B03EAD3
:102DB0000E0305F5306CCCF810308B685ABB04B1AB
:102DC0000B610B62DCF81020C3F312031343CCF841
:102DD0001030DCF8103043F40023012ECCF8103012
:102DE00003D1CB680BB1CCF81430012F0CD1D0F843
:102DF000083813F4807FD5F8003B0CBF43F0005334
:102E000043F08053C5F8003BD5F8003B43F0044342
:102E1000C5F8003B5CE7002CD4D01C440A4ADCF81F
:102E200010E0013CB4FBF3F4A4B202EAC4426343F1
:102E300042EA0E020B62CCF81020DCF81020C3F33B
:102E400012031343C9E700BF0000F81FFFFF07E0AC
:102E50000000F8FF034670B50020940803F5805584
:102E600002F00302A04210D301EB840062B103F52B
:102E700080531C680023D90024FA01F1C1540133A6
:102E800099B28A42F7D1104470BD2E6841F8206093
:102E90000130E7E74A780B78012A00EB431012D1A2
:102EA000D0F80029002A06DB2BB1D0F8003923F036
:102EB0008043C0F80039D0F8003943F40013C0F85B
:102EC000003900207047D0F8002B002A06DB2BB118
:102ED000D0F8003B23F08043C0F8003BD0F8003B23
:102EE00043F40013C0F8003BEBE70B784A7800EBA3
:102EF00043100B79012AA3F10203DBB20FD1D0F802
:102F00000029012B22F40012C0F8002905D8D0F8BE
:102F1000003943F08053C0F8003900207047D0F8E2
:102F2000002B22F40012012BC0F8002B9EBFD0F81A
:102F3000003B43F08053C0F8003BEEE7D0F8003888
:102F400023F4FE63C0F80038D0F80038090101F41A
:102F5000FE611943C0F8001800207047D0F8003E09
:102F600023F00303C0F8003ED0F8043823F0020336
:102F7000C0F8043800207047D0F8003E23F0030367
:102F8000C0F8003ED0F8043843F00203C0F804381B
:102F9000002070474269806910407047D0F81838A7
:102FA00000F50060C0691840000C7047D0F8183870
:102FB00000F50060C069184080B2704700EB411115
:102FC00000F50060D1F8082B406910407047D0F838
:102FD0001028D0F8343800EB411001F00F01CB403D
:102FE00000F51060DB018068DBB2134318407047C6
:102FF000406900F001007047D0F800396FF30A0310
:10300000C0F80039D0F8043843F48073C0F80438AD
:103010000020704730B5056C104CA54200F53063B8
:1030200003D9D0F8004B002C16DB00241C611C696E
:1030300044F400241C611C6944F018041C611C69E0
:10304000012944F0C0441C6101BF5A61D0F8003B23
:1030500043F08023C0F8003B002030BD0A30544FBD
:103060002DE9F341044640B30368DE0710D423681A
:103070009D075BD42368190700F19D8023685A07D8
:1030800000F1BD80A369002B40F0248100202CE0DA
:103090008D4B9A6802F00C02042A07D09A6802F05D
:1030A0000C02082A0BD15B68590208D5864B1B68B5
:1030B0009A03DCD56368002BD9D1012015E0636841
:1030C000814DB3F5803F13D12B6843F480332B60DF
:1030D00000F090FD7C4E054633689B03C7D400F09A
:1030E00089FD401B6428F7D9032002B0BDE8F081B8
:1030F000B3F5A02F04D12B6843F480232B60E3E7C2
:103100002A6822F480322A602A6822F480222A6007
:10311000002BDDD100F06EFD06462B689F03A6D57F
:1031200000F068FD801B6428F7D9DDE7664B9A68DC
:1031300012F00C0F07D09A6802F00C02082A11D185
:103140005B685D020ED4604A1368990702D5E36894
:10315000012BB2D11368216923F0F80343EAC103BC
:10316000136087E7E268594BB2B101221A6000F0A0
:1031700041FD554D06462B689B0707D52B682269F4
:1031800023F0F80343EAC2032B6073E700F032FD3B
:10319000801B0228EFD9A7E71A6000F02BFD4A4EEA
:1031A000054633689F077FF565AF00F023FD401BA0
:1031B0000228F6D998E76269444B82B10122C3F82C
:1031C000802E00F017FD404E0546736F9B073FF5BC
:1031D00055AF00F00FFD401B0228F6D984E7C3F875
:1031E000802E00F007FD384E0546736F9F077FF570
:1031F00045AF00F0FFFC401B0228F6D974E7324BC4
:103200001A6C12F0805228D101921A6C42F080524E
:103210001A641B6C03F080530193019B01272C4D12
:103220002B68D8051BD5A368274D012B27D12B6F01
:1032300043F001032B6700F0DDFC234E054641F20D
:103240008838336F9A0739D5002F3FF41BAF1E4AD9
:10325000136C23F08053136414E70027DFE72B6817
:1032600043F480732B6000F0C5FC06462B68D9053B
:10327000D9D400F0BFFC801B0228F7D934E7052B16
:1032800004D12B6F43F004032B67D0E72A6F22F0A1
:1032900001022A672A6F22F004022A67002BCAD192
:1032A00000F0A8FC41F2883806462B6F9B07CBD56F
:1032B00000F0A0FC801B4045F7D915E700F09AFC10
:1032C000401B4045BDD90FE700380240000047428F
:1032D00000700040374DAA6802F00C02082A3ED068
:1032E000022B354B4FF000021A662BD100F082FC06
:1032F00006462B6899011FD4D4E907321343626A4A
:1033000043EA8213E26A43EA0263A26A5208013A7C
:1033100043EA02436B60284B264D01221A6600F0F7
:1033200069FC04462B689A013FF5B0AE00F062FCE0
:10333000001B0228F6D9D7E600F05CFC801B0228AF
:10334000D7D9D1E600F056FC04462B689B017FF5E7
:103350009DAE00F04FFC001B0228F6D9C4E6012BFD
:103360003FF4ABAE6B68E26903F4800191427FF4F5
:10337000A4AE216A03F03F028A427FF49EAE616AE6
:1033800047F6C0721A40B2EB811F7FF496AEA26A74
:10339000520803F44031013AB1EB024F7FF48DAE95
:1033A000E26A03F07063B3EB026F14BF01200020E8
:1033B0009BE600BF0038024000004742134908B5B1
:1033C0008B6803F00C03042B1CD0082B1CD14A681B
:1033D0004B68496813F4800314BF0D480D48C1F3CE
:1033E000881118BF002302F03F02A1FB0001FDF786
:1033F000A3FB064B5B68C3F3014301335B00B0FBE7
:10340000F3F008BD0248FCE70248FAE70038024042
:1034100000127A000024F4002DE9F0410D46044624
:1034200010B90120BDE8F081434B1A6802F0070291
:103430008A4228D321688F072DD4C80740D43E4B39
:103440001A6802F00702AA4265D8226851076BD4B5
:10345000130707D5394A2169936823F4604343EA87
:10346000C1039360FFF7AAFF344B354A9B68C3F34F
:103470000313D35CD840334B1860334B186809F002
:1034800077FF0020CEE7CAB21A701B6803F007036B
:103490008B42C6D1CEE7294B11F0040F1EBF9A68AC
:1034A00042F4E0529A600E0742BF9A6842F46042CA
:1034B0009A609A68A06822F0F00202439A60BCE722
:1034C00062681E4B012A1CD11B6813F4003FA8D070
:1034D0001A4EB36823F003031343B36000F08AFB72
:1034E00041F288380746B368626803F00C03B3EB17
:1034F000820FA4D000F07EFBC01B4045F3D903200F
:1035000090E7911E01291B6802D813F0007FDEE7C7
:1035100013F0020FDBE7EAB21A701B6803F007032F
:10352000AB427FF47EAF90E70449E0688B6823F4F8
:10353000E05303438B608BE7003C024000380240BD
:1035400090FF00080000002008000020014B1868D0
:10355000704700BF00000020044B054A9B68C3F37E
:103560008223D35C034A1068D84070470038024079
:1035700088FF000800000020044B054A9B68C3F345
:103580004233D35C034A1068D84070470038024089
:1035900088FF0008000000200F2303600B4B9A688F
:1035A00002F0030242609A6802F0F00282609A68B8
:1035B00002F4E052C2609B68DB0803F4E05303614D
:1035C000034B1B6803F007030B6070470038024091
:1035D000003C02402DE9F74FDFF8A491664A002332
:1035E0000D6801249C4004EA0506AC4340F0AF801E
:1035F0004D68032705F003044FEA430807FA08FC67
:10360000671E012F6FEA0C0C34D8876807EA0C0E8E
:10361000CF6807FA08F747EA0E078760476827EA86
:10362000060EC5F300179F4047EA0E074760C768BC
:1036300007EA0C0E8F6807FA08F747EA0E07022C14
:10364000C76019D14FEAD30A00EB8A0A03F0070BCF
:10365000DAF820704FEA8B0B4FF00F0E0EFA0BFECC
:1036600027EA0E0E0F6907FA0BF747EA0E07CAF8AA
:10367000207001E0032CDAD1076804FA08F407EAA5
:103680000C073C4315F4403F046060D000240194D3
:10369000D9F8444044F48044C9F84440D9F844403F
:1036A00023F0030707F1804704F4804407F59C37B3
:1036B000019403F0030C019CD7F808E04FEA8C0C4E
:1036C0000F2404FA0CF42EEA040E2C4CA04245D030
:1036D00004F58064A04243D004F58064A04241D048
:1036E00004F58064A0423FD004F58064A0423DD040
:1036F00004F58064A0423BD004F58064A04239D038
:1037000004F58064A04214BF0824072404FA0CF4D2
:1037100044EA0E04BC609468F74315F4801F0CBFA4
:103720003C4034439460D46815F4001F0CBF3C4007
:103730003443D460546815F4003F0CBF3C4034431C
:1037400054601468ED0354BF3C40344314600133AB
:10375000102B7FF445AF03B0BDE8F08F0024D5E710
:103760000124D3E70224D1E70324CFE70424CDE7E3
:103770000524CBE70624C9E7003C014000000240D5
:10378000003802400AB1816170470904FBE74369D0
:1037900001EA030221EA030141EA02418161704723
:1037A000036810B5084C0246D9B210391820B1FB95
:1037B000F0F0205CD06523F47F7020F003005F29D7
:1037C00088BF0430906510BDA0FF000870B50446A6
:1037D00000F010FA0546002C60D0022384F8353042
:1037E0002268002384F83430136823F00103136047
:1037F00022681368D8072ED413683248A16918408C
:10380000D4E901352B43E5682B4325692B436569D2
:103810002B43E5690B432B43256A2B430343606A23
:10382000042802BFD4E90B5635432B431360536978
:10383000042823F0070343EA000335D1A06AE56AB0
:1038400003438DB391B9012820D030F002012BD170
:10385000E90129D51DE000F0CDF9401B0528C7D9A5
:1038600020230320636584F8350070BDB1F5005F47
:1038700016D1032818D801A151F820F09338000878
:1038800051380008933800088D380008B5F1C07F22
:103890000AD140236365012384F835300120E4E731
:1038A0000228F6D90328D3D053612046FFF778FFCA
:1038B000E26D3F239340836000200123606584F81C
:1038C0003530D2E73F8010F070B590F83440866D07
:1038D000012C30D0012480F8344090F83540012C80
:1038E0004FF0000425D1022580F835504465046866
:1038F000256825F48025256063608368402B0EBF12
:10390000A260A160E260C26D08BFE1603F23934006
:10391000B360236843F016032360036C1BB1236874
:1039200043F008032360236843F001032360002071
:1039300070BD80F834400220FAE70000F7B500239C
:1039400001935C4B856D1F68C36D2E6808229A40F9
:10395000324204460CD001680868400708D5086860
:1039600020F004000860AA60626D42F00102626506
:1039700001229A40324208D021684969090641BFB4
:10398000AA60626D42F00202626504229A403242ED
:1039900008D021680968880741BFAA60626D42F0BB
:1039A0000402626510229A40324210D023681968DE
:1039B00009070CD5AA601A68500337D51B6819038C
:1039C00001D4236C00E0A36C0BB120469847E16D55
:1039D00020228A4032423AD023681868C60636D57B
:1039E000AA6094F83520052A1A6827D122F0160219
:1039F0001A605A6922F080025A61226C0AB9A26CDC
:103A00001AB11A6822F008021A603F238B40AB609B
:103A1000012384F83530002384F83430236D002BE3
:103A200045D0204603B0BDE8F04018471A68D205DB
:103A30005EBF1A6822F008021A60C2E7500327D559
:103A40001B68190331D4636C0BB120469847636D32
:103A50006BB3636DDA0719D522684FF41653B7FBC1
:103A6000F3F7052384F83530136823F0010313605E
:103A7000019B0133BB42019302D81368DB07F7D4E3
:103A8000012384F83530002384F83430E36CC6E732
:103A90001A6812F4807208D1196821F010011960B7
:103AA000012384F8353084F83420E36BCCE703B08D
:103AB000F0BD00BF0000002010B5034690F83400B0
:103AC00001281DD093F83540012CE0B216D105290C
:103AD00006D8DFE801F003090B0D0F11DA630020AF
:103AE000002283F8342010BD1A64F8E75A64F6E720
:103AF0009A64F4E7DA64F2E71A65F0E70120EFE789
:103B00000220F0E70749CA6822F4E06203021204C7
:103B100003F4E063120C134343F0BF6343F4003338
:103B2000CB60704700ED00E0164B30B5DC68C4F3A5
:103B30000224C4F10703251D042B28BF0423062DEE
:103B40004FF0FF358CBF033C002405FA03F321EA54
:103B50000303A54022EA0502A340002843EA02032A
:103B6000ACBF00F16040084A4FEA0313B8BF00F051
:103B70000F00DBB2AABF00F56140135480F8003398
:103B800030BD00BF00ED00E014ED00E0002807DBD1
:103B9000044A4109012300F01F00834042F821300C
:103BA000704700BF00E100E008B50B4B1A6842F413
:103BB00000721A601A6842F480621A601A6842F44D
:103BC00080721A600320FFF79DFF0F2009F0D0FBE1
:103BD00009F0ACFB002008BD003C0240034A044B46
:103BE00011681B780B441360704700BFF00200207F
:103BF00004000020014B1868704700BFF00200204D
:103C000038B50446FFF7F6FF631C1CBF054B1B7855
:103C1000054618BFE418FFF7EDFF431BA342FAD394
:103C200038BD00BF040000207047704770477047E0
:103C300010B50446002800F0AB80036CA3B9554BC7
:103C40008364554BC364554B0365554B4365554BD6
:103C50008365C36D0BB9544BC365E36D204698472C
:103C60000023636484F83C30236CDB0600F18E8013
:103C7000236C23F4885323F0020343F002032364EC
:103C80004A4B5A6822F440325A605A6861680A43C3
:103C90005A60236821695A6822F480725A605A680F
:103CA00042EA01225A605A68A16822F040725A60C2
:103CB0005A680A435A609A68E16822F400629A607E
:103CC0009A680A439A603A49A26A8A4252D099682D
:103CD00021F07061996099680A439A609A68E16A74
:103CE00022F040529A609A680A439A609A6822F0D9
:103CF00002029A609A68217E42EA41029A6094F830
:103D00002020002A3ED05A68616A42F400625A605C
:103D10005A6822F460425A605A68013942EA4132D4
:103D20005A60DA6AE16922F47002DA62DA6A013909
:103D300042EA0152DA629A6822F400729A609A6842
:103D400094F8301042EA41229A609A68616922F43C
:103D500080629A609A68002042EA81229A606064D8
:103D6000236C23F0030343F001032364002384F84E
:103D70003C3010BD9A6822F070629A609A6822F016
:103D80004052B2E75A6822F40062C9E70120EDE729
:103D90000120EEE72B3C00082D3C00082F3C0008DA
:103DA000293C0008D53E00087DC6000800230140DC
:103DB0000100000FF7B50023019390F83C30012B70
:103DC00005467CD0012380F83C3008682B688E685B
:103DD000092884B230D904EB4402DF681E3A4FF060
:103DE000070C0CFA02FC27EA0C07DF60DF6806FA12
:103DF00002F23A43DA604968062901EB81022AD8C7
:103E0000596B053A1F26964021EA06015963596B02
:103E100004FA02F20A435A632A4A934207D112284B
:103E200034D1D2F8043343F48003C2F804330020C1
:103E300085F83C0003B0F0BD1A6900EB400C072781
:103E400007FA0CF722EA07021A611A6906FA0CF659
:103E500016431E61CFE70C294FF01F010BD81E6BD4
:103E6000233A914026EA01011963196B04FA02F220
:103E70000A431A63D0E7DE6A413A914026EA01011B
:103E8000D962D96A94400C43DC62C5E7A0F1100303
:103E9000012BCCD80C4A5368102843F4000353601C
:103EA000C5D10A4B0A4A1B68B3FBF2F30A225343FB
:103EB0000193019B002BBAD0019B013BF8E7022044
:103EC000B8E700BF002001400023014000000020AF
:103ED00040420F00704710B5044668B1037903F003
:103EE000FF0213B9427108F041FC02232371002044
:103EF00001232061237110BD0120FCE77047036896
:103F000070B51E685D6BB204044610D5A9040ED5C9
:103F100004220271026942F0010202614FF4005270
:103F20005A631A6822F480521A60FFF7E7FFB20062
:103F300014D5AB0012D504232371236943F0020387
:103F4000236123684FF000525A631A6822F08052AE
:103F500020461A60BDE8704000F029B870BD30B549
:103F600003460C4608B301B3417901294FF0020022
:103F70001AD01871186802F01002056840F6FE7138
:103F8000914025EA0105D4E90014214391402943D9
:103F900001600168C02404FA02F221EA0202026010
:103FA000012200201A71587130BD0120FCE77047D2
:103FB0000A6850F8223023F0010370B58C6840F88D
:103FC00022304B68CE6850F82250234333430E69A9
:103FD00033434E693343CE6933430E6A33434E6AEB
:103FE00033438E6A3343CE6A33430E6B33438E6959
:103FF000C96B33430B43064929400B43A4F1080125
:104000004C424C4143EA841340F82230002070BDFA
:104010008000F0FF0B6810B58C6923434C6843EABD
:1040200004138C6843EA0423CC6843EA04430C6914
:104030004969013C013243EA0453023943EA01630E
:1040400040F82230002010BDB3F5804F30B514D1B8
:104050008D690B6850F822402B434D6843EA0513E5
:104060008D68C96843EA052343EA014304492140B6
:104070000B4340F82230002030BD6FF07043F8E76A
:104080000000F0CF70B50E461546044628B390F8F0
:10409000493003F0FF021BB980F8482008F054FCB7
:1040A00004F108012068FFF783FFA2682068314609
:1040B000FFF7B0FF236BA26860682946FFF7C4FFD3
:1040C0002268A16852F8213043F0010342F8213000
:1040D000012384F84930002070BD0120FCE701680D
:1040E0004B6913F480634FF0000210D06FF48063CB
:1040F0004B612023026380F83D3080F83E20036C42
:1041000080F83C2043F00403036401207047184604
:1041100070472DE9F84606460F4691461D464FEA80
:10412000114A3368BAF1010F0CBF5C699C6927EA38
:104130000404A4B2B4FA84F46409A14501D00020B7
:1041400025E06A1CEED0FFF755FD089BC01AA84277
:1041500001D8002DE5D13368BAF1010F0CBF5B69BE
:104160009B6927EA03039BB2B3FA83F35B09994582
:10417000D7D100232022336386F83D2086F83E30D5
:10418000326C86F83C3042F0200232640120BDE8F7
:10419000F8862DE9F04104460F46164698462568F4
:1041A000686927EA000080B2C0B16B695A0517D56B
:1041B0002B6843F400732B606FF480636B612022E3
:1041C0000023236384F83D2084F83E30236C43F0C1
:1041D00004032364002384F83C300120BDE8F0810F
:1041E000731CDDD0FFF706FDA0EB0800B04201D83C
:1041F000002ED4D123685A6927EA020292B2002A1B
:10420000CDD000232022236384F83D2084F83E3063
:10421000236C1343DDE770B504460D46164623684C
:104220005B691B0601D500201EE02046FFF757FF03
:10423000C8B96A1CF3D0FFF7DDFC801BA84201D887
:10424000002DECD123685B6913F08003E7D12022B5
:10425000236384F83D2084F83E30226C84F83C309F
:1042600042F020022264012070BD00002DE9F043DD
:104270001546026885B0DDE90C789946136843F469
:10428000807313600E463B46CDF8008000224FF04D
:1042900001110446FFF73DFF236838B11B68DB05B9
:1042A00002D54FF400732364032620E006F0FE06D7
:1042B0001E611A4943463A462046FFF76AFFA8B9ED
:1042C000236803905A6903929B69039342463946D7
:1042D0002046039BFFF79FFF064660B1236C042B2B
:1042E00001BF2268136843F400731360012630464F
:1042F00005B0BDE8F083B9F1010F236802D1EDB23A
:104300001D61F4E72A0A1A61394642462046FFF742
:1043100082FF0028E2D12368F1E700BF020001001C
:1043200070B504460D46164623685B695B0701D5E8
:1043300000201EE02046FFF7D2FEC8B96A1CF3D069
:10434000FFF758FC801BA84201D8002DECD1236850
:104350005B6913F00403E7D12022236384F83D2036
:1043600084F83E30226C84F83C3042F02002226413
:10437000012070BD70B5044608B9012070BD90F8E9
:104380003D3003F0FF021BB980F83C2008F04EFBE3
:10439000242384F83D3023681A6822F001021A6051
:1043A0001A6842F400421A601A6822F400421A6045
:1043B000FFF7D2F83F4B65689D4294BF3E4B3F4BA1
:1043C00098428CBF00230123002BD6D12268394E9E
:1043D00051683B4BB0FBF3F321F03F011943B54269
:1043E000516088BF4FF49676116A88BF734321F0FD
:1043F0003F0184BF4FF47A76B3FBF6F301330B43EE
:104400001362D169431E2B4821F44F41854221F0AC
:10441000FF0132D86D0040F6FC70B3FBF5F30133B9
:10442000034242D0C3F30B031943D161D4E90730EF
:104430001168034321F0C0010B4313609168D4E974
:10444000030321F40341034321F0FF010B43936075
:10445000D4E90530D168034321F0FF010B43D36059
:10446000136843F00103136000202023206484F8C4
:104470003D30206384F83E0080E7A06850B905EB2A
:104480004505B3FBF5F30133C3F30B037BB143F4F1
:104490000043C9E719206843B3FBF0F30133C3F3CA
:1044A0000B0323B143F44043BEE70423BCE70123DD
:1044B000BAE700BFA08601007F841E00FF083D0010
:1044C00040420F002DE9F743044699460C9E0F46E3
:1044D0009046FFF78FFB94F83D30202B054603D024
:1044E000022003B0BDE8F08300903C49192301226B
:1044F0002046FFF70EFE0028F2D194F83C30012B45
:10450000EED02068012384F83C300368D9075EBFF1
:10451000036843F001030360036823F4006303604E
:10452000212384F83D30402384F83E300023236467
:104530000A9B6362BDF82C306385638D2385284B0D
:10454000E3624246CDE900654B4639462046FFF717
:104550008DFE00282AD00120C3E7FFF75CFE40B1A2
:10456000236C042B01BF2268136843F400731360AB
:10457000F1E7636A27681A4612F8011B3961626223
:10458000628D218D013A92B262857A69481E80B2AD
:10459000520720850AD548B15A783A6102336362DE
:1045A000638D013B02399BB221856385238D2A46A9
:1045B00031462046002BD0D1FFF7B2FE0028CFD1E4
:1045C0002268136843F400731360202384F83D309D
:1045D00084F83C0084F83E0083E700BF020010002E
:1045E0000000FFFF2DE9F04F044685B01F468846C6
:1045F0009246FFF7FFFA94F83D30202B054603D092
:10460000022005B0BDE8F08F00904D49192301222A
:104610002046FFF77EFD0028F2D194F83C30012BB4
:10462000EED0012384F83C302368DFF814B11A6817
:10463000D0075EBF1A6842F001021A601A6822F4BD
:1046400000621A60242384F83D3000263D4B266426
:1046500008F0FE08E3622268136843F48073136075
:104660004FF001113B46009500222046FFF751FD17
:10467000236838B11B68D90544BF4FF40073236425
:104680000320BEE7C3F81080FFF7B4FA23685A6925
:104690005B690546C2F34002C3F380234FF0A009D3
:1046A00094F83D10A0291CD123684FF0200984F80C
:1046B0003D905A6992072BD51A68214942F400723D
:1046C0001A60002203925A6903929B690393039B29
:1046D0000095192301222046FFF71BFD98B1012008
:1046E0008FE71343E0D1FFF785FA401BB84200D8AB
:1046F0000FB984F83D9023685A695B69C2F34002A0
:10470000C3F38023CCE784F83D9084F83C0078E73D
:104710001A6842F400721A606FF480625A61594656
:104720000095192301222046FFF7F3FC0028D6D17B
:10473000013656458FD384F83D9084F83C00CEE78F
:10474000020010000000FFFF2DE9F3471F468946D5
:1047500090460446FFF74EFA0A9D3D442D1AFFF796
:1047600049FA264B1E68C6F3CB366E438246019645
:104770002268936839EA03030CBF012300234345F1
:1047800001D100202EE07B1CF3D0FFF733FAA0EB21
:104790000A00A84229D323685A6822F0E0025A602E
:1047A0006268B2F5827F0AD1A268B2F5004F02D0EA
:1047B000B2F5806F03D11A6822F040021A60A26A33
:1047C000B2F5005F07D11A6822F400521A601A6825
:1047D00042F400521A60012384F85130002384F817
:1047E0005030032002B0BDE8F087019B1BB1019B54
:1047F000013B0193BCE71D46BAE700BF0000002063
:10480000F0B585B00B4600920E46174602210122F4
:104810000446FFF799FF054628B1636D43F0200376
:104820006365032515E0124B1868124BB0FBF3F0DB
:104830004FF47A73584363680390B3F5827F0BD1CA
:10484000009733462A4680212046FFF77DFF002847
:10485000E3D1284605B0F0BD039B002BF9D0039BA4
:10486000013B039323689B681B06F5D4F1E700BF67
:104870000000002000366E0137B50B464168B1F5E7
:10488000827F044608D0009201210022FFF75CFFDE
:10489000D0B9002003B030BD8168B1F5004F02D01F
:1048A000B1F5806F07D125682868B1F5806F20F0D9
:1048B0004000286004D00092802100222046E5E7D5
:1048C000009201210022F9E7636D43F02003636544
:1048D0000320DFE710B50446002855D0436A002BBB
:1048E0004ED14268B2F5827F00D0C3610023A3623B
:1048F00094F8513003F0FF0223B984F85020204689
:1049000008F032F92168A068A269022384F85130C6
:104910000B6823F040030B60636800F4044003F469
:1049200082730343E06800F400600343206900F0F1
:1049300002000343606900F00100034302F40070C9
:104940000343E06900F038000343206A00F0800070
:104950000343A06A00F4005003430B60636A120C27
:1049600003F0100302F004021A434A60CB6923F4F7
:104970000063CB6100200123606584F8513010BDD5
:104980000023C0E90433B1E70120F8E72DE9F7433C
:1049900004461F460D469046FFF72CF994F8513017
:1049A000012B8146D8B240F09F80002D74D0B8F121
:1049B000000F71D094F85030012B00F09580032344
:1049C00084F8513000236365C4E91033A4F83680BD
:1049D000A363A387E387A368266884F85000B3F530
:1049E000004F2563A4F8348007D1336823F04003D7
:1049F0003360336843F4804333603368E2685B06B6
:104A00005EBF336843F040033360B2F5006F636804
:104A100045D113B1B8F1010F07D135F8023BF3606E
:104A20002563E38E013B9BB2E386E38E9BB2D3B951
:104A30004A4639462046FFF7E3FE002851D1A368D5
:104A400033B901932368DA6801929B680193019B53
:104A5000012384F85130606D0023C01A84F850306F
:104A600018BF012018E022689368980705D5236BCA
:104A700033F8021BD1602363D3E7FFF7BBF8A0EB49
:104A80000900B842D1D3791CCFD0012384F851302A
:104A9000002384F85030032003B0BDE8F08313B145
:104AA000B8F1010F08D12B783373236B01332363E3
:104AB000E38E013B9BB2E386E38E9BB2002BB7D023
:104AC00023689A68920703D5226B12781A73ECE771
:104AD000FFF790F8A0EB0900B842EDD37B1CEBD0B8
:104AE000D3E720236365AAE70220D5E72DE9F74342
:104AF00004460D4691461E46DDF82880FFF77AF8F9
:104B000094F851306268012B0746D9B20AD0B2F549
:104B1000827F40F0E580A368002B40F0E18004290B
:104B200040F0DE80002D4BD0B9F1000F48D0002EB0
:104B300046D094F85030012B00F0D280012384F845
:104B4000503094F85130C4F83890042B1CBF052322
:104B500084F8513000236365C4E910332368E68785
:104B6000E6861968A687490658BF1968256358BFA5
:104B700041F04001A68658BF1960E168B1F5006FA9
:104B800055D10AB1012E07D135F8022BDA60E38E38
:104B90002563013B9BB2E3860125E38E9BB28BB973
:104BA000E38F9BB273B93A4641462046FFF728FE91
:104BB000002800F0818020236365002384F85030B2
:104BC000012031E021688B689A070DD5E38E9BB2F6
:104BD00053B145B1236B33F8022BCA602363E38ED4
:104BE000013B9BB2E38600258A6812F001020CD0DB
:104BF000E38F9BB24BB1A36BC96823F8021BA3637D
:104C0000E38F013B9BB2E3871546FEF7F3FFC01B22
:104C10004045C2D3B8F1FF3FBFD0012384F85130E3
:104C2000002384F85030032003B0BDE8F0830AB1BC
:104C3000012E08D12A781A73236B01332363E38E84
:104C4000013B9BB2E38601252DE0226893689B0718
:104C50000ED5E38E9BB25BB14DB1236B1B78137302
:104C6000236B01332363E38E013B9BB2E386002574
:104C70002268916811F001010DD0E38F9BB253B10E
:104C8000A36BD2681A70A36B0133A363E38F013B5C
:104C90009BB2E3870D46FEF7ADFFC01B404502D334
:104CA000B8F1FF3FB9D1E38E9BB2002BCDD1E38F9A
:104CB0009BB2002BC9D176E7A36833B9019323686F
:104CC000DA6801929B680193019B012384F85130BB
:104CD000606D0023C01A84F8503018BF0120A3E78C
:104CE0000220A1E72DE9F7431E4690F85130012B31
:104CF000044689461746DDB204D00225284603B093
:104D0000BDE8F0830029F9D0002AF7D04368B3F555
:104D1000827F0BD183684BB9042380F8513013464E
:104D200000960A46FFF7E2FE0546E7E7FEF762FF58
:104D300094F85030012B8046DFD0A268C4F8389038
:104D40000123002584F85030B2F5004F4FF00403E2
:104D500084F85130C4E9105565652368E787A78753
:104D60002563A586E58607D11A6822F040021A60FD
:104D70001A6822F480421A601A6855065EBF1A68E3
:104D800042F040021A60E368F3B1E38F9BB2FBB1DB
:104D900023689A68D2073CD5DA68A36B23F8022B04
:104DA000A363E38F013B9BB2E387EEE723689A6836
:104DB000D0071ED5A26B1B7B1370A36B0133A363BB
:104DC000E38F013B9BB2E387E38F9BB2002BEDD1D6
:104DD000424631462046FFF74FFD18BB012384F8B9
:104DE0005130656D0023ED1A84F8503018BF01254D
:104DF00084E7FEF7FFFEA0EB0800B042E4D3711C8D
:104E0000E2D0012384F85130002384F85030032588
:104E100074E7FEF7EFFEA0EB0800B042B5D3731CB9
:104E2000B3D0EEE720236365D8E7000070B590F8B3
:104E30005130012B0446DDB250D1002936D0002A72
:104E400034D090F85030012B48D0032380F85130F3
:104E500000234365C0E91033C28683638387C38719
:104E600083688286B3F5004F026880F85050016372
:104E700007D1136823F040031360136843F48043A1
:104E80001360A06C164B0364164BC363164BC364CC
:104E9000E38E002606659BB20C32FEF715FD38B195
:104EA000636D84F8506043F010036365284670BD5D
:104EB00023681A68520658BF1A684FF000055CBF95
:104EC00042F040021A6084F850505A6842F02002C2
:104ED0005A605A6842F002025A60E7E70225E5E7A5
:104EE000ED500008335100081151000870B5044618
:104EF00090F8510066680128C5B207D0B6F5827FE8
:104F000071D1A06800286ED1042D6CD100293CD04D
:104F1000002A3AD0002B38D094F85000012862D0F3
:104F2000012084F8500094F85100A386042818BF8B
:104F300005204FF0000618BF84F851006665E3862F
:104F4000E387A38794F85130284D2163042B284B25
:104F5000E06C2849A26318BF1946274B18BF2B469F
:104F6000C4E91066C0E90F31244B2168C0E913364B
:104F7000E38F0C319BB2FEF7A7FC054638B1636D99
:104F800084F8506043F010036365012070BD22680F
:104F9000A06C5368216B43F001035360E38EC0E9BA
:104FA0000F55C0E913559BB20C32FEF78DFC30B1A2
:104FB000636D84F8505043F010036365E5E72368A0
:104FC0001A6852065EBF1A6842F040021A60002258
:104FD00084F850205A6842F020025A605A6842F021
:104FE00002025A60D2E70220D0E700BF0352000855
:104FF00005510008F95000089D51000811510008A2
:105000002DE9F041134690F85120012A04460E463E
:10501000D5B260D1002945D0002B43D087685FB955
:105020004268B2F5827F07D1042280F85120BDE8A2
:10503000F0410A46FFF75ABF94F85020012A4AD09F
:10504000012284F85020042284F85120B7F5004F43
:105050004FF000026265C4E91022E3872168A6636D
:10506000A387A286E28607D10B6823F040030B607A
:105070000B6823F480430B60E06C184B0364184BFF
:10508000C363184BC364E38F002707659BB23246A6
:105090000C31FEF719FC40B1636D84F8507043F099
:1050A000100363652846BDE8F08123681A6852063C
:1050B00058BF1A684FF000055CBF42F040021A600A
:1050C00084F850505A6842F020025A605A6842F000
:1050D00001025A60E6E70225E4E700BFF950000844
:1050E0009D510008115100087047704708B5806B4A
:1050F000FFF7FBFF08BD704708B5806BFFF7FBFFAC
:1051000008BD704708B5806BFFF7FBFF08BD70470F
:10511000806B026808B5536823F003035360436D46
:1051200043F010034365012380F85130FFF7EFFF90
:1051300008BD37B50546846BFEF75CFD2B681B6820
:10514000DB05024626D42368596821F02001596006
:10515000596821F00201596020466421FFF750FB95
:1051600018B1636D43F020036365A36833B90193FD
:105170002368DA6801929B680193019B0023E38610
:10518000012384F85130636D23B12046FFF7BFFF40
:1051900003B030BD204603F0DBFEF9E738B5054625
:1051A000846BFEF727FD2B681B68DB05024624D4C1
:1051B0002368596821F020015960A168C9B9616864
:1051C000B1F5827F15D1596821F00301596020465D
:1051D0006421FFF751FB08B1202363650023E387B7
:1051E000012384F85130636D3BB12046FFF78FFFF8
:1051F00038BD596821F00101E8E7204603F0BAFE06
:10520000F6E738B50546846BFEF7F4FC2B681B689F
:10521000DB0502461ED421684B6823F020034B6057
:1052200020466421FFF7ECFA18B1636D43F02003C8
:1052300063652268536823F0030353600023E38609
:10524000E387012384F85130636D1BB12046FFF7DB
:105250005EFF38BD2046FFF747FFFAE7026802F11C
:105260000C0353E8003F23F490730C3242E8003102
:1052700002680029F2D102F1140353E8003F23F041
:10528000010302F1140C4CE800310029F3D1036B47
:10529000012B0BD102F10C0353E8003F23F0100364
:1052A00002F10C0C4CE800310029F3D1202380F8E6
:1052B00042300023036370470268C16838B5136940
:1052C00023F440530B431361054683680069D1689A
:1052D000034368690343E86921F4164121F00C0196
:1052E00003430B43D3605369A96923F440730B4311
:1052F00053611F4B9A4203D003F580639A4224D135
:10530000FEF73AF9EA691921B2F5004FD5E90043F1
:10531000A0FB01011CD1DA184FF0000545EB050395
:10532000FBF70AFC6422B0FBF2F102FB1103DB0085
:105330003233B3FBF2F303F007025B0002EB01121E
:1053400003F4F8731344A36038BDFEF705F9D9E7F9
:105350009A009B0FFBF7F0FB6422B0FBF2F102FB1B
:1053600011031B013233B3FBF2F303EB0113EAE742
:1053700000100140F7B505460C4617461E462A6840
:10538000136834EA030301D1002021E0701CF7D038
:10539000FEF730FCC01B86421CD3DEB12B68DA68F6
:1053A0005107ECD5802CEAD0402CE8D01A681207BF
:1053B000E5D5002401941A6801925B6801932846A0
:1053C000019BFFF74BFF08236B6485F840400120E9
:1053D00003B0F0BD0320FBE710B5044648B390F8D6
:1053E000413003F0FF021BB980F8402007F020FF96
:1053F0002268242384F84130D36823F40053D36017
:105400002046FFF759FF23681A6922F490421A6177
:105410005A6922F02A025A61DA6842F40052DA60CC
:1054200000202023606484F8413084F842306063B7
:1054300010BD0120FCE72DE9F843984690F8413073
:10544000202B04460E4617463FD100293FD0002AA4
:105450003DD021230025456480F84130FEF7CAFB8A
:10546000A368A784B3F5805F8146E78403D12369ED
:105470000BB935461E46E38C9BB253B943464A46A8
:1054800040212046FFF776FF202350B984F84130B1
:105490000AE043464A4680212046FFF76BFF28B1C9
:1054A000202384F841300320BDE8F88322684EB9F8
:1054B00035F8023BC3F308035360E18C013989B22C
:1054C000E184D8E716F8013BF6E70220ECE701207B
:1054D000EAE778B10023C0F8B832C0F8C432C0F8A7
:1054E000D03209B1C0F8B412012380F89C320270A6
:1054F00006F06CBD0320704713B500230446ADF8D9
:10550000063081B1CB6AC0F8B81223B10DF10600A4
:105510009847C4F8D002D4F8D8320133C4F8D8324E
:10552000002002B010BD0320FBE706F09EBDD0F8BE
:10553000B8320BB11B6818471846704708B5D0F849
:10554000B8325B689847002818BF032008BD38B5FB
:10555000044600F2AA25284600F0A1FB012394F896
:10556000AA12C4F89432B4F8B032C4F8983201F0F8
:105570001F03012B08D0022B0CD08BB929462046E3
:10558000BDE8384000F054B929462046BDE838400F
:1055900000F0B2BA29462046BDE8384000F0DBBA38
:1055A000204601F08001BDE8384006F085BD70B5A9
:1055B000044639BBD0F89432032B12D1D0F85831BD
:1055C000B0F8602193420ED9D0F864119B1A1144AF
:1055D0009A42C0F85831C0F8641138BF1A4600F03A
:1055E000A6FB002070BD90F89C32032B06D1D0F8AA
:1055F000B8321B6913B1C0F8D4129847204600F0A6
:105600009EFBEEE790F89C32032BEAD1D0F8B8323B
:105610009B69002BE5D00022BDE87040C0F8D42281
:10562000184770B504460D4600293FD1D0F8943292
:10563000022B10D18269038C9A4214D9416AD21A82
:1056400019448261416200F06AFB2B462A462946D2
:10565000204606F055FD94F8A03213B1002384F8DB
:10566000A032002070BD0CD143699A4209D8D0F80D
:105670009822934205D20A4600F051FBC4F8985292
:10568000E3E794F89C32032B08D1D4F8B832DB68F6
:1056900023B10022C4F8D422204698478021204616
:1056A00006F00AFD204600F055FBD4E790F89C3246
:1056B000032BD6D1D0F8B8325B69002BD1D00022B1
:1056C000BDE87040C0F8D4221847F8B5012380F82F
:1056D0009C32D0F8B83200210446C0F894124160E0
:1056E000C0F8A41280F8A012BBB900260022402501
:1056F000114601274023204606F0C0FC84F8637160
:10570000A4F860512B4600228021204606F0B6FC0A
:1057100084F8237025843046F8BD5B68002BE4D004
:1057200098470028E1D00326E0E701740020704785
:1057300090F89C32042B1EBF90F89C32DBB280F8AC
:105740009D32042380F89C320020704790F89C32F0
:10575000042B02BF90F89D32DBB280F89C3200200F
:10576000704708B590F89C22032A05D1D0F8B832CA
:1057700013B1DB6903B19847002008BDD0F8D422EB
:10578000AE3208B550F822204AB190F89C32032B73
:1057900001D1136A0BB9002008BD9847FBE703202D
:1057A000FAE7D0F8D422AE3208B550F822204AB138
:1057B00090F89C32032B01D1536A0BB9002008BD2D
:1057C0009847FBE70320FAE700207047012208B55D
:1057D00080F89C22D0F8B8220AB9002008BD52688F
:1057E000017990470028F8D00320F7E700207047A0
:1057F0000020704710B5428803789A4201D80020F3
:1058000010BD0478204423444478052C9BB2F4D185
:1058100084788C42F1D1F3E710B58021044606F07C
:105820004BFC20460021BDE8104006F045BC0000BE
:1058300073B50B7803F06003202B04460D4609D0A6
:10584000402B07D093B12046FFF7E6FF00252846FE
:1058500002B070BDD4F8D432AE33294654F82330A8
:105860009B68204602B0BDE8704018474B78092B72
:10587000E9D801A252F823F0995A0008DD5A00082D
:1058800047580008C15A00084758000893590008B3
:10589000A1580008475800086D5A0008D55900085B
:1058A0000023ADF806304B881A0A013A062ACAD8F6
:1058B00001A151F822F000BFD5580008075900088F
:1058C0002159000847580008475800086559000842
:1058D0007B590008D0F8B4321B68207C0DF106011A
:1058E0009847EA88002A00F0A480BDF80630002B13
:1058F000A9D09A4228BF1A46ADF806200146204694
:1059000000F0FFF9A2E7027CD0F8B83232B99B6A06
:105910000DF10600984702234370E2E7DB6AF7E7E0
:10592000DBB2052B8FD8DFE803F003090D11151941
:10593000D0F8B4325B68002BCFD184E7D0F8B43212
:105940009B68F8E7D0F8B432DB68F4E7D0F8B432FB
:105950001B69F0E7D0F8B4325B69ECE7D0F8B432F9
:105960009B69E8E7037C002B7FF46DAFD0F8B83279
:105970000DF106005B6B9847B3E7037C002B7FF4C7
:1059800062AFD0F8B8320DF106001B6B98470723C1
:10599000C2E78B88002B7FF456AFCB88002B7FF4B7
:1059A00052AF4D887F2D3FF64EAF90F89C32032BBF
:1059B0003FF449AFEDB280F89E52294606F08EFBC7
:1059C000204600F0BCF91DB1022384F89C323DE76B
:1059D0000123FAE78978474D0129297003D9FFF798
:1059E0001BFF032533E790F89C32022BDEB208D070
:1059F000032E17D0FFF710FF29782046FFF79EFDF2
:105A0000EFE7B1B101214160FFF791FD0546204666
:105A100025B1FFF701FF84F89C6218E700F08FF9C9
:105A20000323D2E749B9022380F89C324160FFF793
:105A300085FD204600F083F908E741680129F8D088
:105A4000C9B2FFF77BFD297861602046FFF76FFD43
:105A500005460028EDD02046FFF7DEFE21792046DE
:105A6000FFF76CFD022384F89C32F0E6CA88012A15
:105A70007FF4E9AE90F89C120229CBB207D8002B34
:105A80003FF4E1AE0146002341F8083F37E7032B1E
:105A90007FF4D9AE011D32E790F89C32013B022B16
:105AA0003FF6D1AECA88022A7FF4CDAED0F8A43238
:105AB0000146002B0CBF0123032341F80C3F1EE7D6
:105AC0004B88012B02D1C4F8A432B2E7022B7FF439
:105AD000BAAE8B881B0A80F8A032AAE790F89C32F5
